:020000040000FA
:1000000050310020650300006D030000A90D0000C1
:10001000710300007303000075030000000000007E
:100020000000000000000000000000007703000056
:1000300079030000000000007B030000652400003D
:100040007F0300008103000083030000850300009C
:1000500087030000890300008B030000612000007B
:100060008F0300009103000093030000950300003C
:1000700097030000990300009B0300009D0300000C
:100080009F030000A1030000A3030000A5030000DC
:10009000A7030000A9030000AB030000AD030000AC
:1000A000AF030000B1030000B3030000B50300007C
:1000B000B7030000B903000095080000BD0300006D
:1000C000BF030000C103000071200000C503000051
:1000D000C7030000C9030000CB030000CD030000EC
:1000E000CF030000D103000000000000D303000094
:1000F000D5030000D7030000D9030000DB03000094
:10010000DD030000DF030000E1030000E303000063
:100110000000000000000000E5030000E70300000D
:10012000E90300008120000091200000EF0300009F
:10013000F1030000F3030000F5030000F7030000E3
:1001400000000000000000000000000000000000AF
:10015000F9030000FB030000FD030000FF030000A3
:10016000000000000000000000000000000000008F
:10017000000000000000000000000000000000007F
:10018000000000000000000000000000000000006F
:10019000000000000000000000000000000000005F
:1001A000000000000000000000000000000000004F
:1001B000010400000304000005040000070400001F
:1001C000090400000B0400000D0400000F040000EF
:1001D00011040000130400001504000017040000BF
:1001E000190400001B0400001D04000000000000B2
:1001F000000000001F040000210400002304000090
:10020000250400002704000000000000000000009A
:10021000290400002B0400002D0400002F0400001E
:1002200031040000330400003504000037040000EE
:10023000390400003B0400003D0400003F040000BE
:10024000410400004304000045040000470400008E
:10025000490400004B0400004D0400004F0400005E
:1002600051040000530400005504000000F002F89F
:1002700000F068F80AA090E8000C82448344AAF1D8
:100280000107DA4501D100F05DF8AFF2090EBAE8D6
:100290000F0013F0010F18BFFB1A43F001031847BA
:1002A000F0460100104701000A4410F8013B13F02A
:1002B000030408BF10F8014B1D1108BF10F8015BC3
:1002C000641E05D010F8016B641E01F8016BF9D1B2
:1002D000002D15D010F8014B03F00C030C2BA1EBF3
:1002E00004040ABF10F8013BA4EB8314A4EB03241D
:1002F00005F1010314F8016B5B1E01F8016BF9D5E0
:10030000914238BF10F8013BD1D37047002300243D
:1003100000250026103A28BF78C1FBD8520728BF15
:1003200030C148BF0B607047642900F02381632906
:1003300000F0FF81002070471FB503F003FE1FBDD2
:1003400010B510BD00F018FA1146FFF7F5FF02F0E6
:1003500003FE00F036FA03B4FFF7F2FF03BC00F02F
:100360003DFA00003F4880473F480047FEE7FEE770
:10037000FEE7FEE7FEE7FEE7FEE7FEE7FEE7FEE755
:10038000FEE7FEE7FEE7FEE7FEE7FEE7FEE7FEE745
:10039000FEE7FEE7FEE7FEE7FEE7FEE7FEE7FEE735
:1003A000FEE7FEE7FEE7FEE7FEE7FEE7FEE7FEE725
:1003B000FEE7FEE7FEE7FEE7FEE7FEE7FEE7FEE715
:1003C000FEE7FEE7FEE7FEE7FEE7FEE7FEE7FEE705
:1003D000FEE7FEE7FEE7FEE7FEE7FEE7FEE7FEE7F5
:1003E000FEE7FEE7FEE7FEE7FEE7FEE7FEE7FEE7E5
:1003F000FEE7FEE7FEE7FEE7FEE7FEE7FEE7FEE7D5
:10040000FEE7FEE7FEE7FEE7FEE7FEE7FEE7FEE7C4
:10041000FEE7FEE7FEE7FEE7FEE7FEE7FEE7FEE7B4
:10042000FEE7FEE7FEE7FEE7FEE7FEE7FEE7FEE7A4
:10043000FEE7FEE7FEE7FEE7FEE7FEE7FEE7FEE794
:10044000FEE7FEE7FEE7FEE7FEE7FEE7FEE7FEE784
:10045000FEE7FEE7FEE7000004480549034A054BB6
:1004600070470000092A00006D020000502700209C
:1004700050310020502700200FB4044910B503AAC2
:10048000029800F063F910BC5DF814FBB805002079
:100490000FB41CB5074B06AA7B446946009005982B
:1004A00000F025F90020694600F034F91CBC5DF825
:1004B00014FB0000790200002DE9F0410E460446CD
:1004C000002020622046E168884730B3252805D007
:1004D000D4E901219047206A401CF2E7E1682046F8
:1004E00000278847050018D0A5F14100192802D837
:1004F00020354FF400673246294620462760FFF733
:1005000013FF40B1012804D0F61D26F00706083677
:10051000D8E7361DD6E72846DAE7206ABDE8F0813D
:1005200070B50C460546012A05D02878800600D50E
:10053000EA69002302E0012305E05B1C934202D23A
:10054000E05C0028F9D1A869E618C01AA861286AF9
:10055000184428622846AFF3008004E0D5E9012161
:1005600014F8010B9047B442F8D32846AFF300804B
:1005700070BD00002DE9F041064600241068752981
:10058000314616A510D0AFF30080002802DA4042B1
:1005900013A507E031688A0701D512A502E04907D3
:1005A00004D511A5012401E0AFF3008000210A2247
:1005B00006F1240709E0B0FBF2FCB0FBF2F302FB0A
:1005C0001C00303078541846491C0028F3D12346CB
:1005D0002A463046BDE8F04100F02AB8000000008D
:1005E0002D0000002B0000002000000010B5431C6F
:1005F00002E010F8011B71B18107FAD14FF001320E
:1006000002C88C1A8C4314EAC211F9D0C01A0A0627
:1006100003D0C01E10BDC01A10BD0A0401D0801E38
:1006200010BD0902FCD0401E10BD704770477047D6
:100630002DE9F0470D4699469246044600F12408FC
:100640000168880604D5E06921F01001216000E00E
:100650000120A84201DD471B00E00027A1697A19AB
:1006600002EB0900081AA0612078C00602D42046D7
:10067000AFF30080002608E0D4E901211AF8060053
:100680009047206A401C761C20624E45F4DB20789F
:10069000C0060AD52046AFF3008006E0D4E9012168
:1006A00030209047206A401C2062381EA7F10107C5
:1006B000F4DC07E0D4E9012118F805009047206A2E
:1006C000401C2062281EA5F10105F3DC2046AFF393
:1006D00000802078000602D50220BDE8F0870120C6
:1006E000FBE7000001694A1C02610878704700B509
:1006F0008FB0CDE901310021059105497944CDE95B
:10070000031011466846FFF7D7FE0FB000BD00008A
:10071000E5FFFFFF0A6802F8010B0A60704710B599
:10072000436913B1AFF3008001E0FFF7F9FE012048
:1007300010BD127800F124010A7000224A700122D3
:10074000EDE711684FF0FF32E9E70000074B70B5A5
:100750000D467B44FFF7CBFF0446284600F008F81F
:1007600010B14FF0FF3070BD204670BDBF270000B4
:10077000007B00F080007047754600F02BF8AE4615
:1007800005006946534620F00700854618B020B59D
:10079000FFF762FEBDE820404FF000064FF0000773
:1007A0004FF000084FF0000BAC46ACE8C009ACE8D5
:1007B000C009ACE8C009ACE8C00921F007018D46CA
:1007C000704710B50446AFF300802046BDE81040E6
:1007D000FFF7C1BD00487047C80400200149182038
:1007E000ABBEFEE72600020070470000F0B581B006
:1007F00045F21C4540F270560446C4F2020510F062
:100800000107C2F2000606D114F0100410D117BB84
:100810006CBB01B0F0BD01202860306840F2B441EB
:10082000C2F20001086000F0C9FA14F01004EED022
:100830001020286040F24050C2F200000168B1FA76
:1008400081F149090160006842F20871C2F20001B9
:100850000860002FDCD001202860306840F2B841E9
:10086000C2F20001086000F015FB002CD1D010206E
:10087000286040F24C50C2F200000168B1FA81F1E8
:1008800049090160006842F20C71C2F2000108607F
:1008900001B0F0BD45F21440C4F202000068FFF759
:1008A000A5BF00002DE9F04FA1B04EF28C68C0F258
:1008B000F008404602F0ACFF43F21470C0F20100B1
:1008C00003F0ECFA40F2AC49C2F20009D9F800207A
:1008D00001AD0FF270412846FFF7DAFD28460021EE
:1008E0000A223C2303F086FA40F21C6BC2F2000B92
:1008F000DBF80000012101F049FB40F2206AC2F25E
:10090000000ADAF80000012101F040FB40F21C0669
:10091000C2F200063068012809D1404602F078FF93
:1009200040F29040C2F20000002101F02FFB30683D
:10093000022853D140F24455C2F20005286840F223
:100940002857C2F2000798B940F25050C2F2000096
:10095000006868B9386858B9404602F059FF0FF28C
:10096000F030002104224B2303F044FA01203860C8
:1009700000243C602868012813D140F25050C2F294
:100980000000006868B9386858B9404602F040FF76
:100990000FF2D430002104224B2303F02BFA012064
:1009A000386040F2C44042F249713C60C2F200003B
:1009B000C2F200010078097888420DD1386858B930
:1009C000404602F025FF0FF2B830002104224B23ED
:1009D00003F010FA012038600020386030680328E6
:1009E00040F09E8140F21060C2F20000006830B119
:1009F00040F23400C2F20000012101F0C7FA40F2D7
:100A00001460C2F20000006830B140F24000C2F24F
:100A10000000012101F0BAFA40F2A848C2F2000831
:100A2000D8F8000098B940F26C60C2F2000001688A
:100A300040F2940040F28802C2F2000000294FF018
:100A40000001C2F2000208BF104601F09FFAD9F877
:100A5000000098B940F26C60C2F20000016840F2F8
:100A6000940040F28802C2F2000000294FF0000119
:100A7000C2F2000208BF104601F088FA40F264603A
:100A8000C2F200000078012811D140F2A440C2F265
:100A900000000068013804282AD8DFE800F0030EBF
:100AA00013181D0040F24C04C2F2000418E0DBF8F9
:100AB0000000012101F06AFA1AE040F25804C2F283
:100AC00000040DE040F26404C2F2000408E040F2C9
:100AD0007004C2F2000403E040F27C04C2F200049D
:100AE0002046002101F052FADBF80000C088E080C7
:100AF00040F26860C2F200000078012811D140F293
:100B0000A440C2F200000068013804282AD8DFE8B7
:100B100000F0030E13181D0040F24C04C2F2000452
:100B200018E0DAF80000012101F030FA1AE040F292
:100B30005804C2F200040DE040F26404C2F2000462
:100B400008E040F27004C2F2000403E040F27C04CA
:100B5000C2F200042046002101F018FADAF8000081
:100B6000C088E08040F27850C2F20000006801388E
:100B7000062808D844F24041C0F2000151F8200094
:100B8000002101F003FA40F28C50C2F2000000682C
:100B90000138062808D844F2CC41C0F2000151F8CF
:100BA0002000002101F0F2F940F28450C2F200006E
:100BB00000680138062808D844F29441C0F20001C8
:100BC00051F82000002101F0E1F940F28850C2F212
:100BD000000000680138062808D844F2B041C0F28D
:100BE000000151F82000002101F0D0F940F28050BE
:100BF000C2F2000000680138062808D844F27841A3
:100C0000C0F2000151F82000002101F0BFF940F2CC
:100C10007C50C2F2000000680138062808D844F26F
:100C20005C41C0F2000151F82000002101F0AEF952
:100C300040F29050C2F2000000680138062808D83F
:100C400044F2E841C0F2000151F82000002101F017
:100C50009DF940F2A450C2F2000000680138062855
:100C600008D844F27451C0F2000151F8200000216C
:100C700001F08CF940F29C50C2F20000006801388B
:100C8000062808D844F23C51C0F2000151F8200077
:100C9000002101F07BF940F2A050C2F20000006890
:100CA0000138062808D844F25851C0F2000151F822
:100CB0002000002101F06AF940F29850C2F20000D1
:100CC00000680138062808D844F22051C0F200011B
:100CD00051F82000002101F059F940F29450C2F27D
:100CE000000000680138062808D844F20451C0F218
:100CF000000151F82000002101F048F9D8F8000067
:100D000058B944F29050C0F2000003F0C7F822A096
:100D100000214622322303F06DF8D9F8000010B10B
:100D200021B0BDE8F08F44F29050C0F2000003F013
:100D3000B5F81BA000214622322303F05BF821B056
:100D4000BDE8F08F4C495645533A20256400000019
:100D500050312073656C6563742074616E6B206321
:100D60006F6C6F720000000050322073656C656319
:100D7000742074616E6B20636F6C6F7200000000F2
:100D8000526573656C6563742074616E6B20636F6C
:100D90006C6F72730000000050322057494E5300B0
:100DA00050312057494E530002F0A2F84EF2001085
:100DB000CEF200004FF080410160704740F23400F5
:100DC00045F2DC21C2F20000C0F20001016040F2F5
:100DD0000441818040F27051C2F20001096801397A
:100DE00006294FD8DFE801F0040D18232E38430000
:100DF00040F21C61C2F2000109688A79C9790232A5
:100E00003EE040F21C61C2F2000109688A79C979AA
:100E100001328271053934E040F21C61C2F20001F6
:100E200009688A79C97905328271063929E040F268
:100E30001C61C2F2000109688A79C97905328271A0
:100E400003391EE040F21C61C2F2000109688A7990
:100E5000C9798271043914E040F21C61C2F20001C8
:100E600009688A79C97901328271033109E040F257
:100E70001C61C2F2000109688A79C979013A013915
:100E80008271C17140F21060C2F200000121016064
:100E90007047000040F2400045F2DC21C2F2000041
:100EA000C0F20001016040F20441818040F27451BF
:100EB000C2F200010968013906294FD8DFE801F0C4
:100EC000040D18232E38430040F22061C2F20001C5
:100ED00009688A79C97902323EE040F22061C2F2A3
:100EE000000109688A79C97901328271053934E0D3
:100EF00040F22061C2F2000109688A79C97905329D
:100F00008271063929E040F22061C2F200010968CD
:100F10008A79C9790532827103391EE040F2206175
:100F2000C2F2000109688A79C9798271043914E032
:100F300040F22061C2F2000109688A79C979013260
:100F40008271033109E040F22061C2F200010968B8
:100F50008A79C979013A01398271C17140F214600C
:100F6000C2F20000012101607047000042F22471CA
:100F7000C2F200010860704742F21872C2F2000229
:100F800012788023002A18BFA023036042F21C704D
:100F9000C2F200000078A022002818BF80220A6058
:100FA0007047000010B544F2FC34C4F2000422681B
:100FB0000B4642F040022260226822F008012160C4
:100FC00042F23871C2F20001096802460846114631
:100FD000002201F01FFA42F22470C2F20000006801
:100FE000002818BF10BD42F20070C2F2000000BF1E
:100FF00001680029FCD000210160206840F0080051
:10100000206010BD2DE9F04F81B0884642F238775C
:1010100042F6297144F2FC36C2F20007C0F2000128
:10102000C4F20006386001F03BF8306840F2200559
:1010300040F0080030603068C2F2000540F08000E7
:101040003060286841F2597B00EB8000CDF2B71B7D
:10105000A0FB0B01480B00900098411E009108B1C5
:1010600000BFF9E7306820F080003060286800EBAE
:101070008000A0FB0B01480B009000BF0098411EB0
:10108000009108B100BFF9E7306840F0800030609F
:10109000286800EB8000A0FB0B01480B009000BF0C
:1010A0000098411E009108B100BFF9E7306840F296
:1010B000696440F008003060C2F200040120207032
:1010C0003068214620F0400030603068002220F077
:1010D000080030603868012301F09CF942F2007A80
:1010E000C2F2000ADAF800000028FBD00020CAF89B
:1010F0000000306840F008003060286800EB800095
:101100004000A0FB0B01480B009000BF0098411E5F
:10111000009108B100BFF9E7012020703068214636
:1011200020F0400030603068002220F0080030607D
:101130003868012301F06EF9DAF800000028FBD0CE
:101140000020CAF80000306840F0080030602868CD
:1011500000EB80004000A0FB0B01480B009000BF9B
:101160000098411E009108B100BFF9E711202070DE
:101170003068214620F0400030603068002220F0C6
:10118000080030603868012301F044F9DAF8000003
:101190000028FBD00020CAF80000306840F00800AA
:1011A00030602868C0EB0010C000A0FB0B01480BAA
:1011B000009000BF0098411E009108B100BFF9E700
:1011C000292020703068214620F0400030603068CF
:1011D000002220F0080030603868012301F01AF97D
:1011E000DAF800000028FBD00020CAF800003068C0
:1011F00040F0080030602868C0EB0010C000A0FB81
:101200000B01480B009000BF0098411E009108B1EF
:1012100000BFF9E73A2020703068214620F04000F6
:1012200030603068002220F0080030603868012308
:1012300001F0F0F8DAF800000028FBD00020CAF82E
:101240000000306840F26A6940F008003060C2F285
:101250000009052089F800003068494640F0400048
:1012600030603068002220F00800306038680123C8
:1012700001F0D0F8DAF800000028FBD00020CAF80E
:101280000000306840F00800306040F22000C2F2F8
:101290000000006800EB80004000A0FB0B01480B41
:1012A000009000BF0098411E009108B100BFF9E70F
:1012B000B12020703068214620F040003060306856
:1012C000002220F0080030603868012301F0A2F805
:1012D000DAF800000028FBD00020CAF800003068CF
:1012E00040F2246540F008003060C2F200054FF47F
:1012F000C06028800320A8703068294640F0400074
:1013000030603068002220F0080030603868032325
:1013100001F080F8DAF800000028FBD00020CAF8BD
:101320000000306840F00800306040F22000C2F257
:101330000000006800EB80004000A0FB0B01480BA0
:10134000009000BF0098411E009108B100BFF9E76E
:10135000362020703068214620F040003060306830
:10136000002220F0080030603868012301F052F8B4
:10137000DAF800000028FBD00020CAF8000031682D
:1013800042F2187241F00801316042F21C71B8F16A
:10139000020FC2F20002C2F200011ED0B8F1010F2A
:1013A00033D0B8F1000F4AD100201070087010201F
:1013B00089F800003068494640F0400030603068ED
:1013C000002220F0080030603868012301F022F884
:1013D000DAF800000028FBD04AE010700870C02046
:1013E00089F800003068494640F0400030603068BD
:1013F000002220F0080030603868012301F00AF86C
:10140000DAF800000028FBD032E0012010700870EC
:10141000A02089F800003068494640F04000306064
:101420003068002220F0080030603868012300F0A6
:10143000F1FF00BFDAF800000028FBD018E001201F
:1014400010700870602089F800003068494640F04C
:10145000400030603068002220F0080030603868BA
:10146000012300F0D7FF00BFDAF800000028FBD00E
:101470000020CAF800003068214640F008003060C3
:10148000B42020703068002220F0400030603068C6
:10149000012320F008003060386800F0BBFF00BF77
:1014A000DAF800000028FBD00020CAF800003168FC
:1014B000002241F00801316089F800003068494697
:1014C00040F0400030603068012320F008003060B8
:1014D000386800F09FFF00BFDAF800000028FBD05A
:1014E0000020CAF800003068214640F00800306053
:1014F000C02020703068002220F04000306030684A
:10150000012320F008003060386800F083FF00BF3E
:10151000DAF800000028FBD00020CAF8000030688C
:10152000294640F00800306047F202002880306809
:10153000002240F0400030603068022320F00800B4
:101540003060386800F066FFDAF800000028FBD051
:101550000020CAF80000306840F00800306040F217
:101560002000C2F20000006800EB80004000A0FBF9
:101570000B01480B009000BF0098411E009108B17C
:1015800000BFF9E7C12020703068214620F04000FC
:1015900030603068002220F0080030603868012395
:1015A00000F038FFDAF800000028FBD00020CAF86D
:1015B00000003068494640F008003060052089F896
:1015C00000003068002240F04000306030680123A5
:1015D00020F008003060386800F01CFFDAF80000E6
:1015E0000028FBD00020CAF800003068214640F0F7
:1015F00008003060C22020703068002220F04000D7
:1016000030603068012320F008003060386800F056
:1016100001FF40F22008C2F2000800BFDAF8000023
:101620000028FBD00020CAF800003068294640F0AE
:10163000080030600A2028803068002240F0400016
:1016400030603068022320F008003060386800F015
:10165000E1FE00BFDAF800000028FBD00020CAF845
:1016600000003068214640F008003060C52020703E
:101670003068002220F0400030603068012320F004
:1016800008003060386800F0C5FE00BFDAF80000DE
:101690000028FBD00020CAF800003068294640F03E
:1016A0000800306043F63C0028803068002240F09B
:1016B000400030603068022320F008003060386855
:1016C00000F0A8FEDAF800000028FBD00020CAF8DD
:1016D0000000306840F008003060D8F8000000EBEF
:1016E00080004000A0FB0B01480B00900098411EB9
:1016F000009108B100BFF9E7E02020703068214672
:1017000020F0400030603068002220F00800306097
:101710003868012300F07EFEDAF800000028FBD0D4
:101720000020CAF800003068294640F00800306008
:1017300041F20960C2F20900286041F62130C1F689
:101740001310686041F21750C2F61E30A86040F2D4
:101750000450C0F60260E8603068002240F04000AB
:1017600030603068102320F008003060386800F0E6
:1017700051FE00BFDAF800000028FBD00020CAF8B4
:1017800000003068214640F008003060E120207001
:101790003068002220F0400030603068012320F0E3
:1017A00008003060386800F035FE00BFDAF800004D
:1017B0000028FBD00020CAF800003068294640F01D
:1017C0000800306041F20B40C1F60860286041F625
:1017D0002250C1F61860686041F61B20C2F6243022
:1017E000A86040F20660C0F60270E860306800222F
:1017F00040F0400030603068102320F00800306076
:10180000386800F007FE00BFDAF800000028FBD0BF
:101810000020CAF80000306840F008003060D8F8B6
:10182000000000EB80004000A0FB0B01480B009083
:101830000098411E009108B100BFF9E72A202070EE
:101840003068214620F0400030603068002220F0EF
:10185000080030603868012300F0DCFDDAF8000091
:101860000028FBD00020CAF800003168002241F0B7
:10187000080131602880A87042F21870C2F200009E
:1018800000787F21002818BF6FF06001E970306890
:10189000294640F0400030603068042320F0080002
:1018A0003060386800F0B6FDDAF800000028FBD0A0
:1018B0000020CAF800003068214640F0080030607F
:1018C0002B2020703068002220F04000306030680B
:1018D000012320F008003060386800F09BFD00BF55
:1018E000DAF800000028FBD00020CAF800003168B8
:1018F000002241F0080131602880A87042F21C707B
:10190000C2F2000000786FF06001002818BF7F214C
:10191000E9703068294640F04000306030680423A8
:1019200020F008003060386800F074FDDAF800003C
:101930000028FBD00020CAF800003068214640F0A3
:1019400008003060132020703068002220F0400032
:1019500030603068012320F008003060386800F003
:1019600059FD00BFDAF800000028FBD00020CAF8BB
:101970000000306840F008003060D8F8000000EB4C
:1019800080004000A0FB0B01480B00900098411E16
:10199000009108B100BFF9E72C2020703068214683
:1019A00020F0400030603068002220F008003060F5
:1019B0003868012300F02EFDDAF800000028FBD083
:1019C0000020CAF80000306840F008003060D8F805
:1019D000000000EB80008000A0FB0B01480B009092
:1019E0000098411E009108B100BFF9E7292020703E
:1019F0003068214620F0400030603068002220F03E
:101A0000080030603868012300F004FDDAF80000B7
:101A10000028FBD00020CAF80000306840F0080021
:101A20003060D8F80000C0EB0010C000A0FB0B0134
:101A3000480B00900098411E009108B100BFF9E7E3
:101A40002C2020703068214620F040003060306843
:101A5000002220F0080030603868012300F0DAFC32
:101A6000DAF800000028FBD00020CAF80000306837
:101A700040F00800306001B0BDE8F08FB0B54EF224
:101A80003861C4F20F0151F81C2C4EF60820C4F244
:101A90000F0042F0010241F81C2C00BF4269D2073E
:101AA000FCD051F8342C42F03F0241F8342C51F86C
:101AB000202C42F0010241F8202C00BFD1F8CC23A9
:101AC000D207FBD0D1F8CC239207FBD5D1F8CC2399
:101AD0005207FBD5D1F8CC231207FBD551F8302C97
:101AE00042F03F0241F8302C0269D207FCD000BF1F
:101AF0000268D207FCD000BF02689207FCD500BF85
:101B000002685207FCD500BF02681207FCD500BF6F
:101B10000268D206FCD500BF02689206FCD545F2E9
:101B2000004EC4F2000EDEF8002045F2104342F0F1
:101B30000402CEF80020DEF81C2144F24B3C42F0B7
:101B40000402CEF81C21DEF82020C4F2020322F0A9
:101B50000402C4F64F4CCEF82020C3F810C1D3F8CD
:101B6000142142F01102C3F8142153F8102C22F072
:101B7000110243F8102CD3F80C2142F01102C3F8E3
:101B80000C211A6922F011021A61D3F81C2122F0EB
:101B90001102C3F81C21D3F8002142F01102C3F84E
:101BA00000211A6822F011021A6053F8082C22F062
:101BB000110243F8082C53F80C2C22F0110243F8C0
:101BC0000C2C6FF0110243F8042C1A6842F0110239
:101BD0001A60D3F8142142F00602C3F8142153F816
:101BE000102C22F0060243F8102CD3F80C2142F0FE
:101BF0000602C3F80C211A6922F006021A61D3F812
:101C00001C2122F00602C3F81C21D3F8002142F067
:101C10000602C3F800211A6822F006021A6053F87F
:101C20000C2C22F0060243F80C2C53F8082C22F05E
:101C3000060243F8082C53F8042C22F0060243F85D
:101C4000042C1A6842F006021A60CEF820C1DEF8B1
:101C5000242144F22C5342F04002CEF82421DEF835
:101C60000020C4F2000342F04002CEF80020DEF86B
:101C7000102142F04002CEF81021DEF81C2142F083
:101C80004002CEF81C214FF6F462CFF6FF729C584A
:101C900044F003049C5053F8104C44F0030443F800
:101CA000104C53F8044C24F0030443F8044C1C6813
:101CB00024F0FF041C601C6844F011041C604FF603
:101CC000D464CFF6FF741D5945F010051D5153F82B
:101CD000105C45F0100543F8105C9D5825F0100588
:101CE0009D5043F80CCC1D5945F0C8051D5153F8C3
:101CF000105C40F6FF7445F0C80543F8105C9D5831
:101D0000C0F2FF0425F0C8059D501D6825401D60E8
:101D100053F8105C4FF6FF7445F0240543F8105C4F
:101D20009D5845F024059D501A684FF2FF05CFF6E7
:101D30000F752A401A601A6842F4001242F40072C9
:101D40001A60DEF8002042F00202CEF80020DEF831
:101D50001C2142F00202CEF81C2147F20042C4F2DC
:101D60000002136843F00F031360D2F81C3143F0F4
:101D70000F03C2F81C31156A44F2204325F00F0509
:101D80001562D2F82C51C4F20203A543C2F82C51BB
:101D900053F8202C22F00E0243F8202CD3F8FC201C
:101DA00042F00E02C3F8FC201A6822F00E021A60FC
:101DB000D3F80C216FF31322C3F80C21D3F8F020D1
:101DC00042F00E02C3F8F0200A6842F001020A60F5
:101DD0000A6842F002020A60026BD207FCD000BF20
:101DE000026B9207FCD5D3F8042142F03002C3F80D
:101DF00004211A6842F030021A60D3F8FC2022F065
:101E00003002C3F8FC20D3F8082142F03002C3F8B6
:101E100008211A6842F020021A6053F8202C22F0A0
:101E2000200243F8202CD3F8FC2022F02002C3F833
:101E3000FC20D3F8082142F02002C3F808211A68D8
:101E400042F010021A6053F8202C22F0100243F8DE
:101E5000202CD3F8FC2022F01002C3F8FC20D3F889
:101E6000082142F01002C3F808210A6842F001027A
:101E70000A6000BF026BD207FCD00A6842F002027F
:101E80000A6000BF016B8907FCD5DEF8000040F056
:101E90004000CEF80000DEF81C0140F04000CEF813
:101EA0001C01DEF8200040F04000CEF82000DEF8F3
:101EB0002C0120F07060CEF82C01DEF82C0140F0EF
:101EC000E060CEF82C010420C4F20300816821F008
:101ED0000101816050F8041C41F0040140F8041C29
:101EE000016841F002010160016821F01001016008
:101EF0004FF6034141623D214163416941F00101D7
:101F00004161016A41F001010162816841F0010112
:101F100081604CF22C00C4F20000416821F0010104
:101F200041604CF6C871C4F200010A6822F00F0249
:101F30000A600A680A60416821F0200141600521B9
:101F400040F8081C1B2140F8041C016821F06001C6
:101F50000160016841F042010160016841F0040143
:101F60000160016821F008010160016841F0100181
:101F70000160416841F480714160416841F4407101
:101F80004160416841F001014160B0BDB0B5044617
:101F9000807922790D46A0EB5201E27963792068BD
:101FA000D21A01F067FC002D08BFB0BD4EF28C6064
:101FB000C0F2F00001F060FF2279A0796179E37945
:101FC000A0EB5200591A0244BDE8B04001F0EEBC4B
:101FD00070B505680446EE68A869700722D5A86840
:101FE00094F82C10C90704D1E16941B162698854A1
:101FF00005E0616A00291CBF626921F8120060696E
:10200000A16A01306061606988420BDB686920F079
:1020100004006861686820F002006860206B002896
:1020200018BF8047B00708BF70BD2069A16A884209
:1020300007DA94F82C00C00708D12069A169085C70
:1020400008E0686920F00800686170BD2069216AB5
:1020500031F81000A86020690130206170BD0000D7
:1020600042F22870C2F200000068FFF7B1BF000022
:1020700042F22870C2F200004068FFF7A9BF0000DA
:1020800042F22870C2F200008068FFF7A1BF000092
:1020900042F22870C2F20000C068FFF799BF00004A
:1020A0000163704710B503290FD848F2000CC4F241
:1020B000000C4FF0070EDFE801F00F02050B0CF5E6
:1020C000805C07E00CF5005C04E04FF0FF3010BDD1
:1020D0000CF5405C4FF0220E42F22874C2F200046C
:1020E000C0E900CE44F82100DCF8041021F0020120
:1020F000CCF80410DCF8041021F00401CCF8041032
:1021000033B1012B15D1DCF8001021F0400103E0C0
:10211000DCF8001041F04001029BCCF80010032BCA
:102120000AD0022B40F06C80DCF8001021F0800116
:1021300006E06FF0010010BDDCF8001041F08001F6
:10214000CCF80010DCF8C81F21F00F01CCF8C81F34
:10215000DCF8C81FCCF8C81F40F22001C2F2000111
:10216000096891FBF2F10229BCBF6FF0040010BDB9
:10217000FF2901DA002211E04FF6FB729142C4BF41
:102180006FF0040010BD40F20942C8F2021252FB87
:102190000111CA1102EBD1714A1EFE21DCF8003098
:1021A00023F47F43CCF80030DCF8003043EA02230C
:1021B000CCF80030CCF81010DCF8001021F00F0142
:1021C000CCF80010CCF8002090F82C10039A01F005
:1021D000FE03111F0C2980F82C3014D8DFE801F021
:1021E00007161F28313A424A525A626A7200DCF8D6
:1021F000001041F00301CCF800100421C1606FE031
:102200006FF0020010BD6FF0030010BDDCF800108D
:1022100041F00401CCF800100521C16060E0DCF859
:10222000001041F00501CCF800100621C16057E014
:10223000DCF8001041F00601CCF800100721C16065
:102240004EE0DCF8001041F00701CCF80010082146
:10225000C16045E0DCF8001041F00801CCF8001046
:10226000092136E0DCF8001041F00901CCF800103B
:102270000A212EE0DCF8001041F00A01CCF8001031
:102280000B2126E0DCF8001041F00B01CCF8001027
:102290000C211EE0DCF8001041F00C01CCF800101D
:1022A0000D2116E0DCF8001041F00D01CCF8001013
:1022B0000E210EE0DCF8001041F00E01CCF8001009
:1022C0000F2106E0DCF8001041F00F01CCF80010FF
:1022D000102190F82C20C16042F0010180F82C10F0
:1022E000DCF80400012140F01000CCF80400DCF818
:1022F000040040F00200CCF804000EF0070001FAE0
:1023000000F04EF20011CEF2000141EADE0121F0B0
:1023100003010860002010BD0268043953680C29CD
:1023200023F002035360136823F00F03136090F847
:102330002C3003F0FE0380F82C3084BF6FF00300D4
:102340007047DFE801F0070E151C232A30363C42A7
:10235000484E5400116841F0030111600421C1602E
:1023600051E0116841F0040111600521C1604AE0AB
:10237000116841F0050111600621C16043E0116858
:1023800041F0060111600721C1603CE0116841F095
:10239000070111600821C16035E0116841F00801B2
:1023A0001160092128E0116841F0090111600A213A
:1023B00022E0116841F00A0111600B211CE0116854
:1023C00041F00B0111600C2116E0116841F00C0185
:1023D00011600D2110E0116841F00D0111600E2116
:1023E0000AE0116841F00E0111600F2104E011684C
:1023F00041F00F011160102190F82C30C16043F0C2
:10240000010180F82C10506840F00200506000205C
:102410007047000080B54FF0000ED0F800C0C0F843
:1024200010E0C0F814E090F82CE05FEACE7E04D112
:10243000C0E906128362097805E000F1200E5B1006
:102440008EE80E000988CCF808100169013101619D
:102450000C20CCF81400DCF8040040F00200CCF8AA
:10246000040080BD70B542F20470C2F20000012188
:10247000016042F21470C2F2000002680132B2F54B
:102480007A7F026014D142F2FC62C2F20002116053
:1024900042F22072C2F2000200211368016045F28C
:1024A0008011581CC0F20101884288BF00201060D2
:1024B00040F2C040C2F20000016861B10168013918
:1024C0000160016839B91E21016042F2F860C2F270
:1024D00000000121016040F2BC40C2F2000001682E
:1024E00061B1016801390160016839B932210160C7
:1024F00042F2F460C2F200000121016040F2345067
:10250000C2F20000016831B140F22401C2F20001C0
:1025100009680021016040F21860C2F20000016801
:1025200091B144F2FC316FF06302C4F2000100BFCC
:102530000B68013243F010030B60F9D30A6822F0F4
:1025400010020A600021016040F21060C2F2000037
:102550000068002800F0E18000F0C6FA40F21C6636
:10256000C2F20006336840F24002C2F2000219795A
:102570009D7994792944A14240F22C51C2F2000184
:1025800017D910792044A84213D95879DD79D47924
:102590002844A0420DD950792044A84209D90120ED
:1025A000086040F2A840C2F200000268013A0260EE
:1025B00003E00868012840F0B08040F26852C2F29F
:1025C0000002012010601068012836D140F2A840B6
:1025D000C2F20000006802282FD140F2646CC2F2FF
:1025E000000C012040F29C448CF80000C2F2000470
:1025F0002068013820602068D0B940F2A44EC2F2B1
:10260000000EDEF800000130CEF80000C820206087
:10261000DEF80000062807DB0120CEF800000020CD
:102620008CF80000086003E0012008608CF80000CE
:1026300045F67820D880002010601068012837D136
:1026400040F2A840C2F200000068012830D140F2F8
:10265000646CC2F2000C012040F29C448CF8000033
:10266000C2F200042068013820602068B0B940F24E
:10267000A443C2F20003186801301860C82020602B
:102680001868062806DB0120186000208CF800007E
:10269000086003E0012008608CF8000040F2206030
:1026A000C2F20000006841F23243C3800020106093
:1026B0001068012831D140F2A840C2F20000006841
:1026C00058BB40F26462C2F20002012040F29C4317
:1026D0001070C2F200031868013818601868A0B9B9
:1026E00040F2A444C2F20004206801302060C820F7
:1026F00018602068062805DB01202060002010708B
:10270000086002E001200860107040F22800C2F268
:10271000000042F68C013060C18040F21460C2F2C9
:102720000000006840F2AC440028C2F2000400F04F
:10273000CA8000F02FFA40F2206EC2F2000EDEF8DE
:10274000002040F23403C2F20003117990799D79A0
:102750000144A94240F23051C2F2000113D91E795E
:102760002E4486420FD95679D079DD790644AE429F
:1027700009D95B792B44834205D901200860206880
:102780000138206003E00868012840F09C8040F296
:102790006C53C2F2000301201860186801282ED182
:1027A000206802282BD140F2686CC2F2000C012094
:1027B0008CF8000040F2A040C2F200000568013D24
:1027C00005600568B5B940F2A445C2F200052E685F
:1027D00001362E60C82606602868062806DB012020
:1027E000286000208CF80000086003E001200860E9
:1027F0008CF8000045F67820D0800020186018681A
:1028000001282ED1206801282BD140F2686CC2F239
:10281000000C01208CF8000040F2A040C2F2000041
:102820000568013D05600568B5B940F2A445C2F2EE
:1028300000052E6801362E60C82606602868062826
:1028400006DB0120286000208CF80000086003E00F
:10285000012008608CF8000045F67820D080002028
:102860001860186801282ED1206860BB40F26862A9
:10287000C2F200020120107040F2A040C2F200003B
:102880000368013B03600368A3B940F2A443C2F2AA
:1028900000031E6801361E60C826066018680628F8
:1028A00005DB0120186000201070086002E00120A4
:1028B0000860107040F22800C2F2000042F68C015D
:1028C000CEF80000C1802068002842F24C70C2F2AD
:1028D000000001D000210FE001680A290ADB40F264
:1028E0006C61C2F200010A68B2FA82F252090A600F
:1028F0000021016001680131016040F24050C2F2E4
:102900000000006840B142F20870C2F200000121EC
:10291000016000F017FA05E042F20870C2F2000010
:102920000021016040F24C50C2F20000006848B142
:1029300042F20C70C2F2000001210160BDE870405B
:1029400000F06ABA42F20C70C2F20000002101608D
:1029500070BD00004EF26000C4F20F000168026911
:10296000B2F1FF3F06DD08051BD44CF20020C0F693
:10297000EB301EE010052FD448F2004040F2200C4E
:10298000C1F2D770C2F2000C5300CCF8000035D46D
:102990004CF20020C0F6EB304902CCF800002AD4FB
:1029A000704744F25862C1F38410C0F2000252F83A
:1029B000200040F22002C2F200024B02106058BF19
:1029C0007047C1F3C3510131B0FBF1F040F2200177
:1029D000C2F200010860704744F25863C1F38410EA
:1029E000C0F2000353F8200040F22003C2F20003BB
:1029F00049021860D4D5C2F3C551E4E74902CFD5E6
:102A0000C2F38651DFE7000082B04EF68851CEF265
:102A100000010A684EF2700042F47002C4F20F0026
:102A20000A6050F8101C0191019921F001010191F7
:102A3000019940F8101C00BF50F8201CC905FBD5B7
:102A40004FF4807140F8181C019921F03001019178
:102A500001990191019921F4F8610191019941F4E1
:102A6000A8610191019921F0F0610191019941F46E
:102A700080010191019921F420510191019921F4E2
:102A80006021019101990191016841F000410160CB
:102A900001680091009941F080410091009921F472
:102AA00080010091009921F0FE510091009921F0E0
:102AB0007001009100990091009941F0807100919E
:102AC000009921F400510091019940F8101C0099DF
:102AD000016000BFD0F8F810C907FBD0016821F4ED
:102AE0000061016002B0704740F21060C2F2000065
:102AF000016800294DD040F2A851C2F200010A68D5
:102B0000531CC72A0B6044DB42F20872C2F2000277
:102B10001268002A3DD040F2B443C2F200031B68A1
:102B200000220A605A1E40F23401062AC2F2000155
:102B300023D8DFE802F004080B1115191C008A796C
:102B4000CB79053A05E0CA79053A15E08A79CB795F
:102B500005328A715A1F0FE08A7905328A710CE0BA
:102B60008A79CB79053205E0CA79053204E08A79A1
:102B7000CB79053A8A715A1DCA71CA797F3A12F126
:102B80007E0F04D3897911B19F2938BF7047002186
:102B90000160704740F21460C2F200000168002931
:102BA0004DD040F2AC51C2F200010A68531CC72A52
:102BB0000B6044DB42F20C72C2F200021268002A7F
:102BC0003DD040F2B843C2F200031B6800220A6005
:102BD0005A1E40F24001062AC2F2000123D8DFE863
:102BE00002F004080B1115191C008A79CB79053203
:102BF00005E0CA79053215E08A79CB79053A8A7100
:102C00005A1D0FE08A7905328A710CE08A79CB79F6
:102C1000053A05E0CA79053A04E08A79CB790532AC
:102C20008A715A1FCA71CA797F3A12F17E0F04D392
:102C3000897911B19F2938BF704700210160704721
:102C400040F23C50C2F2000000680138052888BFFD
:102C50007047DFE800F0031527394B5D40F21C6137
:102C600040F27052C2F20001C2F20002086812681B
:102C7000013A062A60D844F24043C0F2000358E00B
:102C800040F21C6140F27052C2F20001C2F2000236
:102C900008681268013A062A4ED844F2CC43C0F2C2
:102CA000000346E040F21C6140F27052C2F20001A3
:102CB000C2F2000208681268013A062A3CD844F2BF
:102CC0009443C0F2000334E040F21C6140F27052C1
:102CD000C2F20001C2F2000208681268013A062A34
:102CE0002AD844F2B043C0F2000322E040F21C6153
:102CF00040F27052C2F20001C2F20002086812688B
:102D0000013A062A18D844F27843C0F2000310E0D2
:102D100040F21C6140F27052C2F20001C2F20002A5
:102D200008681268013A062A06D844F25C43C0F2E9
:102D3000000353F822200A60096888421CBFC0883B
:102D4000C880704740F2B050C2F2000001684A1CCF
:102D5000C72902605EDB42F20871C2F20001096815
:102D6000002957D00021016040F27050C2F20000EB
:102D700000680138062888BF7047DFE800F0040DBE
:102D800016222B37400040F21C60C2F2000000689F
:102D90008179C279023910E040F21C60C2F2000071
:102DA0000068C1790239C171704740F21C60C2F2FB
:102DB000000000688179C27902318171911EC17170
:102DC000704740F21C60C2F2000000688179023155
:102DD0008171704740F21C60C2F200000068817986
:102DE000C27902318171911CC171704740F21C603F
:102DF000C2F200000068C1790231C171704740F22F
:102E00001C60C2F2000000688179C27902398171C8
:102E1000911CC1717047000040F2B450C2F2000032
:102E200001684A1CC729026060DB42F20C71C2F2E1
:102E300000010968002959D00021016040F2745056
:102E4000C2F2000000680138062888BF7047DFE83A
:102E500000F0040F18242D39420040F22060C2F225
:102E6000000000688179C27902318171911CC171C1
:102E700040F22060C2F200000068C1790231C171E5
:102E8000704740F22060C2F2000000688179C27988
:102E900002398171911CC171704740F22060C2F209
:102EA00000000068817902398171704740F220602A
:102EB000C2F2000000688179C27902398171911EE5
:102EC000C171704740F22060C2F200000068C17911
:102ED0000239C171704740F22060C2F20000006800
:102EE0008179C27902318171911EC17170470000F0
:102EF0004EF60C50BFF34F8FCEF200000168042253
:102F000001F4E061C0F2FA5211430160BFF34F8F48
:102F100000BFFDE74CF20001C4F200018A6992068D
:102F2000FCD408607047000080B542F22470C2F201
:102F30000000006848B1804744F2FC30C4F2000051
:102F4000016841F00801016080BD42F20070C2F2E8
:102F500000000121016080BD84B0FEF78FFDFFF706
:102F6000F9FC40F22000C2F20000006844F6D351A0
:102F7000C1F26201A0FB01014FF0FF3000EBD11064
:102F80000023B3EB106F0DD14EF21001CEF2000111
:102F900048604EF62350CEF20000E0220270072077
:102FA0008B6008604EF20740CEF2000040F2C06B2A
:102FB00003704FF008090220C2F2000B47F64002EE
:102FC00049F2000A48F2000645F2380847F23C058B
:102FD00045F2FC34CDE90009C0F27D1258460021CB
:102FE0000123C4F2030AC4F20306C4F20208C4F2C5
:102FF0000005C4F20004FFF755F858460321FEF718
:1030000001F803A802A9FDF7B7FFDDE9022140F2AC
:10301000706040F2F4634FF40057C2F20000C2F255
:1030200000030097574600F06BFD58461021FFF74C
:1030300073F9012000F0E0FBFF2000F0E9FBFF2026
:1030400000F032FF44F27830C0F2000000F026FFBA
:1030500043F2E970C0F20000FDF788FF43F2D97037
:10306000C0F2000000F0CEFB206840F002002060BB
:10307000FDF79CFE306840F2A00120F001003060B6
:10308000DAF80000C2F2000120F00100CAF80000E6
:103090000920C6F84090CAF84000706C40F24054D5
:1030A00040F022007064DAF8440040F21C0940F05D
:1030B0002200CAF84400306B40F20C6740F0050073
:1030C0003063DAF83000002340F00500CAF8300021
:1030D0003068C2F2000440F001003060DAF800000D
:1030E000C2F2000940F00100CAF80000B06AC2F262
:1030F000000740F00100B062DAF8280040F2705694
:1031000040F00100CAF8280040F21C60C2F2000042
:10311000016040F2206040F2844142F2107AC2F233
:103120000000C2F20001C2F20006C2F2000A016011
:103130000BE000BF40F218610120C2F200010860FC
:1031400040F23450C2F20000036048F2000049F23D
:103150000001C4F20300C4F20301C346D046CA46CC
:10316000806CD1F8489042F24471C2F200010A88A2
:1031700081B28A1A48BF5242332A1BD3C1EBC10124
:10318000012202EB1131316031680829A4BF072107
:10319000316031680029DCBF0121316042F24471A5
:1031A000C2F200010880FFF74BFD40F27056C2F2F8
:1031B0000006002342F24670C2F2000001881FFAA6
:1031C00089F0411A48BF4942332920D3C0EBC000DF
:1031D000012101EB103040F27451C2F2000108608D
:1031E00008680828A4BF0720086008680028DCBF1A
:1031F0000120086042F24670C2F20000A0F8009080
:10320000FFF71EFD40F27056C2F20006002348F29E
:103210000001C4F20301886A40F00100886249F2AB
:103220000001C4F20301886A40F00100886240F2A4
:103230003850C2F20000036042F2F860C2F20000AF
:103240000068B0B140F2B040C2F20000006880B146
:1032500042F2F860C2F20000036040F2B040C2F2F5
:103260000000036000F0F4FB40F270560023C2F24D
:10327000000642F2F460C2F200000068D146002865
:10328000C246D84600F0AE8042F2F460C2F20000BE
:103290000360D5F8C00340F00F00C5F8C0033868DC
:1032A00000286FD042F24070C2F200000068296826
:1032B000012202FA00F021EA0000286000BF00BFEE
:1032C00044F2FC3000BFC4F2020042F23C710068DC
:1032D000C2F200010968C0F34200C840C0071CBF29
:1032E0003B608AF80030D5F8C00342F2487120F004
:1032F0000F00C5F8C0039AF80000C2F200010A7876
:1033000000284FF02D0118BF31218A426AD042F2C5
:103310004872C2F2000245F2FC371170C4F2000795
:10332000D8F8C4133A6842F004023A604FF002023F
:103330004FF00407C8F80020C8F8003038B100BFCB
:1033400001380206C8F80070C8F80030F8D1022031
:1033500045F2FC32C8F80070C8F80030C8F8000028
:10336000C8F80030C4F20002106840F20C6701F0A7
:103370000E0120F00400C2F200071060C8F800102F
:1033800030E000BF286820F00100286000BF00BFC7
:1033900044F2FC3000BFC4F20200006880071DD474
:1033A00042F240710120C2F200018AF800000B6075
:1033B00042F23C71C2F200010B6040F21861C2F2AD
:1033C0000001386008600FF204403121FDF754F825
:1033D00040F270560023C2F2000603E03B608AF818
:1033E000003000BF2068012818D140F25451C2F2C9
:1033F0000001086801300860086844F621618842CD
:103400000CD32068012809D140F25450C2F20000C8
:10341000236003600220C9F8000000BFD9F8000053
:10342000022840F0778140F24450C2F20000006868
:10343000002840F094809AF80000012840F23C50A7
:1034400008BF8AF80030C2F2000000680138052881
:1034500000F28580DFE800F00316293C4F6240F25D
:103460007857C2F2000738680138062871D844F24C
:103470004041C0F2000140F2785701EB8000C2F2F7
:1034800000075DE040F28C57C2F20007386801384F
:1034900006285ED844F2CC41C0F2000140F28C57BD
:1034A00001EB8000C2F200074AE040F28457C2F20A
:1034B00000073868013806284BD844F29441C0F21E
:1034C000000140F2845701EB8000C2F2000737E0B0
:1034D00040F28857C2F2000738680138062838D809
:1034E00044F2B041C0F2000140F2885701EB800085
:1034F000C2F2000724E040F28057C2F200073868A9
:103500000138062825D844F27841C0F2000140F283
:10351000805701EB8000C2F2000711E040F27C57B7
:10352000C2F2000738680138062812D844F25C411C
:10353000C0F2000140F27C5701EB8000C2F20007AC
:1035400000680021FEF722FD40F27056C2F200062C
:103550000023386840F20C67C2F20007306040F286
:103560004450C2F200000068012840F0A18040F2FF
:103570005050C2F200000068002840F099809AF88C
:103580000000012840F2485008BF8AF80030C2F21B
:10359000000000680138052800F28A80DFE800F0AA
:1035A0000316293C4F6240F29057C2F20007386878
:1035B0000138062871D844F2E841C0F2000140F217
:1035C000905701EB8000C2F200075DE040F2A45783
:1035D000C2F200073868013806285ED844F27451F8
:1035E000C0F2000140F2A45701EB8000C2F20007D4
:1035F0004AE040F29C57C2F20007386801380628BA
:103600004BD844F23C51C0F2000140F29C5701EB10
:103610008000C2F2000737E040F2A057C2F2000774
:1036200038680138062838D844F25851C0F20001F1
:1036300040F2A05701EB8000C2F2000724E040F204
:103640009857C2F2000738680138062825D844F296
:103650002051C0F2000140F2985701EB8000C2F205
:10366000000711E040F29457C2F2000738680138B1
:10367000062812D844F20451C0F2000140F29457D7
:1036800001EB8000C2F2000700680021FEF77EFC1B
:1036900040F27056C2F200060023386840F27451BE
:1036A00040F20C67C2F20001C2F20007086000BFDE
:1036B00040F24450C2F20000006801282AD140F2D2
:1036C0005050C2F200000068012823D140F2C440EB
:1036D00042F24971C2F20000C2F20001007809789A
:1036E000884207D140F25050C2F20000036002202D
:1036F000C9F8000040F2C44042F24971C2F2000031
:10370000C2F200010078097888421CBF0320C9F882
:10371000000000BFD9F8000003287FF416AD40F286
:1037200034510120C2F2000108602068012818D13C
:1037300040F25850C2F2000040F254510360C2F20D
:103740000001086801300860086844F62161884279
:1037500007D32068012802BF40F25450C2F2000093
:10376000036040F26450C2F20000006801281CD1DE
:1037700040F26050C2F2000040F25C510360C2F2BD
:103780000001086801300860086844F62161884239
:103790000BD340F26450C2F200000068012802BF5F
:1037A00040F25C50C2F20000036040F2A840C2F256
:1037B0000000006800283FF4BDAC40F2AC40C2F20B
:1037C0000000006800287FF4C0ACB3E4494E5055B7
:1037D000543A20256300000040F2B040C2F20000DD
:1037E000012101607047000040F2B040C2F20000C9
:1037F00001210160704700000149C8607047000066
:10380000000000200149086170470000000000200E
:103810004FF478414FF4FC6201EA102102EA5012A1
:103820001143C0F3C4000143114810B4C2682AB95F
:103830004FF47F4202EA012242EA11218268D2E972
:103840000BC4936C906B04FB1C339C45C8BF18469B
:10385000401E3CBF10BC7047936B8342DCBF10BC62
:103860007047536B23F81010401EF5D210BC704700
:10387000000000202DE9F04730F8025B324F30F8AD
:10388000023B30F802CB044605FB03F64819451EFF
:10389000D018431EB868BCF1000F4162C0E904159E
:1038A000C0E9062304D0BCF1010F15D0BDE8F087B4
:1038B000751E38BFBDE8F0872088F968002908BF69
:1038C00040BA00F003FB002808BFBDE8F087A41C45
:1038D0006D1EF1D2BDE8F08734F8029B34F8028BFC
:1038E000B9F1000F1CBFA9F1010085B214D0F8682E
:1038F000002808BF98FA98F8404600F0E7FA002838
:1039000008BFBDE8F087681E85B2F0D2A6EB0906B5
:10391000002EE1D1BDE8F087B8F1010085B20FD3E8
:10392000F9682088002908BF40BA00F0CFFA0028C3
:1039300008BFBDE8F087691E8DB204F10204EFD222
:10394000A6EB0806E4E700000000002070B503467F
:1039500015489142B0F804C01FFA8CF5C8BF70BD7D
:10396000D0F814C0BCF1000F08BF70BDC468002CB3
:1039700008BF6DBA03EB0C048068641E416210300E
:1039800080E81E00501A401C00FB0CF60024002E9C
:10399000D8BF70BD284600F099FA00281CBF641CEF
:1039A000B442F7DB70BD0000000000202DE9F041BB
:1039B0000F46804601461C4615463846FFF7C6FFAF
:1039C0000A4E414670692844421E2046FFF7BEFF5A
:1039D00022463946404600F00BF8706939462044CB
:1039E000421E2846BDE8F04100F002B80000002069
:1039F00070B5164B9142B3F804C01FFA8CF5C8BFDE
:103A000070BDD3F814C0BCF1000F08BF70BDDC68F6
:103A1000002C08BF6DBA00EB0C049B68641E586252
:103A2000C3E90404501AC3E90612401C00FB0CF65B
:103A30000024002ED8BF70BD284600F047FA0028A9
:103A40001CBF641CB442F7DB70BD00000000002006
:103A500070B52A4C4FF00005A06890F84C1011F09A
:103A6000010F0BD1056205630560026CC0E90125F9
:103A7000826A41F00301C26080F84C10426C816898
:103A800091420DDB056290F84C1021F0010180F8A5
:103A90004C102069002808BF70BDBDE87040004789
:103AA00090F84C00C0F34000FCF7FCFEA06890F8D2
:103AB0004C1021F0020180F84C100560826A816888
:103AC00011448160C3681A44C260026B521C0263D5
:103AD000426C91420ADB891A036C826B406BBDE831
:103AE000704001FB13214900FDF75CBA816B406B0C
:103AF000BDE870404900FDF755BA00000000002005
:103B000010B4019CC0E910124A43826490F84C2022
:103B1000C46322F0040C620892FBF1F243638262F8
:103B200002FB01F383630023C0E90031C0E90232E4
:103B300003632CF0010380F84C305143C162024909
:103B4000886010BC70470000000000202DE9FF4F86
:103B50009B464FF478424FF4FC6302EA112203EAD9
:103B600051131A43C1F3C401114391B0A04A0D91FE
:103B7000A0F12003118B5E2B89B20E9111680A917E
:103B800011460968D1F8C4109DBF0A9B03EB4000A1
:103B900030F83C0C0A9888BF008C0E18002430784E
:103BA0000225A146A246022840F31E8190480BEB55
:103BB0000A018068406C814200F316810A980078FF
:103BC00010B1012832D047E031780027A94213DD37
:103BD000705D09F118029040B0FA80F00828C8BF63
:103BE000C9F1080007448144B9F1080F04D16D1CE4
:103BF0004FF00009A942EBDC4FF00008A9422BDD91
:103C0000705D09F118029040C043B0FA80F00828B6
:103C1000C8BFC9F1080080448144B9F1080F1BD125
:103C20006D1C4FF00009A942EADC15E0705D20B17F
:103C3000070900F00F086D1C0EE07019407810F0B5
:103C4000800F05D0400600274FEA9058AD1C5CE07D
:103C5000C7004FF00008AD1C002F56D0644B0BEB93
:103C60000A0099684A6C82424FDB012F26DD727888
:103C700004F1010C624521DD04EB070C9445D4BF2F
:103C80003A46121B0292002814DB91F84C1011F0F6
:103C9000040F0FD056490E9A49680B9154494A6057
:103CA0001399029A21440A44521EFFF74FFE5048CE
:103CB0000B99416002983F1A04441EE0139A1219AE
:103CC00019D4D1F840C09445A8BF002813DB91F85F
:103CD0004CC01CF0040F0ED04A620A61C1E90520F5
:103CE000C861D868002803BF0E9840BA0F900F989B
:103CF00000F0ECF8C8B3641C7F1E7078A04204BFCB
:103D000000240AF1010A002FA8D1B8F1000F67D0F2
:103D1000374A0BEB0A0091684B6C834260DBB8F1C9
:103D2000010F27DD737804F1010C634522DD04EBFC
:103D300008019942D4BF4146191B029100280FDBAC
:103D40002B492B4A49680B910D9951601399029A9E
:103D500021440A44521EFFF7F9FD25480B994160A2
:103D60000298A8EB0008044431E0FFE715B00120F9
:103D7000BDE8F08F139B1B1926D4D1F840C09C4599
:103D8000A8BF002820DB0B9396F801C0139B0AF113
:103D9000010E634404F1010C9C4433785B449E445F
:103DA0000B9B4B620B9BC1F81CE00B61C1E905C08A
:103DB0000D980F90D068002803BF0D9840BA0F905F
:103DC0000F9800F083F878B1641CA8F101087078AE
:103DD000A04204BF00240AF1010AB8F1000F97D1F4
:103DE0003078A8423FF7E2AE707815B0BDE8F08FAA
:103DF000000000202DE9F05F1C4617468B46064662
:103E0000FCF7F4FBDFF86CA0C1B23D46DAF80080A5
:103E1000B1F1010938BFBDE8F09F00BF16F8010BF2
:103E20000D2808BF3D4620D00A2804BF98F802009C
:103E300004441AD0DAF8081098F801300A6CD21A43
:103E4000AA4203DC98F802203D461444C968A14206
:103E5000B8BFBDE8F09F23462A465946FFF776FED5
:103E6000002814BF0544BDE8F09FB9F10109D5D27F
:103E7000BDE8F09F000000204FF478414FF4FC6251
:103E800001EA102102EA50121143C0F3C4000843B2
:103E900001494860704700000000002001490860A7
:103EA00070470000000000204FF478414FF4FC629E
:103EB00001EA102102EA50121143C0F3C400084382
:103EC0000149886170470000000000201C49896892
:103ED0008B68CA69934204DCD1F80CC08A696245D8
:103EE00001DD0020704710B4D1F800C04C69A44532
:103EF00012DCD1F810C04C68A4450DDC93420EDCF6
:103F0000D21A0B6C02FB03C20A628B6B9342C4BFD2
:103F10004B6B23F8120002DC10BC00207047D1E983
:103F20000402904205DB486A401E08618869401C13
:103F300088610869401C086110BC012070470000BE
:103F400000000020F1EE100A4FF6FF71C0F2C03100
:103F500020EA010040F04070E1EE100A70470505CC
:103F600000062009022111111111315007033212EC
:103F700012F0400D06D1112521112521113111E03A
:103F80000B06814331526161144190150883212150
:103F90001111311111364111113111112122F0305D
:103FA0001106723121211132211111111121231118
:103FB000D00602211111D00B034111212121212111
:103FC00021310C033131212121212121112008042B
:103FD00051231321F0700906F05151353151F0078A
:103FE00003F0712111200403F2D00402E1500B050B
:103FF0008131414131413141900D06D3213111319F
:104000001131113123E00A05B2211141414124B09F
:104010000905A44141313134B00905A4412251417F
:1040200013C00B06E242311121212541E00905A40C
:104030001143514113C00B05B31144112111212229
:10404000C00905A44131413141D00C05A411212200
:104050002112112114B00B05B22121112114411399
:10406000C005026171500703D1812111200905D1DA
:1040700022215251F0100705F05464F0100A06F0A6
:104080003262613222F0100904433131222171A0E1
:104090001208F034314111131111111111111421B1
:1040A00084B00C06E24231113121241131D00C05CB
:1040B000A41121132121112113C00B06D322211198
:1040C00051522123E00D06C4212211311131112258
:1040D00014E009048311331131339009048311333F
:1040E000113131B00C06D41221115122122124D0E9
:1040F0000E06C131113115113111311131D00902C2
:10410000411111111111500904A1313131311390B4
:104110000D05A1211111223231112121B009048193
:104120003131313133901808F0123212321111113D
:10413000111111111111111111112121F02011066C
:10414000C221122111111111111111221122D00EAF
:1041500007F4223111411141113224F0100B05A353
:1041600021211121132141E00F08F0243231214196
:10417000214121323581900D05A3212111211321E7
:10418000211121B00905B31142524113C00906C5DE
:104190003151515151F00E06C131113111311131EE
:1041A000113123E00E07E141212131213111525219
:1041B000F020170AF0513131212121311111113133
:1041C00011111142125131F0800D06D121211141FE
:1041D0005231112131D00C06C1312111311141511F
:1041E00051F00905A44131314134B00B03321121A2
:1041F0002121212121220B055141514151414151A0
:10420000600B033221212121212121120B04912154
:104210001111111111F02005060006650603013188
:10422000F0A00905F44114112114B00D05514143CA
:1042300021211121112113C00804D21131314290E2
:104240000D0581412311211121112123B00A05F00F
:10425000122121141153B00A04522123213131318A
:10426000A00B05F411211411531121140E05514115
:10427000441121112111211121B009022131111103
:104280001111500A0341512121212121120E055102
:1042900041412111112231112121B00A02211111B4
:1042A00011111111501208F0971121211121211122
:1042B0002121112121F0200C05F4112111211121BE
:1042C0001121B00C06F04321311131113123E00DE1
:1042D00005F3212111211121132141400D05F01376
:1042E0001121112111212341410804C31131313120
:1042F000B00804C3114231139009049123213131D4
:1043000032900C05F12111211121112114B00A055F
:10431000F1211121223232C01307F0612111111253
:10432000111112112111112121F0100A05F1212280
:1043300032322121B00D05F12121112111224141FB
:1043400031300804C331212133900B045221313123
:1043500021413131320B02211111111111111111B1
:104360000C03312121213111212121200905A21124
:104370001112F0F01000000001080A08000005000A
:104380000E00150022002D00420053005900640069
:1043900070007800810088008C0090009B00A800CD
:1043A000B200BB00C400CF00D800E300EC00F8006E
:1043B000030108010F0118011F0129013201440105
:1043C00050015C01670174017D0186019201A00129
:1043D000A901B201BF01C801E001F101FF010A0218
:1043E000190226022F023802460254026B0278029A
:1043F00084028D029802A302AE02B902BE02C40278
:10440000CD02DA02E202EF02F90203030E031C03FB
:1044100025032F033D0347035903650371037E03FF
:104420008B0393039B03A403B003BA03CD03D70309
:10443000E403EC03F70302040E0400005E3F0000F7
:10444000B8000020C4000020AC000020A000002024
:10445000D0000020E8000020DC0000200C0100203B
:104460001801002000010020F40000202401002099
:104470003C01002030010020600100206C01002080
:104480005401002048010020780100209001002004
:1044900084010020B4010020C0010020A8010020F8
:1044A0009C010020CC010020E4010020D801002064
:1044B0000802002014020020FC010020F00100206E
:1044C00020020020380200202C0200205C02002084
:1044D00068020020500200204402002074020020E4
:1044E0008C02002080020020BC020020D4020020A8
:1044F000C8020020E0020020A4020020B002002038
:104500009802002010030020280300201C03002034
:1045100034030020F802002004030020EC020020F5
:10452000640300207C030020700300208803002027
:104530004C0300205803002040030020B803002053
:10454000D0030020C4030020DC030020A0030020CF
:10455000AC030020940300200C040020240400205D
:104560001804002030040020F40300200004002080
:10457000E803002060040020780400206C04002080
:104580008404002048040020540400203C0400203F
:10459000011618120000040019002A004C007100D6
:1045A000A600C700D200EB0004011501270133016A
:1045B0003D0147015D017F019601AF01CB01E6019D
:1045C00000021F0235025402730281029102A50209
:1045D000B302C702E0021E0340035F037A039C0399
:1045E000B203C803E7030B0421043B04610477040E
:1045F000B404E00402051D05430565058105970522
:10460000BB05DF051B063C065A0671068A069F0697
:10461000B806CC06D506DE06F9061807300750079F
:1046200067077D079F07BF07D407EC070C08220820
:104630004E086C088608A708C808DD08F5080A09AE
:104640002809450971098C09AD09C109DA09F4097C
:104650000D0A0000DC37010000000000000000002F
:10466000000000000000000000000000000000004A
:1046700000093D0000803E0000004B00404B4C0014
:1046800000204E00808D5B0000C05D000080700047
:1046900000127A0000007D0080969800001BB70091
:1046A0000080BB00C0E8CE00647ADA000024F40089
:1046B0000000FA0080A81201002D310100366E01C1
:1046C00040787D010D000D00000031F731F731F722
:1046D00031F731F731F71F0031F731F731F731F7A3
:1046E00031F731F731F731F731F731F731F731F78A
:1046F0001F0031F731F731F731F731F731F731F783
:1047000031F731F731F731F731F71F0031F731F772
:1047100031F731F731F731F731F731F71F001F006B
:1047200031F731F71F0031F731F71F001F0031F764
:1047300031F731F731F71F001F0031F731F71F0054
:1047400031F731F71F001F0031F731F731F731F73B
:104750001F001F001F001F001F001F001F001F0061
:104760001F0031F731F731F731F71F001F001F002D
:104770001F001F001F001F001F001F0031F731F72F
:1047800031F731F71F001F001F001F001F001F001F
:104790001F001F001F0031F731F731F731F71F00FD
:1047A0001F001F001F001F001F001F001F001F0011
:1047B00031F731F731F731F71F001F001F001F00DD
:1047C0001F001F001F001F001F0031F731F731F7D6
:1047D00031F71F001F001F001F001F001F001F00D8
:1047E0001F001F0031F731F731F731F71F001F00AD
:1047F00031F731F731F731F731F71F001F0031F78B
:1048000031F731F731F71F001F0031F731F731F77A
:1048100031F731F71F001F0031F731F70D000D00A0
:1048200000001F00100031F731F731F709001300C5
:1048300031F731F731F731F731F731F710001F0059
:10484000120031F731F70F001F00140031F731F774
:1048500031F731F731F731F712001F00130031F74C
:1048600031F710001F00160031F731F731F731F73B
:1048700031F731F713001F0010000D001F001F005B
:104880001F00120031F731F731F731F731F731F707
:1048900010001F001F001F001F001F001F00160038
:1048A00031F731F709000F0031F70D001F001F002D
:1048B0001F001F001F001F001F00140031F713000E
:1048C0001F0010001F001F001F001F001F001F00FF
:1048D0001F0010001F00130031F714001F001F00FD
:1048E0001F001F001F001F001F000D0031F70F00E9
:1048F000090031F731F716001F001F001F001F00CD
:104900001F00110031F731F731F731F731F731F787
:1049100031F712001F001F001F000D0031F731F7A3
:1049200031F731F731F731F731F731F731F7160059
:104930001F00100031F731F731F731F731F731F758
:1049400031F731F731F731F731F714001F000F005D
:1049500031F731F731F731F731F731F731F731F717
:1049600031F731F731F71300090031F731F731F73B
:1049700031F731F70D000D00000031F731F731F755
:1049800031F731F731F731F731F731F731F731F7E7
:1049900031F731F731F731F731F731F731F731F7D7
:1049A00031F731F731F731F731F731F731F731F7C7
:1049B00031F731F71F001F001F001F001F001F00ED
:1049C0001F001F001F001F0031F731F731F71F00D4
:1049D0001F001F001F001F001F001F001F001F00DF
:1049E0001F0031F731F731F731F731F71F001F00A2
:1049F0001F001F001F001F0031F731F731F731F79B
:104A000031F731F731F71F001F001F001F001F0093
:104A10001F0031F731F71F001F001F001F001F008C
:104A20001F001F001F001F001F001F0031F731F77C
:104A300031F731F731F731F731F71F001F001F0051
:104A40001F001F001F0031F731F731F731F731F741
:104A500031F731F71F001F001F001F001F001F004C
:104A600031F731F731F731F731F71F001F001F0021
:104A70001F001F001F001F001F001F001F0031F735
:104A800031F731F71F001F001F001F001F001F001C
:104A90001F001F001F001F0031F731F731F731F7FA
:104AA00031F731F731F731F731F731F731F731F7C6
:104AB00031F731F731F731F731F731F731F731F7B6
:104AC00031F731F731F731F731F731F70D000D00DC
:104AD000000031F731F731F731F731F731F71200D4
:104AE000090031F731F731F731F731F731F731F7A5
:104AF00031F731F731F714001F000F0031F731F7AC
:104B000031F731F731F731F731F731F731F7160077
:104B10001F00100031F731F731F731F731F731F776
:104B200031F731F731F712001F001F001F000D0091
:104B300031F731F731F731F731F731F731F7160047
:104B40001F001F001F001F001F00110031F731F769
:104B500031F731F731F714001F001F001F001F004D
:104B60001F001F001F000D0031F70F000900120089
:104B70001F0010001F001F001F001F001F001F004C
:104B80001F0010001F00120009000F0031F70D0078
:104B90001F001F001F001F001F001F001F00140028
:104BA00031F731F731F731F710001F001F001F00F8
:104BB0001F001F001F00160031F731F731F731F7E2
:104BC00013001F0010000D001F001F001F00120027
:104BD00031F731F731F731F712001F00130031F7C9
:104BE00031F710001F00160031F731F731F731F7B8
:104BF00010001F00120031F731F70F001F001400E2
:104C000031F731F731F731F731F71F00100031F785
:104C100031F731F70900120031F731F731F731F789
:104C200031F731F70D000D00000031F731F71F00AB
:104C30001F0031F731F731F731F731F71F001F004F
:104C400031F731F731F731F71F001F0031F731F736
:104C500031F731F731F71F001F0031F731F731F726
:104C600031F71F001F001F001F001F001F001F0043
:104C70001F001F0031F731F731F731F71F001F0018
:104C80001F001F001F001F001F001F001F0031F723
:104C900031F731F731F71F001F001F001F001F0001
:104CA0001F001F001F001F0031F731F731F731F7E8
:104CB0001F001F001F001F001F001F001F001F00FC
:104CC0001F0031F731F731F731F71F001F001F00C8
:104CD0001F001F001F001F001F001F0031F731F7CA
:104CE00031F731F71F001F001F001F001F001F00BA
:104CF0001F001F001F0031F731F731F731F71F0098
:104D00001F0031F731F71F0031F731F71F001F0087
:104D100031F731F731F731F71F001F0031F731F765
:104D20001F0031F731F71F001F0031F731F731F75E
:104D300031F731F731F731F731F71F0031F731F73C
:104D400031F731F731F731F731F731F731F731F723
:104D500031F731F71F0031F731F731F731F731F71C
:104D600031F731F731F731F731F731F731F71F000C
:104D700031F731F731F731F731F731F70D000D0029
:104D8000000031F731F731F731F731F7090013003F
:104D900031F731F731F731F731F731F731F731F7D3
:104DA00031F731F731F70F001F00140031F731F7F9
:104DB00031F731F731F731F731F731F731F731F7B3
:104DC00031F710001F00160031F731F731F731F7D6
:104DD00031F731F731F731F731F70D001F001F00C0
:104DE0001F00120031F731F731F731F731F731F7A2
:104DF00031F711001F001F001F001F001F001600C9
:104E000031F731F709000F0031F70D001F001F00C7
:104E10001F001F001F001F001F00140031F71300A8
:104E20001F0010001F001F001F001F001F001F0099
:104E30001F0010001F00130031F714001F001F0097
:104E40001F001F001F001F001F000D0031F70F0083
:104E5000090031F731F716001F001F001F001F0067
:104E60001F001F00100031F731F731F731F731F72C
:104E700031F712001F001F001F000D0010001F005F
:104E8000130031F731F731F731F731F731F7160009
:104E90001F00100031F731F713001F00120031F727
:104EA00031F731F731F731F731F714001F000F00F8
:104EB00031F731F712001F00100031F731F731F7E9
:104EC00031F731F731F71300090031F731F731F7D6
:104ED00010001F000D000D00000031F731F731F711
:104EE00031F731F731F731F731F731F731F731F782
:104EF00031F731F731F731F731F731F731F731F772
:104F000031F731F731F731F731F731F731F71F006A
:104F10001F001F001F001F001F001F001F001F0099
:104F20001F0031F731F731F71F001F001F001F006E
:104F30001F001F001F001F001F001F0031F731F767
:104F400031F731F731F71F001F001F001F001F004E
:104F50001F0031F731F731F731F731F731F731F71A
:104F60001F001F001F001F001F001F0031F731F737
:104F700031F731F731F731F731F71F001F001F000C
:104F80001F001F001F001F001F001F001F001F0029
:104F900031F731F71F001F001F001F001F001F0007
:104FA00031F731F731F731F731F731F731F71F00CA
:104FB0001F001F001F001F001F0031F731F731F7DE
:104FC00031F731F71F001F001F001F001F001F00D7
:104FD0001F001F001F001F0031F731F731F71F00BE
:104FE0001F001F001F001F001F001F001F001F00C9
:104FF0001F0031F731F731F731F731F731F731F77A
:1050000031F731F731F731F731F731F731F731F760
:1050100031F731F731F731F731F731F731F731F750
:1050200031F731F731F731F731F731F70D000D0076
:10503000000031F731F731F731F731F731F712006E
:10504000090031F731F731F710001F0031F731F760
:1050500031F731F731F714001F000F0031F731F746
:1050600012001F00100031F731F731F731F7160049
:105070001F00100031F731F713001F00120031F745
:1050800031F731F731F712001F001F001F000D002C
:1050900010001F00130031F731F731F731F7160018
:1050A0001F001F001F001F001F001F00100031F70E
:1050B00031F731F731F714001F001F001F001F00E8
:1050C0001F001F001F000D0031F70F000900120024
:1050D0001F0010001F001F001F001F001F001F00E7
:1050E0001F0010001F00120009000F0031F70D0013
:1050F0001F001F001F001F001F001F001F001400C3
:1051000031F731F731F731F731F711001F001F0088
:105110001F001F001F00160031F731F731F731F77C
:1051200031F731F731F70D001F001F001F0012008B
:1051300031F731F731F731F731F731F731F731F72F
:1051400031F710001F00160031F731F731F731F752
:1051500031F731F731F731F731F70F001F00140045
:1051600031F731F731F731F731F731F731F731F7FF
:1051700031F731F70900120031F731F731F731F724
:1051800031F731F70D000D00000031F731F731F73D
:1051900031F731F731F731F731F731F731F731F7CF
:1051A00031F731F731F731F731F731F731F731F7BF
:1051B00031F731F731F731F731F731F731F731F7AF
:1051C00031F731F731F731F731F731F731F731F79F
:1051D00031F731F731F731F731F731F731F731F78F
:1051E00031F731F731F731F731F731F731F731F77F
:1051F00031F731F731F731F731F731F731F731F76F
:1052000031F731F731F731F731F731F731F731F75E
:1052100031F731F731F731F731F731F731F731F74E
:1052200031F731F731F731F731F731F731F731F73E
:1052300031F731F731F731F731F731F731F731F72E
:1052400031F731F731F731F731F731F731F731F71E
:1052500031F731F731F731F731F731F731F731F70E
:1052600031F731F731F731F731F731F731F731F7FE
:1052700031F731F731F731F731F731F731F731F7EE
:1052800031F731F731F731F731F731F731F731F7DE
:1052900031F731F731F731F731F731F731F731F7CE
:1052A00031F731F731F731F731F731F731F731F7BE
:1052B00031F731F731F731F731F731F731F731F7AE
:1052C00031F731F731F731F731F731F731F731F79E
:1052D00031F731F731F731F731F731F704000400D6
:1052E000000031F7F00FF00F31F7F00FF00FF00F73
:1052F000F00FF00FF00FF00FF00F31F7F00FF00F8D
:1053000031F70D000D00000031F731F731F731F7BB
:1053100031F731F7FF0731F731F731F731F731F76F
:1053200031F731F731F731F731F731F731F7FF075F
:1053300031F731F731F731F731F731F731F731F72D
:1053400031F731F731F731F7FF0731F731F731F73F
:1053500031F731F731F731F731F7FF07FF0731F751
:1053600031F7FF0731F731F7FF07FF0731F731F763
:1053700031F731F7FF07FF0731F731F7FF0731F753
:1053800031F7FF07FF0731F731F731F731F7FF0743
:10539000FF07FF07FF07FF07FF07FF07FF07FF07DD
:1053A00031F731F731F731F7FF07FF07FF07FF0745
:1053B000FF07FF07FF07FF07FF0731F731F731F757
:1053C00031F7FF07FF07FF07FF07FF07FF07FF078B
:1053D000FF07FF0731F731F731F731F7FF07FF0715
:1053E000FF07FF07FF07FF07FF07FF07FF0731F76B
:1053F00031F731F731F7FF07FF07FF07FF07FF0717
:10540000FF07FF07FF07FF0731F731F731F731F7E4
:10541000FF07FF07FF07FF07FF07FF07FF07FF075C
:10542000FF0731F731F731F731F7FF07FF0731F7A2
:1054300031F731F731F731F7FF07FF0731F731F770
:1054400031F731F7FF07FF0731F731F731F731F760
:1054500031F7FF07FF0731F731F70D000D000000AE
:10546000FF07300431F731F731F74902D304200048
:1054700031F731F731F731F731F73004FF07B20474
:1054800031F731F7EF03FF07140531F731F731F743
:1054900031F731F731F7B204FF07F30431F731F791
:1054A0003004FF07960531F731F731F731F731F75F
:1054B00031F7F304FF0730046D03FF07FF07FF0711
:1054C000920431F731F731F731F731F731F7300422
:1054D000FF07FF07FF07FF07FF07FF07960531F7E5
:1054E00031F74902EF0331F76D03FF07FF07FF07AD
:1054F000FF07FF07FF07FF0714052000D304FF077E
:105500003004FF07FF07FF07FF07FF07FF07FF073D
:105510003004FF07D30420001405FF07FF07FF072F
:10552000FF07FF07FF07FF076D0331F7EF0349028E
:1055300031F731F79605FF07FF07FF07FF07FF0762
:10554000510431F731F731F731F731F731F731F7EE
:105550009204FF07FF07FF076D0331F731F731F7BB
:1055600031F731F731F731F731F731F79605FF07AA
:10557000300431F731F731F731F731F731F731F7DF
:1055800031F731F731F731F71405FF07EF0331F742
:1055900031F731F731F731F731F731F731F731F7CB
:1055A00031F72000D304490231F731F731F731F7F1
:1055B00031F70D000D00000031F731F731F731F709
:1055C00031F731F731F731F731F731F731F731F79B
:1055D00031F731F731F731F731F731F731F731F78B
:1055E00031F731F731F731F731F731F731F731F77B
:1055F00031F7FF07FF07FF07FF07FF07FF07FF0759
:10560000FF07FF07FF0731F731F731F7FF07FF0704
:10561000FF07FF07FF07FF07FF07FF07FF07FF075A
:1056200031F731F731F731F731F7FF07FF07FF07A0
:10563000FF07FF07FF0731F731F731F731F731F790
:1056400031F731F7FF07FF07FF07FF07FF07FF07E6
:1056500031F731F7FF07FF07FF07FF07FF07FF07D6
:10566000FF07FF07FF07FF07FF0731F731F731F7A4
:1056700031F731F731F731F7FF07FF07FF07FF0772
:10568000FF07FF0731F731F731F731F731F731F71E
:1056900031F7FF07FF07FF07FF07FF07FF0731F796
:1056A00031F731F731F731F7FF07FF07FF07FF0742
:1056B000FF07FF07FF07FF07FF07FF0731F731F776
:1056C00031F7FF07FF07FF07FF07FF07FF07FF0788
:1056D000FF07FF07FF0731F731F731F731F731F7F0
:1056E00031F731F731F731F731F731F731F731F77A
:1056F00031F731F731F731F731F731F731F731F76A
:1057000031F731F731F731F731F70D000D000000B7
:1057100031F731F731F731F731F72000B2044902A0
:1057200031F731F731F731F731F731F731F731F739
:1057300031F731F71405FF07EF0331F731F731F790
:1057400031F731F731F731F731F731F79605FF07C8
:10575000300431F731F731F731F731F731F731F7FD
:1057600031F731F79204FF07FF07FF076D0331F7A9
:1057700031F731F731F731F731F731F79605FF0798
:10578000FF07FF07FF07FF07510431F731F731F734
:1057900031F720001405FF07FF07FF07FF07FF078A
:1057A000FF07FF076D0331F7EF034902B204FF075C
:1057B0003004FF07FF07FF07FF07FF07FF07FF078B
:1057C0003004FF07B2044902EF0331F76D03FF070E
:1057D000FF07FF07FF07FF07FF07FF07140520006C
:1057E00031F731F731F73004FF07FF07FF07FF07F5
:1057F000FF07FF07960531F731F731F731F7F3046B
:10580000FF0730046D03FF07FF07FF07920431F71E
:1058100031F731F731F7B204FF07F30431F731F70D
:105820003004FF07960531F731F731F731F73004CF
:10583000FF07B20431F731F7EF03FF07140531F723
:1058400031F731F731F731F7FF07300431F731F72E
:1058500031F74902B204200031F731F731F731F75F
:1058600031F70D000D00000031F731F7FF07FF079A
:1058700031F731F731F731F731F7FF07FF0731F72C
:1058800031F731F731F7FF07FF0731F731F731F71C
:1058900031F731F7FF07FF0731F731F731F731F70C
:1058A000FF07FF07FF07FF07FF07FF07FF07FF07C8
:1058B000FF0731F731F731F731F7FF07FF07FF0730
:1058C000FF07FF07FF07FF07FF07FF0731F731F764
:1058D00031F731F7FF07FF07FF07FF07FF07FF0754
:1058E000FF07FF07FF0731F731F731F731F7FF0700
:1058F000FF07FF07FF07FF07FF07FF07FF07FF0778
:1059000031F731F731F731F7FF07FF07FF07FF07DF
:10591000FF07FF07FF07FF07FF0731F731F731F7F1
:1059200031F7FF07FF07FF07FF07FF07FF07FF0725
:10593000FF07FF0731F731F731F731F7FF07FF07AF
:1059400031F731F7FF0731F731F7FF07FF0731F77D
:1059500031F731F731F7FF07FF0731F731F7FF076D
:1059600031F731F7FF07FF0731F731F731F731F73B
:1059700031F731F731F731F7FF0731F731F731F709
:1059800031F731F731F731F731F731F731F731F7D7
:1059900031F7FF0731F731F731F731F731F731F7E9
:1059A00031F731F731F731F731F731F7FF0731F7D9
:1059B00031F731F731F731F731F70D000D00000005
:1059C00031F731F731F731F731F74902D3042000CD
:1059D00031F731F731F731F731F731F731F731F787
:1059E00031F731F7EF03FF07140531F731F731F7DE
:1059F00031F731F731F731F731F731F731F731F767
:105A00003004FF07960531F731F731F731F731F7F9
:105A100031F731F731F731F76D03FF07FF07FF0764
:105A2000920431F731F731F731F731F731F731F7C8
:105A30005104FF07FF07FF07FF07FF07960531F730
:105A400031F74902EF0331F76D03FF07FF07FF0747
:105A5000FF07FF07FF07FF0714052000D304FF0718
:105A60003004FF07FF07FF07FF07FF07FF07FF07D8
:105A70003004FF07D30420001405FF07FF07FF07CA
:105A8000FF07FF07FF07FF076D0331F7EF03490229
:105A900031F731F79605FF07FF07FF07FF07FF07FD
:105AA000FF07300431F731F731F731F731F731F7CC
:105AB0009204FF07FF07FF076D033004FF07F3049D
:105AC00031F731F731F731F731F731F79605FF0745
:105AD000300431F731F7F304FF07B20431F731F73F
