:020000040000FA
:10000000F82C00201D03000025030000E10800007B
:10001000290300002B0300002D0300000000000056
:100020000000000000000000000000002F0300009E
:100030003103000000000000330300009D1D00009C
:1000400037030000390300003B0300003D030000BC
:100050003F03000041030000430300009919000022
:1000600047030000490300004B0300004D0300005C
:100070004F0300005103000053030000550300002C
:1000800057030000590300005B0300005D030000FC
:100090005F030000610300006303000065030000CC
:1000A00067030000690300006B0300006D0300009C
:1000B0006F03000071030000D90700007503000002
:1000C0007703000079030000A91900007D030000F8
:1000D0007F0300008103000083030000850300000C
:1000E0008703000089030000000000008B0300006C
:1000F0008D0300008F0300009103000093030000B4
:100100009503000097030000990300009B03000083
:1001100000000000000000009D0300009F0300009D
:10012000A1030000B9190000C9190000A7030000CD
:10013000A9030000AB030000AD030000AF03000003
:1001400000000000000000000000000000000000AF
:10015000B1030000B3030000B5030000B7030000C3
:10016000000000000000000000000000000000008F
:10017000000000000000000000000000000000007F
:10018000000000000000000000000000000000006F
:10019000000000000000000000000000000000005F
:1001A000000000000000000000000000000000004F
:1001B000B9030000BB030000BD030000BF03000043
:1001C000C1030000C3030000C5030000C703000013
:1001D000C9030000CB030000CD030000CF030000E3
:1001E000D1030000D3030000D5030000000000008D
:1001F00000000000D7030000D9030000DB0300006B
:10020000DD030000DF03000000000000000000002C
:10021000E1030000E3030000E5030000E703000042
:10022000E9030000EB030000ED030000EF03000012
:10023000F1030000F3030000F5030000F7030000E2
:10024000F9030000FB030000FD030000FF030000B2
:10025000010400000304000005040000070400007E
:10026000090400000B0400000D04000000F002F877
:1002700000F044F80AA090E8000C82448344AAF1FC
:100280000107DA4501D100F039F8AFF2090EBAE8FA
:100290000F0013F0010F18BFFB1A43F001031847BA
:1002A0005454000074540000103A24BF78C878C138
:1002B000FAD8520724BF30C830C144BF04680C606C
:1002C000704700000023002400250026103A28BFB4
:1002D00078C1FBD8520728BF30C148BF0B607047B8
:1002E000642900F02381632900F0FF81002070471A
:1002F0001FB502F0E3FD1FBD10B510BD00F018FAE8
:100300001146FFF7F5FF01F019FF00F036FA03B4CC
:10031000FFF7F2FF03BC00F03DFA00003F488047C2
:100320003F480047FEE7FEE7FEE7FEE7FEE7FEE7A1
:10033000FEE7FEE7FEE7FEE7FEE7FEE7FEE7FEE795
:10034000FEE7FEE7FEE7FEE7FEE7FEE7FEE7FEE785
:10035000FEE7FEE7FEE7FEE7FEE7FEE7FEE7FEE775
:10036000FEE7FEE7FEE7FEE7FEE7FEE7FEE7FEE765
:10037000FEE7FEE7FEE7FEE7FEE7FEE7FEE7FEE755
:10038000FEE7FEE7FEE7FEE7FEE7FEE7FEE7FEE745
:10039000FEE7FEE7FEE7FEE7FEE7FEE7FEE7FEE735
:1003A000FEE7FEE7FEE7FEE7FEE7FEE7FEE7FEE725
:1003B000FEE7FEE7FEE7FEE7FEE7FEE7FEE7FEE715
:1003C000FEE7FEE7FEE7FEE7FEE7FEE7FEE7FEE705
:1003D000FEE7FEE7FEE7FEE7FEE7FEE7FEE7FEE7F5
:1003E000FEE7FEE7FEE7FEE7FEE7FEE7FEE7FEE7E5
:1003F000FEE7FEE7FEE7FEE7FEE7FEE7FEE7FEE7D5
:10040000FEE7FEE7FEE7FEE7FEE7FEE7FEE70000A9
:1004100004480549034A054B70470000F51F0000DA
:100420006D020000F8220020F82C0020F8220020A5
:100430000FB4044910B503AA029800F063F910BC88
:100440005DF814FB800100200FB41CB5074B06AA11
:100450007B4469460090059800F025F90020694624
:1004600000F034F91CBC5DF814FB000079020000B8
:100470002DE9F0410E460446002020622046E16846
:10048000884730B3252805D0D4E901219047206A58
:10049000401CF2E7E168204600278847050018D095
:1004A000A5F14100192802D820354FF400673246E3
:1004B000294620462760FFF713FF40B1012804D0EA
:1004C000F61D26F007060836D8E7361DD6E728467B
:1004D000DAE7206ABDE8F08170B50C460546012ACE
:1004E00005D02878800600D5EA69002302E00123C0
:1004F00005E05B1C934202D2E05C0028F9D1A869B8
:10050000E618C01AA861286A184428622846AFF382
:10051000008004E0D5E9012114F8010B9047B442B2
:10052000F8D32846AFF3008070BD00002DE9F041FC
:100530000646002410687529314616A510D0AFF381
:100540000080002802DA404213A507E031688A07DC
:1005500001D512A502E0490704D511A5012401E047
:10056000AFF3008000210A2206F1240709E0B0FB66
:10057000F2FCB0FBF2F302FB1C003030785418465A
:10058000491C0028F3D123462A463046BDE8F041F5
:1005900000F02AB8000000002D0000002B00000031
:1005A0002000000010B5431C02E010F8011B71B1DF
:1005B0008107FAD14FF0013202C88C1A8C4314EA39
:1005C000C211F9D0C01A0A0603D0C01E10BDC01A4D
:1005D00010BD0A0401D0801E10BD0902FCD0401ECF
:1005E00010BD7047704770472DE9F0470D4699469A
:1005F0009246044600F124080168880604D5E069A3
:1006000021F01001216000E00120A84201DD471B1C
:1006100000E00027A1697A1902EB0900081AA0611D
:100620002078C00602D42046AFF30080002608E000
:10063000D4E901211AF806009047206A401C761C74
:1006400020624E45F4DB2078C0060AD52046AFF381
:10065000008006E0D4E9012130209047206A401C48
:100660002062381EA7F10107F4DC07E0D4E901217C
:1006700018F805009047206A401C2062281EA5F14A
:100680000105F3DC2046AFF300802078000602D598
:100690000220BDE8F0870120FBE7000001694A1C49
:1006A00002610878704700B58FB0CDE901310021B3
:1006B000059105497944CDE9031011466846FFF7D5
:1006C000D7FE0FB000BD0000E5FFFFFF0A6802F88B
:1006D000010B0A60704710B5436913B1AFF3008096
:1006E00001E0FFF7F9FE012010BD127800F12401AE
:1006F0000A7000224A700122EDE711684FF0FF32C4
:10070000E9E70000074B70B50D467B44FFF7CBFFD0
:100710000446284600F008F810B14FF0FF3070BDD5
:10072000204670BDEB190000007B00F08000704790
:10073000754600F02BF8AE4605006946534620F09A
:100740000700854618B020B5FFF762FEBDE82040DF
:100750004FF000064FF000074FF000084FF0000B7D
:10076000AC46ACE8C009ACE8C009ACE8C009ACE8EC
:10077000C00921F007018D46704710B50446AFF35C
:1007800000802046BDE81040FFF7C1BD004870471B
:100790001001002001491820ABBEFEE72600020030
:1007A00070470000C10745F21C41C4F2020106D0A7
:1007B00040F27C130122C2F200030A601A60C006F4
:1007C00058BF70471020086040F27810C2F2000055
:1007D000012101607047000045F21440C4F202009C
:1007E0000068FFF7DFBF000010B5A0B0002001F0E7
:1007F00089FE44F69060C0F2000002F0C9F940F2B0
:10080000FC00C2F2000002686C4625A12046FFF7FA
:100810001BFE20466FF07F410A223C2302F064F960
:1008200040F2A000C2F20000002101F029F840F2DD
:100830002420C2F20000016840F27C0040F2700205
:10084000C2F2000000294FF00001C2F2000208BF0E
:10085000104601F015F840F2F800C2F200000068FE
:100860000138042805D811A151F82000002101F019
:1008700007F840F22800C2F20000002101F000F861
:1008800040F22400C2F2000000680138072805D8B1
:100890000BA151F82000002100F0F2FF20B010BDA4
:1008A0004C495645533A202564000000340000208E
:1008B000400000204C000020580000206400002070
:1008C000D000002094000020E8000020B8000020A4
:1008D000DC000020AC000020C400002088000020C4
:1008E00001F0F8FB4EF20010CEF200004FF0804114
:1008F0000160704742F2D021C2F2000108607047E7
:1009000042F2C422C2F2000212788023002A18BFE9
:10091000A023036042F2C820C2F200000078A022A7
:10092000002818BF80220A607047000010B544F20A
:10093000FC34C4F2000422680B4642F040022260FC
:10094000226822F00801216042F2E421C2F2000193
:100950000968024608461146002201F0F7F942F202
:10096000D020C2F200000068002818BF10BD42F27B
:10097000B820C2F2000000BF01680029FCD00021AD
:100980000160206840F00800206010BD2DE9F04FA4
:1009900081B0884642F2E42742F20D1144F2FC365F
:1009A000C2F20007C0F20001C4F20006386001F094
:1009B00013F8306840F21C0540F0080030603068E1
:1009C000C2F2000540F080003060286841F2597B97
:1009D00000EB8000CDF2B71BA0FB0B01480B009091
:1009E0000098411E009108B100BFF9E7306820F07F
:1009F00080003060286800EB8000A0FB0B01480BF2
:100A0000009000BF0098411E009108B100BFF9E7B7
:100A1000306840F080003060286800EB8000A0FB68
:100A20000B01480B009000BF0098411E009108B1D7
:100A300000BFF9E7306840F2212440F00800306040
:100A4000C2F20004012020703068214620F04000EE
:100A500030603068002220F00800306038680123E0
:100A600001F074F942F2B82AC2F2000ADAF8000082
:100A70000028FBD00020CAF80000306840F00800D1
:100A80003060286800EB80004000A0FB0B01480BA1
:100A9000009000BF0098411E009108B100BFF9E727
:100AA000012020703068214620F04000306030681E
:100AB000002220F0080030603868012301F046F978
:100AC000DAF800000028FBD00020CAF800003068E7
:100AD00040F008003060286800EB80004000A0FB78
:100AE0000B01480B009000BF0098411E009108B117
:100AF00000BFF9E7112020703068214620F0400047
:100B000030603068002220F008003060386801232F
:100B100001F01CF9DAF800000028FBD00020CAF828
:100B20000000306840F0080030602868C0EB00101A
:100B3000C000A0FB0B01480B009000BF0098411EB5
:100B4000009108B100BFF9E72920207030682146E4
:100B500020F0400030603068002220F00800306053
:100B60003868012301F0F2F8DAF800000028FBD021
:100B70000020CAF80000306840F0080030602868A3
:100B8000C0EB0010C000A0FB0B01480B009000BFA1
:100B90000098411E009108B100BFF9E73A2020708B
:100BA0003068214620F0400030603068002220F09C
:100BB000080030603868012301F0C8F8DAF8000056
:100BC0000028FBD00020CAF80000306840F222293B
:100BD00040F008003060C2F20009052089F80000EA
:100BE0003068494640F0400030603068002220F014
:100BF000080030603868012301F0A8F8DAF8000036
:100C00000028FBD00020CAF80000306840F008003F
:100C1000306040F21C00C2F20000006800EB80006F
:100C20004000A0FB0B01480B009000BF0098411E44
:100C3000009108B100BFF9E7B1202070306821466B
:100C400020F0400030603068002220F00800306062
:100C50003868012301F07AF8DAF800000028FBD0A8
:100C60000020CAF80000306840F2DC1540F00800AF
:100C70003060C2F200054FF4C06028800320A870E5
:100C80003068294640F0400030603068002220F093
:100C9000080030603868032301F058F8DAF80000E3
:100CA0000028FBD00020CAF80000306840F008009F
:100CB000306040F21C00C2F20000006800EB8000CF
:100CC0004000A0FB0B01480B009000BF0098411EA4
:100CD000009108B100BFF9E7362020703068214646
:100CE00020F0400030603068002220F008003060C2
:100CF0003868012301F02AF8DAF800000028FBD058
:100D00000020CAF80000316842F2C42241F0080114
:100D1000316042F2C821B8F1020FC2F20002C2F201
:100D200000011ED0B8F1010F33D0B8F1000F4AD145
:100D3000002010700870102089F8000030684946C3
:100D400040F0400030603068002220F00800306041
:100D50003868012300F0FAFFDAF800000028FBD021
:100D60004AE010700870C02089F8000030684946D9
:100D700040F0400030603068002220F00800306011
:100D80003868012300F0E2FFDAF800000028FBD009
:100D900032E0012010700870A02089F8000030684F
:100DA000494640F0400030603068002220F00800E2
:100DB00030603868012300F0C9FF00BFDAF8000096
:100DC0000028FBD018E0012010700870602089F81E
:100DD00000003068494640F0400030603068002232
:100DE00020F0080030603868012300F0AFFF00BF3A
:100DF000DAF800000028FBD00020CAF800003068B4
:100E0000214640F008003060B42020703068002295
:100E100020F0400030603068012320F0080030608E
:100E2000386800F093FF00BFDAF800000028FBD01C
:100E30000020CAF800003168002241F0080131604A
:100E400089F800003068494640F040003060306862
:100E5000012320F008003060386800F077FF00BF01
:100E6000DAF800000028FBD00020CAF80000306843
:100E7000214640F008003060C02020703068002219
:100E800020F0400030603068012320F0080030601E
:100E9000386800F05BFF00BFDAF800000028FBD0E4
:100EA0000020CAF800003068294640F00800306091
:100EB00047F2020028803068002240F04000306095
:100EC0003068022320F008003060386800F03EFFF0
:100ED000DAF800000028FBD00020CAF800003068D3
:100EE00040F00800306040F21C00C2F200000068D0
:100EF00000EB80004000A0FB0B01480B009000BFFE
:100F00000098411E009108B100BFF9E7C120207090
:100F10003068214620F0400030603068002220F028
:100F2000080030603868012300F010FFDAF8000094
:100F30000028FBD00020CAF800003068494640F085
:100F400008003060052089F800003068002240F079
:100F5000400030603068012320F0080030603868BD
:100F600000F0F4FEDAF800000028FBD00020CAF8F8
:100F700000003068214640F008003060C220207038
:100F80003068002220F0400030603068012320F0FB
:100F900008003060386800F0D9FE40F21C08C2F248
:100FA000000800BFDAF800000028FBD00020CAF8D3
:100FB00000003068294640F0080030600A20288090
:100FC0003068002240F0400030603068022320F09A
:100FD00008003060386800F0B9FE00BFDAF80000A1
:100FE0000028FBD00020CAF800003068214640F0FD
:100FF00008003060C52020703068002220F04000DA
:1010000030603068012320F008003060386800F05C
:101010009DFE00BFDAF800000028FBD00020CAF8CF
:1010200000003068294640F00800306043F63C007C
:1010300028803068002240F0400030603068022391
:1010400020F008003060386800F080FEDAF8000018
:101050000028FBD00020CAF80000306840F00800EB
:101060003060D8F8000000EB80004000A0FB0B01CE
:10107000480B00900098411E009108B100BFF9E7AD
:10108000E02020703068214620F040003060306859
:10109000002220F0080030603868012300F056FE7E
:1010A000DAF800000028FBD00020CAF80000306801
:1010B000294640F00800306041F20960C2F20900A0
:1010C000286041F62130C1F61310686041F21750D4
:1010D000C2F61E30A86040F20450C0F60260E8601C
:1010E0003068002240F0400030603068102320F06B
:1010F00008003060386800F029FE00BFDAF8000010
:101100000028FBD00020CAF800003068214640F0DB
:1011100008003060E12020703068002220F040009C
:1011200030603068012320F008003060386800F03B
:101130000DFE00BFDAF800000028FBD00020CAF83E
:1011400000003068294640F00800306041F20B4052
:10115000C1F60860286041F62250C1F61860686048
:1011600041F61B20C2F62430A86040F20660C0F6AB
:101170000270E8603068002240F040003060306863
:10118000102320F008003060386800F0DFFD00BF59
:10119000DAF800000028FBD00020CAF80000306810
:1011A00040F008003060D8F8000000EB80004000FC
:1011B000A0FB0B01480B00900098411E009108B164
:1011C00000BFF9E72A2020703068214620F0400057
:1011D00030603068002220F0080030603868012359
:1011E00000F0B4FDDAF800000028FBD00020CAF8B7
:1011F00000003168002241F0080131602880A870A9
:1012000042F2C420C2F2000000787F21002818BFFB
:101210006FF06001E9703068294640F040003060AE
:101220003068042320F008003060386800F08EFD3C
:10123000DAF800000028FBD00020CAF8000030686F
:10124000214640F0080030602B20207030680022DA
:1012500020F0400030603068012320F0080030604A
:10126000386800F073FD00BFDAF800000028FBD0FA
:101270000020CAF800003168002241F00801316006
:101280002880A87042F2C820C2F2000000786FF0F7
:101290006001002818BF7F21E9703068294640F0BE
:1012A000400030603068042320F008003060386867
:1012B00000F04CFDDAF800000028FBD00020CAF84E
:1012C00000003068214640F0080030601320207094
:1012D0003068002220F0400030603068012320F0A8
:1012E00008003060386800F031FD00BFDAF8000017
:1012F0000028FBD00020CAF80000306840F0080049
:101300003060D8F8000000EB80004000A0FB0B012B
:10131000480B00900098411E009108B100BFF9E70A
:101320002C2020703068214620F04000306030686A
:10133000002220F0080030603868012300F006FD2C
:10134000DAF800000028FBD00020CAF8000030685E
:1013500040F008003060D8F8000000EB800080000A
:10136000A0FB0B01480B00900098411E009108B1B2
:1013700000BFF9E7292020703068214620F04000A6
:1013800030603068002220F00800306038680123A7
:1013900000F0DCFCDAF800000028FBD00020CAF8DE
:1013A0000000306840F008003060D8F80000C0EB62
:1013B0000010C000A0FB0B01480B00900098411EDC
:1013C000009108B100BFF9E72C2020703068214659
:1013D00020F0400030603068002220F008003060CB
:1013E0003868012300F0B2FCDAF800000028FBD0D6
:1013F0000020CAF80000306840F00800306001B0FA
:10140000BDE8F08FB0B54EF23861C4F20F0151F86B
:101410001C2C4EF60820C4F20F0042F0010241F8E5
:101420001C2C00BF4269D207FCD051F8342C42F08A
:101430003F0241F8342C51F8202C42F0010241F8CF
:10144000202C00BFD1F8CC23D207FBD0D1F8CC237D
:101450009207FBD5D1F8CC235207FBD5D1F8CC238A
:101460001207FBD551F8302C42F03F0241F8302CE6
:101470000269D207FCD000BF0268D207FCD000BFCF
:1014800002689207FCD500BF02685207FCD500BF76
:1014900002681207FCD500BF0268D206FCD500BF67
:1014A00002689206FCD545F2004EC4F2000EDEF84A
:1014B000002045F2004342F00402CEF80020DEF89E
:1014C0001C21C4F2020342F00402CEF81C21DEF813
:1014D000202044F24B3C22F00402CEF82020D3F826
:1014E0002421C4F64F4C42F00E02C3F824211A689E
:1014F00042F00E021A60D3F81C2142F00E02C3F82B
:101500001C211A6A22F00E021A62C3F820C1D3F815
:10151000242142F01102C3F824211A6822F011029A
:101520001A60D3F81C2142F01102C3F81C211A6A78
:1015300022F011021A62D3F82C2122F01102C3F812
:101540002C21D3F8102142F01102C3F810211A699E
:1015500022F011021A619A6822F011029A605A6808
:1015600022F011025A606FF01102DA601A6942F03B
:1015700011021A614FF6F46244F22C53CFF6FF7257
:10158000C4F200039C5844F003049C5053F8104CE0
:1015900044F0030443F8104C53F8044C24F00304C3
:1015A00043F8044C1C6824F0FF041C601C6844F0E1
:1015B00011041C604FF6D464CFF6FF741D5945F03A
:1015C00010051D5153F8105C45F0100543F8105CF0
:1015D0009D5825F010059D5043F80CCC1D5945F041
:1015E000C8051D5153F8105C40F6FF7445F0C8055E
:1015F00043F8105C9D58C0F2FF0425F0C8059D50CB
:101600001D6825401D6053F8105C4FF6FF7445F0CF
:10161000240543F8105C9D5845F024059D501A6838
:101620004FF2FF05CFF60F752A401A601A6842F490
:10163000001242F400721A60DEF8002042F002024A
:10164000CEF80020DEF81C2142F00202CEF81C2168
:1016500047F20042C4F20002136843F00F03136024
:10166000D2F81C3143F00F03C2F81C31156A44F262
:10167000204325F00F051562D2F82C51C4F2020365
:10168000A543C2F82C5153F8202C22F00E0243F847
:10169000202CD3F8FC2042F00E02C3F8FC201A687C
:1016A00022F00E021A60D3F80C216FF31322C3F854
:1016B0000C21D3F8F02042F00E02C3F8F0200A68A3
:1016C00042F001020A600A6842F002020A6000BFAA
:1016D000026BD207FCD000BF026B9207FCD5D3F897
:1016E000042142F03002C3F804211A6842F03002AB
:1016F0001A60D3F8FC2022F03002C3F8FC20D3F8A3
:10170000082142F03002C3F808211A6842F0200292
:101710001A6053F8202C22F0200243F8202CD3F832
:10172000FC2022F02002C3F8FC20D3F8082142F06C
:101730002002C3F808211A6842F010021A6053F818
:10174000202C22F0100243F8202CD3F8FC2022F0A9
:101750001002C3F8FC20D3F8082142F01002C3F8AD
:1017600008210A6842F001020A6000BF026BD2073A
:10177000FCD00A6842F002020A6000BF016B8907D0
:10178000FCD5DEF8000040F04000CEF80000DEF8A6
:101790001C0140F04000CEF81C01DEF8200040F0B3
:1017A0004000CEF82000DEF82C0120F07060CEF86A
:1017B0002C01DEF82C0140F0E060CEF82C01042072
:1017C000C4F20300816821F00101816050F8041C1B
:1017D00041F0040140F8041C016841F0020101607D
:1017E000016821F0100101604FF6034141623D2183
:1017F0004163416941F001014161016A41F0010128
:101800000162816841F0010181604CF22C00C4F258
:101810000000416821F0010141604CF6C871C4F23A
:1018200000010A6822F00F020A600A680A60416833
:1018300021F020014160052140F8081C1B2140F8DF
:10184000041C016821F060010160016841F042015F
:101850000160016841F004010160016821F00801A4
:101860000160016841F010010160416841F440717C
:101870004160416841F001014160B0BD00000000DD
:10188000B0B52DED028B0446807922790D46A0EB90
:101890005201E27963792068D21A00F065FE5DB3E7
:1018A0006FF07F4001F062F9A17920796579E479E0
:1018B00000EE101AB8EE408A01F0EFF99FED100B20
:1018C00053EC102B01F0FCF901F0B6F900EE100A10
:1018D00038EE401A38EE000ABDEEC11ABDEEC00A5D
:1018E00011EE100A611B10EE102A2346BDEC028B8C
:1018F000BDE8B04000F0D4BEBDEC028BB0BD00BF6F
:10190000000000000000E03F70B505680446EE6886
:10191000A869700722D5A86894F82C10C90704D1CB
:10192000E16941B16269885405E0616A00291CBF20
:10193000626921F812006069A16A01306061606922
:1019400088420BDB686920F004006861686820F059
:1019500002006860206B002818BF8047B00708BFEE
:1019600070BD2069A16A884207DA94F82C00C0078C
:1019700008D12069A169085C08E0686920F00800C6
:10198000686170BD2069216A31F81000A860206983
:101990000130206170BD000042F2D420C2F200008C
:1019A0000068FFF7B1BF000042F2D420C2F200008D
:1019B0004068FFF7A9BF000042F2D420C2F2000045
:1019C0008068FFF7A1BF000042F2D420C2F20000FD
:1019D000C068FFF799BF00000163704710B5032985
:1019E0000FD848F2000CC4F2000C4FF0070EDFE8ED
:1019F00001F00F02050B0CF5805C07E00CF5005CB4
:101A000004E04FF0FF3010BD0CF5405C4FF0220EAB
:101A100042F2D424C2F20004C0E900CE44F821000E
:101A2000DCF8041021F00201CCF80410DCF80410FA
:101A300021F00401CCF8041033B1012B15D1DCF8EE
:101A4000001021F0400103E0DCF8001041F04001FB
:101A5000029BCCF80010032B0AD0022B40F06C80C4
:101A6000DCF8001021F0800106E06FF0010010BDED
:101A7000DCF8001041F08001CCF80010DCF8C81F41
:101A800021F00F01CCF8C81FDCF8C81FCCF8C81F24
:101A900040F21C01C2F20001096891FBF2F1022937
:101AA000BCBF6FF0040010BDFF2901DA002211E075
:101AB0004FF6FB729142C4BF6FF0040010BD40F2BC
:101AC0000942C8F2021252FB0111CA1102EBD17194
:101AD0004A1EFE21DCF8003023F47F43CCF80030AE
:101AE000DCF8003043EA0223CCF80030CCF81010C8
:101AF000DCF8001021F00F01CCF80010CCF8002029
:101B000090F82C10039A01F0FE03111F0C2980F8A5
:101B10002C3014D8DFE801F007161F28313A424A6A
:101B2000525A626A7200DCF8001041F00301CCF8EE
:101B300000100421C1606FE06FF0020010BD6FF073
:101B4000030010BDDCF8001041F00401CCF80010D7
:101B50000521C16060E0DCF8001041F00501CCF81F
:101B600000100621C16057E0DCF8001041F00601CA
:101B7000CCF800100721C1604EE0DCF8001041F005
:101B80000701CCF800100821C16045E0DCF8001026
:101B900041F00801CCF80010092136E0DCF8001013
:101BA00041F00901CCF800100A212EE0DCF8001009
:101BB00041F00A01CCF800100B2126E0DCF80010FF
:101BC00041F00B01CCF800100C211EE0DCF80010F5
:101BD00041F00C01CCF800100D2116E0DCF80010EB
:101BE00041F00D01CCF800100E210EE0DCF80010E1
:101BF00041F00E01CCF800100F2106E0DCF80010D7
:101C000041F00F01CCF80010102190F82C20C16099
:101C100042F0010180F82C10DCF80400012140F0B2
:101C20001000CCF80400DCF8040040F00200CCF80E
:101C300004000EF0070001FA00F04EF20011CEF29F
:101C4000000141EADE0121F003010860002010BD1F
:101C50000268043953680C2923F0020353601368A7
:101C600023F00F03136090F82C3003F0FE0380F88C
:101C70002C3084BF6FF003007047DFE801F0070EDF
:101C8000151C232A30363C42484E5400116841F05E
:101C9000030111600421C16051E0116841F00401A9
:101CA00011600521C1604AE0116841F00501116031
:101CB0000621C16043E0116841F00601116007216F
:101CC000C1603CE0116841F0070111600821C1606A
:101CD00035E0116841F008011160092128E0116820
:101CE00041F0090111600A2122E0116841F00A0166
:101CF00011600B211CE0116841F00B0111600C21F7
:101D000016E0116841F00C0111600D2110E011681E
:101D100041F00D0111600E210AE0116841F00E0141
:101D200011600F2104E0116841F00F0111601021D2
:101D300090F82C30C16043F0010180F82C105068FD
:101D400040F00200506000207047000080B54FF066
:101D5000000ED0F800C0C0F810E0C0F814E090F811
:101D60002CE05FEACE7E04D1C0E9061283620978D6
:101D700005E000F1200E5B108EE80E000988CCF81B
:101D800008100169013101610C20CCF81400DCF865
:101D9000040040F00200CCF8040080BD80B542F29F
:101DA000BC20C2F200000121016042F2C020C2F258
:101DB000000002680132B2F57A7F026014D142F26B
:101DC000B422C2F20002116042F2CC22C2F200023E
:101DD00000211368016045F28011581CC0F2010116
:101DE000884288BF0020106040F20C10C2F2000050
:101DF000016861B1016801390160016839B91E21CA
:101E0000016042F2B020C2F200000121016040F204
:101E10000810C2F20000016861B101680139016077
:101E2000016839B93221016042F2AC20C2F20000EF
:101E30000121016040F2D810C2F20000016889B1AE
:101E400044F2FC316FF06302C4F200010B6801320E
:101E500043F010030B60F9D30A6822F010020A6005
:101E60000021016040F2FC00C2F20000016800297C
:101E700040F27811C2F200012AD00A6840F2202E06
:101E8000012AC2F2000E02D09EF8003003B340F2E5
:101E9000F403C2F200031A68013A1A601A68BAB968
:101EA00040F2F80CC2F2000CDCF800200132CCF851
:101EB0000020C8221A60DCF80030062BA4BF0122E3
:101EC000CCF800200022062BB8BF01228EF800209B
:101ED0000968002942F2F421C2F2000101D0002079
:101EE00013E0006808B100200FE008680A280ADB48
:101EF00040F22420C2F200000268B2FA82F25209D3
:101F000002600020086008680130086040F220008C
:101F1000C2F200000168013901600168002918BFA0
:101F200080BD40F22401C2F200010A6801320A6059
:101F3000C822026008680928A4BF0120086080BD8B
:101F40004EF26000C4F20F0001680269B2F1FF3F77
:101F500006DD08051BD44CF20020C0F6EB301EE075
:101F600010052FD448F2004040F21C0CC1F2D7708B
:101F7000C2F2000C5300CCF8000035D44CF2002023
:101F8000C0F6EB304902CCF800002AD4704743F287
:101F9000C032C1F38410C0F2000252F8200040F2B7
:101FA0001C02C2F200024B02106058BF7047C1F31E
:101FB000C3510131B0FBF1F040F21C01C2F200014B
:101FC0000860704743F2C033C1F38410C0F20003CD
:101FD00053F8200040F21C03C2F2000349021860CB
:101FE000D4D5C2F3C551E4E74902CFD5C2F3865137
:101FF000DFE7000082B04EF68851CEF200010A6899
:102000004EF2700042F47002C4F20F000A6050F801
:10201000101C0191019921F001010191019940F8F1
:10202000101C00BF50F8201CC905FBD54FF480716F
:1020300040F8181C019921F030010191019901919A
:10204000019921F4F8610191019941F4A86101918C
:10205000019921F0F0610191019941F48001019110
:10206000019921F420510191019921F460210191FC
:1020700001990191016841F00041016001680091FE
:10208000009941F080410091009921F48001009174
:10209000009921F0FE510091009921F0700100910A
:1020A00000990091009941F080710091009921F40C
:1020B00000510091019940F8101C0099016000BF87
:1020C000D0F8F810C907FBD0016821F40061016065
:1020D00002B070474EF60C50BFF34F8FCEF20000A7
:1020E0000168042201F4E061C0F2FA521143016078
:1020F000BFF34F8F00BFFDE74CF20001C4F20001B7
:102100008A699206FCD408607047000080B542F2EC
:10211000D020C2F20000006848B1804744F2FC3091
:10212000C4F20000016841F00801016080BD42F284
:10213000B820C2F200000121016080BD84B0FFF729
:1021400061F9FFF7FDFE40F21C00C2F200000068DA
:1021500044F6D351C1F26201A0FB01014FF0FF3000
:1021600000EB91100025B5EB106F0DD14EF2100170
:10217000CEF2000148604EF62350CEF20000E0227D
:10218000027007208D6008604EF20740CEF200001A
:1021900040F27824057008200221C2F2000447F6BC
:1021A000400245F2380647F23C0845F2FC39CDE9D9
:1021B0000010C0F27D12204600210123C4F2020665
:1021C000C4F20008C4F20009FFF708FC204603210E
:1021D000FEF7DCFB03A802A9FEF792FBDDE9022172
:1021E00040F2282040F2AC234FF40057C2F2000026
:1021F000C2F20003009700F0FDFA204610210124EE
:10220000FFF726FD012000F071F9FF2000F07AF9B8
:10221000FF2000F0C3FC43F2F820C0F2000000F001
:10222000B7FC42F2DD40C0F20000FEF763FB42F271
:10223000CD40C0F2000000F05FF9D9F8000040F096
:102240000200C9F80000FEF74DFB42F2B02C40F24C
:10225000781E40F2D41740F20419C2F2000CC2F208
:10226000000EC2F20007C2F200094FF02D0A4FF033
:10227000040B1EE0895C42F2EC23C2F2000389F8F1
:102280000010186042F2E820C2F20000026040F242
:10229000D8100124C2F200003C60046088A0FEF760
:1022A000C7F840F2781E42F2B02CC2F2000EC2F221
:1022B000000C40F27010C2F200000560DCF8000073
:1022C000B0B140F20010C2F20000006880B140F2EC
:1022D0000010C2F20000CCF80050056000F032FAA5
:1022E00040F2781E42F2B02CC2F2000EC2F2000C94
:1022F000DEF8000001282FD140F21C20C2F20000BD
:1023000040F274110560C2F20001086801300860F3
:1023100008684AF22111C0F2070188421CD3DEF896
:102320000000012818D140F2FC01C2F20001086847
:102330000138086040F27410C2F20000CEF800507C
:1023400005600868B0F1FF3F06DC40F2FC010320A5
:10235000C2F20001086000BF42F2AC20C2F20000ED
:1023600000680028A5D042F2AC20C2F2000005604F
:10237000D8F8C00340F00F00C8F8C0033868002840
:102380003ED042F2EC20C2F200000068D8F8001003
:1023900004FA00F021EA0000C8F8000000BF00BF06
:1023A00044F2FC3000BFC4F2020042F2E8210068AF
:1023B000C2F200010968C0F34200C840C0071CBF58
:1023C0003D6089F800A0D8F8C00320F00F00C8F8DD
:1023D000C00342F2F020C2F20000007899F8001029
:1023E00088423FF466AF42F2F0202329C2F2000097
:1023F00001702CD02A292CD030292CD10B2033E08D
:1024000000202CA1D8F8002004FA00F39A43C8F861
:10241000002000BF00BF44F2FC3200BFC4F2020241
:102420001268C2F34203002223FA02F4E4073FF4E5
:1024300021AF0132032A3D6089F800A0F4D10130B8
:10244000042801F103014FF00104DBD1BBE70C20AC
:102450000AE00A2008E0A1F13100C0B209284FF0DB
:10246000000038BFA1F1300045F2FC33C4F2000394
:10247000D6F8C4131A6842F004021A6002223260CD
:102480000206356003D00138C6F800B0F8E7022034
:1024900045F2FC32C6F800B0356030603560C4F2F9
:1024A0000002106801F00E0120F00400106031609D
:1024B000FFE600BF3132333435363738392A30231E
:1024C000494E5055543A20256300000040F2001058
:1024D000C2F20000012101607047000040F20010CC
:1024E000C2F2000001210160704700000149C8608C
:1024F000704700000000002001490861704700009B
:10250000000000204FF478414FF4FC6201EA1021F2
:1025100002EA50121143C0F3C4000143114810B441
:10252000C2682AB94FF47F4202EA012242EA11212D
:102530008268D2E90BC4936C906B04FB1C339C45FE
:10254000C8BF1846401E3CBF10BC7047936B834207
:10255000DCBF10BC7047536B23F81010401EF5D23F
:1025600010BC7047000000202DE9F04730F8025BF6
:10257000324F30F8023B30F802CB044605FB03F63D
:102580004819451ED018431EB868BCF1000F4162BF
:10259000C0E90415C0E9062304D0BCF1010F15D031
:1025A000BDE8F087751E38BFBDE8F0872088F96860
:1025B000002908BF40BA00F003FB002808BFBDE8AF
:1025C000F087A41C6D1EF1D2BDE8F08734F8029BA1
:1025D00034F8028BB9F1000F1CBFA9F1010085B2DC
:1025E00014D0F868002808BF98FA98F8404600F020
:1025F000E7FA002808BFBDE8F087681E85B2F0D270
:10260000A6EB0906002EE1D1BDE8F087B8F1010084
:1026100085B20FD3F9682088002908BF40BA00F0BE
:10262000CFFA002808BFBDE8F087691E8DB204F11B
:102630000204EFD2A6EB0806E4E700000000002049
:1026400070B5034615489142B0F804C01FFA8CF5E6
:10265000C8BF70BDD0F814C0BCF1000F08BF70BD7A
:10266000C468002C08BF6DBA03EB0C048068641EBC
:102670004162103080E81E00501A401C00FB0CF62E
:102680000024002ED8BF70BD284600F099FA00281B
:102690001CBF641CB442F7DB70BD000000000020CA
:1026A0002DE9F0410F46804601461C461546384646
:1026B000FFF7C6FF0A4E414670692844421E204675
:1026C000FFF7BEFF22463946404600F00BF870691E
:1026D00039462044421E2846BDE8F04100F002B8C9
:1026E0000000002070B5164B9142B3F804C01FFAE9
:1026F0008CF5C8BF70BDD3F814C0BCF1000F08BF83
:1027000070BDDC68002C08BF6DBA00EB0C049B6840
:10271000641E5862C3E90404501AC3E90612401C3F
:1027200000FB0CF60024002ED8BF70BD284600F038
:1027300047FA00281CBF641CB442F7DB70BD0000E0
:102740000000002070B52A4C4FF00005A06890F8FA
:102750004C1011F0010F0BD1056205630560026C8E
:10276000C0E90125826A41F00301C26080F84C1083
:10277000426C816891420DDB056290F84C1021F0AB
:10278000010180F84C102069002808BF70BDBDE829
:102790007040004790F84C00C0F34000FEF724F86A
:1027A000A06890F84C1021F0020180F84C100560F0
:1027B000826A816811448160C3681A44C260026BF6
:1027C000521C0263426C91420ADB891A036C826BD1
:1027D000406BBDE8704001FB13214900FEF7A6B82D
:1027E000816B406BBDE870404900FEF79FB8000068
:1027F0000000002010B4019CC0E910124A4382641A
:1028000090F84C20C46322F0040C620892FBF1F2B1
:102810004363826202FB01F383630023C0E900315A
:10282000C0E9023203632CF0010380F84C305143BD
:10283000C1620249886010BC70470000000000209F
:102840002DE9FF4F9B464FF478424FF4FC6302EAB8
:10285000112203EA51131A43C1F3C401114391B089
:10286000A04A0D91A0F12003118B5E2B89B20E912D
:1028700011680A9111460968D1F8C4109DBF0A9BDE
:1028800003EB400030F83C0C0A9888BF008C0E180F
:10289000002430780225A146A246022840F31E817A
:1028A00090480BEB0A018068406C814200F316816E
:1028B0000A98007810B1012832D047E0317800271B
:1028C000A94213DD705D09F118029040B0FA80F062
:1028D0000828C8BFC9F1080007448144B9F1080FAE
:1028E00004D16D1C4FF00009A942EBDC4FF0000849
:1028F000A9422BDD705D09F118029040C043B0FA87
:1029000080F00828C8BFC9F1080080448144B9F1AB
:10291000080F1BD16D1C4FF00009A942EADC15E03D
:10292000705D20B1070900F00F086D1C0EE07019F2
:10293000407810F0800F05D0400600274FEA9058ED
:10294000AD1C5CE0C7004FF00008AD1C002F56D056
:10295000644B0BEB0A0099684A6C82424FDB012FF3
:1029600026DD727804F1010C624521DD04EB070CD1
:102970009445D4BF3A46121B0292002814DB91F80A
:102980004C1011F0040F0FD056490E9A49680B9164
:1029900054494A601399029A21440A44521EFFF78F
:1029A0004FFE50480B99416002983F1A04441EE0C4
:1029B000139A121919D4D1F840C09445A8BF002821
:1029C00013DB91F84CC01CF0040F0ED04A620A6170
:1029D000C1E90520C861D868002803BF0E9840BA35
:1029E0000F900F9800F0ECF8C8B3641C7F1E70784D
:1029F000A04204BF00240AF1010A002FA8D1B8F1B7
:102A0000000F67D0374A0BEB0A0091684B6C83428A
:102A100060DBB8F1010F27DD737804F1010C634529
:102A200022DD04EB08019942D4BF4146191B0291F3
:102A300000280FDB2B492B4A49680B910D995160F7
:102A40001399029A21440A44521EFFF7F9FD2548C2
:102A50000B9941600298A8EB0008044431E0FFE7BD
:102A600015B00120BDE8F08F139B1B1926D4D1F8B7
:102A700040C09C45A8BF002820DB0B9396F801C0FE
:102A8000139B0AF1010E634404F1010C9C4433785A
:102A90005B449E440B9B4B620B9BC1F81CE00B619B
:102AA000C1E905C00D980F90D068002803BF0D98AC
:102AB00040BA0F900F9800F083F878B1641CA8F129
:102AC00001087078A04204BF00240AF1010AB8F19D
:102AD000000F97D13078A8423FF7E2AE707815B07A
:102AE000BDE8F08F000000202DE9F05F1C4617467E
:102AF0008B460646FDF756FDDFF86CA0C1B23D4699
:102B0000DAF80080B1F1010938BFBDE8F09F00BFDD
:102B100016F8010B0D2808BF3D4620D00A2804BF37
:102B200098F8020004441AD0DAF8081098F8013036
:102B30000A6CD21AAA4203DC98F802203D461444DB
:102B4000C968A142B8BFBDE8F09F23462A4659464E
:102B5000FFF776FE002814BF0544BDE8F09FB9F1E9
:102B60000109D5D2BDE8F09F000000204FF4784164
:102B70004FF4FC6201EA102102EA50121143C0F343
:102B8000C40008430149486070470000000000206D
:102B90000149086070470000000000204FF47841B0
:102BA0004FF4FC6201EA102102EA50121143C0F313
:102BB000C4000843014988617047000000000020FC
:102BC0001C4989688B68CA69934204DCD1F80CC03F
:102BD0008A69624501DD0020704710B4D1F800C059
:102BE0004C69A44512DCD1F810C04C68A4450DDC3A
:102BF00093420EDCD21A0B6C02FB03C20A628B6B8F
:102C00009342C4BF4B6B23F8120002DC10BC0020BF
:102C10007047D1E90402904205DB486A401E086112
:102C20008869401C88610869401C086110BC01204B
:102C3000704700000000002021F0004201F0004336
:102C4000A2F16052B2F5801F28BFD2F17F6C0BD980
:102C50005FEA001C43EAC20242EB507018BF7047A3
:102C600028BF20F001007047B2F5801FBCBF184696
:102C700070474FEA410C1CF5001F02D2084600F0D5
:102C80002AB970B500F0C6F800000089FFF7F6BF5A
:102C90004FF00040A0F580007047B0FA80F310FAC2
:102CA00003F10AD0C3F11D0303F580634FEA035219
:102CB0004FEA415002EBD12170474FF000007047BE
:102CC00070B5DFF848C11CEA111E1EBF1CEA1315BF
:102CD0009EEA0C0F95EA0C0F00F06F8081EA030466
:102CE0004EEAD47EAE4421EA4C1123EA4C1341F45F
:102CF000801143F48013AEF17F7EA1FB024CA0FB58
:102D00000365361955EB0C05A1FB034C4CF1000390
:102D1000A0FB021C16EB0C06654153F100030942AF
:102D200018BF46F0010613F4007F0BD14FEA0331C0
:102D30004FEA053041EA155140EA165034036FF06E
:102D400003020AE04FEAC3214FEAC52041EA555188
:102D500040EA5650F4026FF0020202EB2E4201EB01
:102D6000025585EACE710AD05FEA440C18BF24F000
:102D7000004450F1000041F1000120EAD47040F21B
:102D8000FE7C624500D270BDA84214BF4FF0804463
:102D90004FF04044002E08BF0024BEF1806FA8BF52
:102DA000A1F1C041BDE8704080F2828001F1C041D4
:102DB00001F000414FF0000070470CEA13159EEA45
:102DC0000C0F18BF95EA0C0F06D081EA030E4FF0E6
:102DD00000000EF0004170BD00F01CF88900013EBB
:102DE00000F007B800F009B84FEA430C5FEA5C5CFA
:102DF00008D081EA030100F05BB84FEA410C5FEABA
:102E00005C5CF6D102494FF0000070470000FF07FC
:102E10000000F87F0EF1020E2EF0030E5EF8046B38
:102E2000364205D4012A43EB030515F5001F12D8DD
:102E3000012841EB010C1CF5001F0CD80ED14FEA04
:102E4000D17C0CEB4C0C0CF1020C15F5001F08BFEB
:102E50004CEBD37C04E04FF0080C01E04FEAD37C4C
:102E60000CEB4C0526FA05F606F00706B6F1040C45
:102E700006D20EEB860CBDE870404CF0010C6047AA
:102E8000DFE80CF0090B02024FF00041A1F5002130
:102E90004FF0000070BD19461046012851EB0104A7
:102EA00018BFD4F5001484BF002001F0004170BDAC
:102EB0000808A0F500114FEA31017047F1EE100A41
:102EC0004FF6FF71C0F2C03120EA010040F04070BF
:102ED000E1EE100A7047FF2141EAD050C00570476B
:102EE00005050006200902211111111131500703B7
:102EF000321212F0400D06D1112521112521113178
:102F000011E00B0681433152616114419015088331
:102F100021211111311111364111113111112122CB
:102F2000F0301106723121211132211111111121BC
:102F30002311D00602211111D00B034111212121AF
:102F4000212121310C033131212121212121112085
:102F5000080451231321F0700906F0515135315105
:102F6000F00703F0712111200403F2D00402E150B4
:102F70000B058131414131413141900D06D3213161
:102F800011311131113123E00A05B22111414141C2
:102F900024B00905A44141313134B00905A44122CE
:102FA000514113C00B06E242311121212541E009B4
:102FB00005A41143514113C00B05B3114411211154
:102FC0002122C00905A44131413141D00C05A41191
:102FD00021222112112114B00B05B221211121143B
:102FE0004113C005026171500703D18121112009ED
:102FF00005D122215251F0100705F05464F0100A57
:1030000006F03262613222F010090443313122218C
:1030100071A01208F0343141111311111111111165
:10302000142184B00C06E24231113121241131D037
:103030000C05A41121132121112113C00B06D32249
:10304000211151522123E00D06C4212211311131E9
:10305000112214E0090483113311313390090483E0
:103060001133113131B00C06D41221115122122129
:1030700024D00E06C131113115113111311131D069
:103080000902411111111111500904A131313131DD
:1030900013900D05A1211111223231112121B00906
:1030A00004813131313133901808F012321232116B
:1030B0001111111111111111111111112121F020F2
:1030C0001106C22112211111111111111122112207
:1030D000D00E07F4223111411141113224F0100BAE
:1030E00005A321211121132141E00F08F0243231E1
:1030F0002141214121323581900D05A3212111214A
:103100001321211121B00905B31142524113C00905
:1031100006C53151515151F00E06C13111311131F5
:103120001131113123E00E07E1412121312131110B
:103130005252F020170AF051313121212131111161
:10314000113111111142125131F0800D06D121219E
:1031500011415231112131D00C06C13121113111EF
:10316000415151F00905A44131314134B00B0332D2
:1031700011212121212121220B0551415141514190
:103180004151600B033221212121212121120B0405
:1031900091211111111111F0200506000665060399
:1031A0000131F0A00905F44114112114B00D0551AD
:1031B000414321211121112113C00804D2113131C1
:1031C00042900D0581412311211121112123B00AC3
:1031D00005F0122121141153B00A04522123213188
:1031E0003131A00B05F411211411531121140E05D6
:1031F0005141441121112111211121B00902213124
:1032000011111111500A0341512121212121120EC6
:10321000055141412111112231112121B00A022110
:10322000111111111111501208F0971121211121C2
:1032300021112121112121F0200C05F4112111214E
:1032400011211121B00C06F043213111311131232C
:10325000E00D05F3212111211121132141400D051C
:10326000F0131121112111212341410804C311310F
:103270003131B00804C31142311390090491232164
:10328000313132900C05F12111211121112114B09D
:103290000A05F1211121223232C01307F0612111F8
:1032A0001112111112112111112121F0100A05F131
:1032B000212232322121B00D05F1212111211122CB
:1032C000414131300804C331212133900B04522194
:1032D000313121413131320B022111111111111102
:1032E00011110C0331212121311121212120090546
:1032F000A2111112F0F0100001080A0800000500E8
:103300000E00150022002D004200530059006400F9
:1033100070007800810088008C0090009B00A8005D
:10332000B200BB00C400CF00D800E300EC00F800FE
:10333000030108010F0118011F0129013201440195
:1033400050015C01670174017D0186019201A001B9
:10335000A901B201BF01C801E001F101FF010A02A8
:10336000190226022F023802460254026B0278022A
:1033700084028D029802A302AE02B902BE02C40208
:10338000CD02DA02E202EF02F90203030E031C038C
:1033900025032F033D0347035903650371037E0390
:1033A0008B0393039B03A403B003BA03CD03D7039A
:1033B000E403EC03F70302040E040000E02E000017
:1033C00000000000000000000000000000000000FD
:1033D000000000000000000000093D0000803E00E9
:1033E00000004B00404B4C0000204E00808D5B00E5
:1033F00000C05D000080700000127A0000007D00B7
:1034000080969800001BB7000080BB00C0E8CE008B
:10341000647ADA000024F4000000FA0080A81201A7
:10342000002D310100366E0140787D010D000D0048
:10343000000000000000000000000000000000008C
:10344000000000000000000000000000000000007C
:103450000000000000004000E3326008000020008F
:10346000400000000000000000000000000000001C
:10347000A1334255A13B00004133C24C0000000083
:1034800000000000E12AE01900000244A66DE13BC3
:103490000000E55302550000000000000000035545
:1034A00047640000E13BA56D02440000823BC87DFB
:1034B0000000000000000000656561330000024468
:1034C000C66DC24CC55C445D497D00000000000033
:1034D0000000856D61330000E13B2986635D813327
:1034E000E23200000000000000000000C24C435D1A
:1034F000676DA7754355E13B000000000000000028
:1035000000000000000000008119C0198244087EFC
:103510000244000000000000000000000000000065
:10352000000000000000E13B8465E13B000000007A
:10353000000000000000000000000000000000008B
:1035400002444255E13B0000000000000000000082
:1035500000000000000000000000E2430355E243C9
:10356000000000000000000000000000000000005B
:10357000000000000000C008000000000000000083
:10358000000000000F000F000000FFFFFFFFFFFF23
:10359000FFFFFFFFFFFFFFFFFFFFFFFFFFFFFFFF3B
:1035A000FFFFFFFFFFFFFFFFFFFFFFFFFFFFFFFF2B
:1035B000FFFFFFFFFFFFFFFFFFFFFFFFFFFFFFFF1B
:1035C000FFFFFFFFFFFFFFFFFFFFFFFFFFFFFFFF0B
:1035D000FFFFFFFFFFFFFFFFFFFFFFFFFFFFFFFFFB
:1035E000FFFFFFFFFFFFFFFFFFFFFFFFFFFFFFFFEB
:1035F000FFFFFFFFFFFFFFFFFFFFFFFFFFFFFFFFDB
:10360000FFFFFFFFFFFFFFFFFFFFFFFFFFFFFFFFCA
:10361000FFFFFFFFFFFFFFFFFFFFFFFFFFFFFFFFBA
:10362000FFFFFFFFFFFFFFFFFFFFFFFFFFF7FFFFB2
:10363000FFFFFFF7FFFFFFFFFFFFFFFFFFFFFFFFA2
:10364000FFFFFFFFFFFFFFFFFFFF93ED86DAD1DCF7
:10365000DFF7FFFFFFFFFFFFFFFFFFFFFFFFFFFFA2
:10366000FFFFFFFFFFFFDFFFC3C2B4FF6CE3DEFF1E
:10367000FFFFFFFFFFFFFFFFFFFFFFFFFFFFFFFF5A
:10368000FFFFFFFFFFF70ED40BDC2EDCBFFFFFFFB9
:10369000FFFFFFFFFFFFFFFFFFFFFFFFFFFFFFFF3A
:1036A000FFFFFEFFBEFFBDFFDEFFFFF7FFFFFFFFD7
:1036B000FFFFFFFFFFFFFFFFFFFFFFFFFFFFFFFF1A
:1036C000FFFFFFFFFFFFFFFFFFFFFFFFFFFFFFFF0A
:1036D000FFFFFFFFFFFFFFFFFFFFFFFFFFFFFFFFFA
:1036E000FFFFFFFFFFFFFFFFFFFFFFFFFFFFFFFFEA
:1036F000FFFFFFFFFFFFFFFFFFFFFFFFFFFFFFFFDA
:10370000FFFFFFFFFFFFFFFFFFFFFFFFFFFFFFFFC9
:10371000FFFFFFFFFFFFFFFFFFFFFFFFFFFFFFFFB9
:10372000FFFFFFFFFFFFFFFFFFFFFFFFFFFFFFFFA9
:10373000FFFFFFFFFFFFFFFFFFFFFFFFFFFFFFFF99
:10374000FFFFFFFFFFFFFFFFFFFFFFFF0F000F0067
:103750000000FFFFFFFFFFFFFFFFFFFFFFFFFFFF77
:10376000FFFFFFFFFFFFFFFFFFFFFFFFFFFFFFFF69
:10377000FFFFFFFFFFFFFFFFFFFFFFFFFFFFFFFF59
:10378000FFFFFFFFFFFFFFFFFFFFFFFFFFFFFFFF49
:10379000FFFFFFFFFFFFFFFFFFFFFFFFFFFFFFFF39
:1037A000FFFFFFFFFFFFFFFFFFFFFFFFFFFFFFFF29
:1037B000FFFFFFFFFFFF5DF75DF7BEFFFFFFFFFFAE
:1037C000FFFFFFFFFFFFFFFFFFFFFFFFFFFFFFFF09
:1037D000FFFFFFFFFBF6B6ED9AF6DFFF9EF79AEECE
:1037E000D7E5FFFFFFFFFFFFFFFFFFFFFFFFFFFF2B
:1037F000DFFF38EE2CDBEADAEEDBEAD20CCB9AEE16
:10380000FFFFFFFFFFFFFFFFFFFF79EEB2DC4DD3AD
:10381000A7DAC5EB65F4A4F3A4E26EDBDFFFFFFFDC
:10382000FFFFFFFFFFFFFFFFDFFF5CF792DCE6E239
:1038300028F551FF4EF624E3E7D975E53CF7BEFFC6
:10384000FFFFFFFFFFFFFFFFFFFF1CF72BE3A3EAD4
:1038500066F4C6F367E2AEDB75E559EE5DF7FFFF90
:10386000FFFFFFFFFFFF5DF751D46DD3AADA64D9E4
:1038700027DA75E5DFFFFFFFFFFFFFFFFFFFFFFF19
:10388000FFFFFFFF1CF7BAEE7DF79DFF55E5F3DC68
:103890007DF7FFFFFFFFFFFFFFFFFFFFFFFFFFFFC2
:1038A000FFFFFFFFFFFFFFFFFFFF3CF7FBF6BEFF41
:1038B000FFFFFFFFFFFFFFFFFFFFFFFFFFFFFFFF18
:1038C000FFFFFFFFFFFFFFFFFFFFFFFFFFFFFFFF08
:1038D000FFFFFFFFFFFFFFFFFFFFFFFFFFFFFFFFF8
:1038E000FFFFFFFFFFFFFFFFFFFFFFFFFFFFFFFFE8
:1038F000FFFFFFFFFFFFFFFFFFFFFFFFFFFFFFFFD8
:10390000FFFFFFFFFFFFFFFFFFFFFFFFFFFFFFFFC7
:10391000FFFFFFFF0F000F000000DFFF5DF75CF708
:10392000FFFF5DF713DDFBF624B97DF712E54BCB06
:10393000DFF772DCDFFFFFFF9EF72BDBB6E5FFFF53
:103940007DF7D7E54DD3C2D951DC3CF7BAEEBAEEDC
:103950001CF7FFFFFFFFBFFFB6ED3CF755DDB3DC03
:1039600048CA01C942E122C989D22AE495E5FFFF8C
:10397000FFFFFFFFFFFFFFFFFFFF2BD344E222EB20
:1039800007F6A2F443F501EA81D8DBF6FFFFFFFF5B
:10399000FFFFFFFFDBE6FFFFF3E4A0D049F574FF74
:1039A0000EFF94FFC6F441C0D2E4BAF6DFFF1CF765
:1039B000FFFFFFFFFFFF10D4A2EAAFF6D9FFD9FF48
:1039C000D9FF12FFA0D8E8DA92D4DFF7BAEEFFFFF2
:1039D000FFFF1CF7A7CA42E24BF6B8FFDAFF95FFDC
:1039E00031FF81C879EEDEFFFFFFFFFF1CEFBBEE6A
:1039F00075DDA8D200C0C3F32DFF93FFAAF667FEC2
:103A000086D1FFFF9EF7DFFFFFFFBEFF1CF7DFFF42
:103A10007DF749C221E122EB05F5C2EB21E2C2C0EC
:103A20007DF7FFFFFFFFFFFFFFFFFFFF9AEE17EE9F
:103A3000BAEE83D940C801D1A1C865B904C930D450
:103A4000FFFFFFFFFFFFFFFFFFFF17EECED3FFFFDC
:103A500084C989C2CED307D2BAEE37EEB2DCFFFFFB
:103A6000FFFFFFFFFFFFFFFFDFFFBFFFBEFF92D49F
:103A7000DFFFDFFF92DCFFFF7DFF9EF7DFFFFFFF31
:103A8000FFFFFFFFFFFFF7E5F2DC9AEE7DF7FBF6A5
:103A90003CF7FFFFBEFF7AEEFFFF77EEBEFFFFFFB2
:103AA000FFFFFFFFF7E525CAF3DCFFFFDFFFFFFFA6
:103AB000FFFFFFFFFFFFFFFF7CF7FFFFFFFFFFFFA1
:103AC000FFFFDFFF38EE1CF7FFFFFFFFFFFFFFFFE9
:103AD000FFFFFFFFFFFFFFFFFFFFFFFF0F000F00D4
:103AE0000000FFFFFFFFFFFFFFFFFFFFFFFFFFFFE4
:103AF000DFFFFFFF9EF7DBEEFFFFFFFFFFFFFFFF94
:103B0000FFFFFFFFFFFFFFFFDFFFFFFF9EFF5CF7F1
:103B1000DFFF9EF79EF7DEF7DFFF9EF7FFFFBFFF99
:103B20003DEFFFFFFFFFD4E4BEFFDBF696E59EFF0F
:103B3000FFFFFFFFFFFFFFFFFFFFFFFFFFFFFFFF95
:103B4000FFFFFFFFFFFFFFFF58EE71D47DF7FFFF80
:103B50009EFF79EE7EFFFFFFFFFFFFFFFFFF79E68D
:103B6000B2DC9DF7DFF758F690E454E5FBF671DC24
:103B700099F6FFFFFFFFFFFFFFFFFFFFDFFF7DFF66
:103B8000DFFFEDD3CEDBAED30CCB27C236EE7DF715
:103B9000FFFFFFFFFFFFFFFFFFFFFFFFFFFFBEFF76
:103BA00044D2A8D314DDFBEE29D32DDC59E6BAEEBE
:103BB000DFFFFFFFFFFFFBEE59EEDEFFEBD2AED3E0
:103BC00033E5FFFFDFFFF2E48DE3BEFFFFFFFFFF02
:103BD000FFFFFFFF5DF75CF79EFF8AEBDAF62CDB59
:103BE0005DF7FFFF16EE25DA9EF7FFFFFFFFFFFFF1
:103BF000FFFFFFFFFFFFFFFF3CF751DC06DAB4EDEC
:103C0000DAF647DA10D479E6FFFFFFFFFFFFFFFF88
:103C1000FFFFFFFFFFFFDFFF9DF713E568E2A4D181
:103C200051D45CF7FCEEFFFFFFFFFFFFFFFFFFFF3C
:103C3000BEFF7AE63CF7FFFFFFFFDFFFDFFFFFFF7E
:103C40007AEEBEF7FFFFFFFFFFFFFFFFFFFFDFFF83
:103C5000DFFFDFFFFFFFBEFF9EF7FFFFFFFFFFFF5E
:103C60005DF7DBEEFFFFFFFFFFFFFFFFFFFFFFFF43
:103C7000FFFFFFFF9EF73CF7DFFFFFFFFFFFFFFFA8
:103C8000FFFFFFFFFFFFFFFFFFFFFFFFFFFFFFFF44
:103C9000FFFFFFFFFFFFFFFFFFFFFFFFFFFFFFFF34
:103CA000FFFFFFFF0F000F000000FFFFFFFFFFFF00
:103CB000FFFFFFFFFFFFFFFFFFFFFFFFFFFFFFFF14
:103CC000FFFFFFFFFFFFFFFFFFFFFFFFFFFFFFFF04
:103CD000BFFFDFFFFFFFFFFFDFFF59F61CF7DFFF2E
:103CE000FFFFFFFFFFFFFFFFFFFFFFFF5DF7BAEEE4
:103CF0005DFF9EFFBEFFDFFF9AF6DAF65DF7FFFF7E
:103D0000FFFFFFFFFFFFFFFFFFFFBEFF30EC44D9C7
:103D10000CE354E559F6F4EC31E49EFFFFFFFFFF9E
:103D2000FFFFFFFFBEFFBEFFF7E509C2F0D3D7E5F7
:103D30005CF76ED3F3E4CBCACFD37DF7FFFFFFFF71
:103D4000FFFF3CF77DF7F3DC54E5AECBF0D359E64B
:103D500017DE9EFF9AEE14DDDBF6FFFFFFFFFFFF8D
:103D6000DEF7F8DD99EE79EEF0D39EF7DFF7DFFFAF
:103D7000BFFF13DDF7E5DFF75DF7BEF7DFFF5CFFA1
:103D80006ACA7DF713E55BFFFFFFDFFFFFFFDFFF81
:103D9000FBF60BCB3CF77DFFDEFFFFFF18EE08C202
:103DA0009EF7D3DCDAF6DFFF7DFF5CF7FFFF9EF7BF
:103DB00030DC51E4DFFFFFFFFFFF5DF7EFDB9AF63A
:103DC0001CEFEFD318EEFBF61CF7FFFF79F634E596
:103DD0006EBBBEFFFFFFFFFFFFFF7DF7F4DC58EE79
:103DE00037EE1CEFDFF7DFF73CFFE7C131E41BEFF5
:103DF000BEFFFFFFFFFFFFFF9DFF1BF734DD13E555
:103E00009AEE6EC32BDB87E1A7C1DAEEF5E41CF76F
:103E1000FFFFFFFFFFFF18E61CF79EFFFFFFBEF747
:103E2000F8ED92ECB2DC7DF7DFFFBEFFFFFFFFFF96
:103E3000FFFFFFFFFFFFBFFFDFFFFFFF1CF7DFFFFD
:103E4000FFFFFFFFFFFFFFFFFFFFFFFFFFFFFFFF82
:103E5000FFFFFFFFFFFFFFFFFFFFBFFFFFFFFFFFB2
:103E6000FFFFFFFFFFFFFFFFFFFFFFFF1200130039
:103E70000000C0FFC0FF11F790F6C0FFC0FFC0FFF9
:103E800090F6C0FFC0FFC0FFC0FFC0FFC0FFC0FF73
:103E9000C0FFC0FFC0FFC0FFC0FF4FF643F9D0F620
:103EA000C0FFF0F683F9C0FFC0FFC0FFC0FFC0FF36
:103EB000C0FFC0FFC0FFC0FFC0FFC0FFC0FF4FF684
:103EC00043F9D0F611F78FF6ADF5E4F911F711F7D4
:103ED00090F6C0FF10F7C0FFC0FFC0FFC0FFC0FFDB
:103EE000C0FFC0FFC0FFC0FFEEF540F80EF643F97B
:103EF000F0F62CF540F8ACF623FE10F7C0FFC0FF3B
:103F0000C0FFC0FFC0FF0FF744FECFF6EEF520F86C
:103F1000E2F820F863F990F6EEF5A6FACCF525FA6A
:103F2000C0FFC0FFC0FFC0FFC0FFC0FF6FF622F997
:103F3000EEF500F800F800F800F8E4F990F6E4F97E
:103F4000CEF583F9C0FFC0FFC0FFC0FFC0FFC0FFB8
:103F50006FF622F9EEF520F800F800F800F840F8C6
:103F600002F9C4F9F0F62FF6C0FFC0FFC0FFC0FF92
:103F700011F743F94FF661F842F9D0F600F800F86E
:103F800040F820FC20F8C4F98DF500F945FEC0FF8B
:103F9000C0FFC0FF11F761F861F800F800F9C1FD3A
:103FA00000F800F800F8E0F960FD40F861F800F86A
:103FB00085FAC0FFC0FF4FF602F94CF500F800F893
:103FC00000F880F800F8E0F800FDA0F9C0FD20F846
:103FD00000F800F825FAC0FFC0FF2FF661F88DF554
:103FE00000F800F800F860F8E0FC40F980FDE0F926
:103FF00000FE60FC20F800F845FAF0F6C0FF2FF64E
:1040000040F8E2F800F800F8E0F8C0FC80F920FD84
:10401000E0FD40FD00FEC0FDE0FB02F98BF483F9FA
:10402000F1F64FF6A1F800F800F8C0F8A0FDE0FDA9
:10403000C0FD40FEA0FF00FEE0FD20FAC0FC20F81D
:1040400040F881F8D0F611F70EF640F880F8E0FC61
:1040500000FE00FE60FF40FEC0FF80FEA0FF60FD8E
:10406000C0FC20F800F881F8D0F6C0FF11F781F805
:1040700080F880FD40FEA0FFE0FFC0FFE0FF40FFB2
:1040800040FEA0FC80F800F8E4F96FF6C0FFC0FF26
:10409000C0FF0EF600F8A0F800FE00FEE0FFE0FF13
:1040A000E0FF60FF00FE60FC00F800F825FAC0FFAA
:1040B000C0FFC0FFC0FF11F74CF5E1F800FE00FEA5
:1040C00040FE40FE40FE40FE00FE60FC23F9CEF5BF
:1040D0004FF6C0FFC0FFC0FFC0FFC0FF8FF6E2F881
:1040E000C0F8C0F8C0F8C0F8C0F8C0F8C0F8A0F830
:1040F000C4F911F7C0FFC0FFC0FFC0FFC0FFC0FF81
:1041000011F7EEF5EEF5EEF5EEF5EEF5EEF5EEF572
:10411000EEF5EEF52FF6C0FFC0FFC0FFC0FF1200A6
:104120001300000031F731F731F731F731F731F78C
:1041300031F731F731F731F731F731F731F731F73F
:1041400031F731F731F731F731F731F731F731F72F
:1041500031F731F731F731F731F731F7E2F831F76D
:1041600031F731F7C4F931F731F731F731F731F77A
:1041700031F731F731F731F731F731F731F763F9CB
:1041800031F731F731F731F702F931F731F731F71C
:1041900031F731F731F711F744FE11F761F84AF4BE
:1041A00011F763F911F720F8B0F631F731F731F76D
:1041B00031F731F731F731F731F700F86DF500F8E5
:1041C00011F731F700F800F800F820F8B0F631F7F1
:1041D00022FE31F731F731F731F731F731F700F8D7
:1041E0006DF500F811F707FB00F800F800F820F86B
:1041F000B0F600F82FF631F731F731F731F731F734
:1042000031F76DF5D0F600F8A4F9A1F800F800F840
:1042100000F820F8B0F600F82FF631F731F731F753
:1042200031F731F788FE00F86DF500F800F880FBF3
:1042300000F800F800F811F781F800F82FF600F800
:1042400031F731F731F731F7A8FB00F861F800F8E2
:1042500060FD80FA00F800F800F8E1FD60F800F871
:1042600061F800F831F731F731F731F768FB00F802
:1042700000F800F8C0FD80FA00FE20F900F800F810
:1042800000F800F800F831F781F831F731F7F1F66E
:1042900068FB00F820F800FE00FEA0FA00FE40F9DE
:1042A000C0FD20F800F800F800F8F0F681F831F7CA
:1042B00031F7E4F9A9F300F880FB00FE00FE40FDB1
:1042C00000FE00FD20F9A0FC40F800F800F863F9BA
:1042D00081F831F731F781F800F800F880FC00F838
:1042E000C0FD00FEE0FF60FE00FE00FE00FE00F8E4
:1042F00000F800F881F831F731F781F800F800F89C
:1043000080FCE0FC80FFA0FEE0FF60FE80FF00FE7E
:1043100000FEE0FCA0F800F8EEF531F731F731F7D8
:1043200068FB00F800F800FE00FE20FFE0FFE0FF61
:10433000E0FFE0FF20FE00FEC0F800F831F731F7A3
:1043400031F731F768FB00F800F800FE00FE20FFAF
:10435000E0FFE0FFE0FF00FE00FE20F800F811F7AC
:1043600031F731F731F731F731F731F7C4F900FEA2
:1043700000FE00FE00FE00FE00FE00FE00FE00F853
:104380002FF631F731F731F731F731F731F731F7F0
:10439000C4F900F800F800F800F800F800F800F898
:1043A00000F800F82FF631F731F731F731F731F730
:1043B00031F731F7ADF50CF50CF50CF50CF50CF506
:1043C0000CF50CF50CF50CF5F0F631F731F731F78B
:1043D0000D000D00000000000000000000000000C3
:1043E00000001F00000000000000000000000000AE
:1043F0000000000000000000000000001F0000009E
:1044000000000000000000000000000000000000AC
:104410000000000000001F0000000000000000007D
:1044200000000000000000001F001F00000000004E
:104430001F00000000001F001F000000000000001F
:1044400000001F001F00000000001F00000000000F
:104450001F001F0000000000000000001F001F00E0
:104460001F001F001F001F001F001F001F00000073
:104470000000000000001F001F001F001F001F00A1
:104480001F001F001F001F000000000000000000B0
:104490001F001F001F001F001F001F001F001F0024
:1044A0001F0000000000000000001F001F001F0090
:1044B0001F001F001F001F001F001F000000000042
:1044C000000000001F001F001F001F001F001F0032
:1044D0001F001F001F0000000000000000001F0060
:1044E0001F001F001F001F001F001F001F001F00D4
:1044F00000000000000000001F001F00000000007E
:104500000000000000001F001F000000000000006D
:1045100000001F001F00000000000000000000005D
:104520001F001F00000000000D000D0000001F0014
:10453000100000000000000009001300000000004F
:10454000000000000000000010001F00120000002A
:1045500000000F001F001400000000000000000019
:104560000000000012001F001300000000001000F7
:104570001F00160000000000000000000000000006
:1045800013001F0010000D001F001F001F0012006D
:1045900000000000000000000000000010001F00EC
:1045A0001F001F001F001F001F001600000000005A
:1045B00009000F0000000D001F001F001F001F005A
:1045C0001F001F001F001400000013001F00100038
:1045D0001F001F001F001F001F001F001F001000F2
:1045E0001F001300000014001F001F001F001F0009
:1045F0001F001F001F000D0000000F000900000039
:10460000000016001F001F001F001F001F001100E8
:104610000000000000000000000000000000120088
:104620001F001F001F000D00000000000000000020
:104630000000000000000000000016001F00100035
:10464000000000000000000000000000000000006A
:1046500000000000000014001F000F000000000018
:10466000000000000000000000000000000000004A
:10467000000013000900000000000000000000001E
:104680000D000D0000000000000000000000000010
:10469000000000000000000000000000000000001A
:1046A000000000000000000000000000000000000A
:1046B00000000000000000000000000000000000FA
:1046C0001F001F001F001F001F001F001F001F00F2
:1046D0001F001F000000000000001F001F001F003F
:1046E0001F001F001F001F001F001F001F000000F1
:1046F00000000000000000001F001F001F001F003E
:104700001F001F000000000000000000000000006B
:1047100000001F001F001F001F001F001F000000DF
:1047200000001F001F001F001F001F001F001F00B0
:104730001F001F001F001F000000000000000000FD
:104740000000000000001F001F001F001F001F00CE
:104750001F0000000000000000000000000000003A
:104760001F001F001F001F001F001F00000000008F
:104770000000000000001F001F001F001F001F009E
:104780001F001F001F001F001F000000000000008E
:104790001F001F001F001F001F001F001F001F0021
:1047A0001F001F00000000000000000000000000CB
:1047B00000000000000000000000000000000000F9
:1047C00000000000000000000000000000000000E9
:1047D00000000000000000000D000D0000000000BF
:1047E00000000000000000000000120009000000AE
:1047F00000000000000000000000000000000000B9
:10480000000014001F000F00000000000000000066
:104810000000000000000000000016001F00100053
:104820000000000000000000000000000000000088
:10483000000012001F001F001F000D0000000000FC
:104840000000000000000000000016001F001F0014
:104850001F001F001F0011000000000000000000EA
:10486000000014001F001F001F001F001F001F007A
:104870001F000D0000000F00090012001F001000B3
:104880001F001F001F001F001F001F001F0010003F
:104890001F00120009000F0000000D001F001F0084
:1048A0001F001F001F001F001F0014000000000059
:1048B0000000000010001F001F001F001F001F004D
:1048C0001F001600000000000000000013001F0081
:1048D00010000D001F001F001F001200000000004C
:1048E0000000000012001F00130000000000100074
:1048F0001F001600000000000000000010001F0054
:104900001200000000000F001F0014000000000053
:104910000000000000001F00100000000000000068
:10492000090012000000000000000000000000006C
:104930000D000D000000000000001F001F0000001F
:1049400000000000000000001F001F000000000029
:10495000000000001F001F00000000000000000019
:1049600000001F001F0000000000000000001F00EA
:104970001F001F001F001F001F001F001F001F003F
:1049800000000000000000001F001F001F001F00AB
:104990001F001F001F001F001F000000000000007C
:1049A00000001F001F001F001F001F001F001F002E
:1049B0001F001F0000000000000000001F001F007B
:1049C0001F001F001F001F001F001F001F0000000E
:1049D0000000000000001F001F001F001F001F003C
:1049E0001F001F001F001F0000000000000000004B
:1049F0001F001F001F001F001F001F001F001F00BF
:104A00001F0000000000000000001F001F00000049
:104A100000001F00000000001F001F000000000039
:104A2000000000001F001F00000000001F00000029
:104A300000001F001F000000000000000000000038
:104A40000000000000001F00000000000000000047
:104A50000000000000000000000000000000000056
:104A60001F00000000000000000000000000000027
:104A7000000000000000000000001F000000000017
:104A800000000000000000000D000D00000000000C
:104A900000000000000000000900130000000000FA
:104AA0000000000000000000000000000000000006
:104AB00000000F001F0014000000000000000000B4
:104AC00000000000000000000000000000001000D6
:104AD0001F001600000000000000000000000000A1
:104AE0000000000000000D001F001F001F0012004A
:104AF00000000000000000000000000000001100A5
:104B00001F001F001F001F001F00160000000000F4
:104B100009000F0000000D001F001F001F001F00F4
:104B20001F001F001F001400000013001F001000D2
:104B30001F001F001F001F001F001F001F0010008C
:104B40001F001300000014001F001F001F001F00A3
:104B50001F001F001F000D0000000F0009000000D3
:104B6000000016001F001F001F001F001F001F0075
:104B70001000000000000000000000000000120013
:104B80001F001F001F000D0010001F001300000079
:104B90000000000000000000000016001F001000D0
:104BA0000000000013001F001200000000000000C1
:104BB00000000000000014001F000F0000000000B3
:104BC00012001F00100000000000000000000000A4
:104BD00000001300090000000000000010001F008A
:104BE0000D000D00000000000000000000000000AB
:104BF00000000000000000000000000000000000B5
:104C000000000000000000000000000000000000A4
:104C1000000000000000000000001F001F001F0037
:104C20001F001F001F001F001F001F001F000000AB
:104C3000000000001F001F001F001F001F001F00BA
:104C40001F001F001F001F000000000000000000E8
:104C500000001F001F001F001F001F001F0000009A
:104C60000000000000000000000000001F001F0006
:104C70001F001F001F001F000000000000000000B8
:104C80000000000000001F001F001F001F001F0089
:104C90001F001F001F001F001F001F00000000005A
:104CA0001F001F001F001F001F001F00000000004A
:104CB000000000000000000000001F001F001F0097
:104CC0001F001F001F000000000000000000000087
:104CD0001F001F001F001F001F001F001F001F00DC
:104CE0001F001F000000000000001F001F001F0029
:104CF0001F001F001F001F001F001F001F000000DB
:104D000000000000000000000000000000000000A3
:104D10000000000000000000000000000000000093
:104D20000000000000000000000000000000000083
:104D300000000000000000000D000D000000000059
:104D40000000000000000000000012000900000048
:104D50000000000010001F00000000000000000024
:104D6000000014001F000F000000000012001F00D0
:104D70001000000000000000000016001F001000DE
:104D80000000000013001F001200000000000000DF
:104D9000000012001F001F001F000D0010001F0068
:104DA0001300000000000000000016001F001F009C
:104DB0001F001F001F001F00100000000000000067
:104DC000000014001F001F001F001F001F001F0015
:104DD0001F000D0000000F00090012001F0010004E
:104DE0001F001F001F001F001F001F001F001000DA
:104DF0001F00120009000F0000000D001F001F001F
:104E00001F001F001F001F001F00140000000000F3
:104E100000000000000011001F001F001F001F0005
:104E20001F0016000000000000000000000000004D
:104E300000000D001F001F001F00120000000000F6
:104E40000000000000000000000000000000100052
:104E50001F0016000000000000000000000000001D
:104E60000000000000000F001F0014000000000000
:104E70000000000000000000000000000000000032
:104E80000900120000000000000000000000000007
:104E9000010E130E00000500150024003F005B000A
:104EA0007A0094009E00B100C500D300E200EA0041
:104EB000F300FB000E0128013B014F016301790162
:104EC0008D01A101B301CA01E101EA01F50103026B
:104ED0000F021C022E0253026B0283029802B102DF
:104EE000C302D502ED0209031B0330034B035D032C
:104EF0008903AC03C603DB03FC0316042A043C0449
:104F000058047404A304BC04D304E404F70408059F
:104F10001B0526052E0537054B056105720588051D
:104F20009B05AD05C305DC05EA0500061806290644
:104F300045065B066E0686069B06AD06BC06CD06DC
:104F4000E206F606150728073F074E0761077407B4
:104F500088070000584F00000506000E201003329D
:104F6000121212121212121212124212D00F07E271
:104F7000221222122212221222000A501B0EF0F0DC
:104F8000223272324C2C4232722362325C2C422327
:104F9000623272320009401C0B4292854823125241
:104FA0002252225857621352221222131937729238
:104FB00092F0C01F0DF0615332452152121255116B
:104FC0007312B1B2B133522541321232353153002E
:104FD00008301A0CF0D38572127483843132222186
:104FE0002244225323424945310007500A036212EA
:104FF000121212F0F07013069233323242324242F1
:105000004242424252425252D014066243425242FB
:105010005242424242424232423232F0100E08F0D4
:105020004147263342123122000B200F09000602AD
:10503000727248184272720007200803F0F0A11241
:1050400011B00906000605150006700803F0F062AD
:1050500012F0101308F0626262526252625262529F
:10506000625262F0F0801A0AF08447323222521201
:105070005212521252125212522232374500065028
:105080001307F01243343112525252525252361612
:10509000F0F0601409F05447133212427253534334
:1050A000536278180005601408F025271232625305
:1050B0002455626211421635F0F0C0160BF0D2830F
:1050C0007471126122522242323A1A72929200078D
:1050D000201409F0381812763722331242727212F5
:1050E00033173500061409F07263535362672812B0
:1050F000421242132326440006120AF05919727212
:1051000081828272827282810007101709F05437FF
:1051100022421242173623231242124212421744ED
:1051200000061709F0544623231242124213232784
:10513000366263534452F0F0C00903F03212A212F7
:10514000F0400B04F0A222F0321222F0300E06F0F2
:10515000F032332322525252F0F0D00C07F0F056C6
:1051600016F076160006200D06F0F2525252232356
:10517000310005701208F0A43622236262625243A5
:1051800051E262F0F070250EF035795253327232EE
:1051900022421222521212213212121232121922F9
:1051A000222333C2D2426885000570180BF0D292D8
:1051B0008372126212522247473243225212621203
:1051C0006200071809F0354632232232222326379F
:1051D0002233124212331725000610150AF09546A5
:1051E0003322237273728282521333274400066083
:1051F000190BF072956742333252226212621262C8
:105200001262124328460007301208F01717126284
:105210006267171262626726F0F0B0120AF058292E
:1052200012828288282282828282000720180BF054
:10523000B37643223382821712171262125222432C
:1052400037540007401C0BF0726212621262126245
:10525000126212261A144212621262126212620062
:10526000071209F03818427272727272727248181C
:10527000000560150BF09838629292929242324289
:1052800032432256730007401B09F032511242127A
:1052900032222232124363645212422232331242C9
:1052A0000005601208F0126262626262626262620B
:1052B0006717F0F0B02C0EF0F01241633353335304
:1052C00033511131114212121232121212321212D1
:1052D00012312212122224222233321233320008D7
:1052E00070230CF092712272136214521212421245
:1052F000223212313212322212421212541263122C
:10530000720007501A0CF0D5583343226213621210
:105310007212721263126232433864000810150868
:10532000F01536222312321223162532626262628F
:10533000000560210EF0F026694443327222921279
:10534000921292124142223232233212497412D204
:10535000D2D1F0E01A0AF0546642233233224222BC
:105360004222323646422332431252000630140A99
:10537000F0845633728656838212521243274400B9
:105380000660120BF07A1A52929292929292929234
:10539000920007401C0BF0726212621262126212DB
:1053A00062126212621262134232333764000730B3
:1053B0001C0AF0525212521242323232323232321D
:1053C0002252125212521263730006602F10F0F034
:1053D00022524212434212434212411142222212ED
:1053E000223222122232221222321222125112228E
:1053F0001253321253346343000A40190BF07262A5
:1054000012622242422264829375522242422262F6
:1054100012620007170AF05252125222332232420D
:105420001342126464727372720007110BF07A1ADD
:1054300073737373828282829A1A0007130665154A
:105440001242424242424242424242424515D01139
:1054500007E2526252616252616252526252F0E05D
:105460001306651542424242424242424242424291
:105470001515D00B07924432121231000C30080C73
:1054800000164B1BF0A00904413232310007101402
:105490000900070536232222322232223227341213
:1054A000000560160992727272727213372323120A
:1054B0004212421233172600061108000624362233
:1054C00031126262412634F0F0C01609F272727233
:1054D0007236271332124212421332273600056009
:1054E00013080006243613221222221233311734F5
:1054F000F0F0C01208C34433526246264262626230
:105500006262F0F0E016080006243613221232120E
:1055100032122317231262522625B01908826262C2
:1055200062626213271322123212321232123212C4
:1055300032F0F0B00E036212721212121212121234
:10554000F0101607F03252F042525252525252525A
:10555000521222122225332018088262626262628D
:1055600031222222123535322222321232F0F0B0AC
:10557000110332121212121212121212121212F01D
:10558000101C0B00082213122A13131212222212CB
:1055900022221222221222221222220007160800A0
:1055A0000602132713221232123212321232123230
:1055B000F0F0B013080006234522321232123212E4
:1055C000322543F0F0D01808F0F0A262132712320F
:1055D000123212321232162532626262626015088D
:1055E000000625261322123212321232263562624A
:1055F0006262901207F0F0C213131212221252527A
:105600005252F0F0A00F07F0F0F325134535521673
:1056100024F0F0701107F082525236163252525274
:105620005252F0F080150800060232123212321285
:1056300032123212321726F0F0B01408000602328D
:105640001232221232123212435361F0F0E01F0B79
:1056500000082222221222221222221214121212D4
:105660001112121211122323332300071013090001
:105670000662421323264454462323124200056047
:105680001709000662421332223223124212446387
:10569000627262726272600F0800060717525252FD
:1056A000525717F0F0B0130683242242424242338D
:1056B0003252424242425333D01303321212121278
:1056C00012121212121212121212127014077344D2
:1056D0005252525252535333425252523343F03089
:1056E0001109000572642112122112241133000ADB
:1056F00030000000185700000000002010010000DA
:10570000A80200002858000010010020E82B00002B
:10571000C4020000000000000000000000000000C3
:105720000000000000000000000000000100000078
:10573000000000000024F400C80000000100000088
:105740002C340000150F808000000000843500001C
:10575000150F1414000000004C370000150F14142E
:105760000000000014390000150F141400000000A0
:10577000DC3A0000150F141400000000A43C0000E7
:10578000150F1414000000006C3E0000150F2828AF
:10579000000000001E410000150F28280000000036
:1057A000384D0000150F643200000000284500004D
:1057B000150F64320000000028450000150F6464D6
:1057C00000000000884A0000150F6432000000004D
:1057D000D8470000150F643200000000E04B0000C5
:1057E000150F643200000000D0430000150F643232
:1057F0000000000030490000150F64320000000076
:1058000080460000150F6432000000000500000013
:105810000100000003000000010000002D00000056
:08582000320000001E00000030
:040000050000026D88
:00000001FF
