:020000040000FA
:10000000382C00200D0300001503000049050000F6
:10001000190300001B0300001D0300000000000086
:100020000000000000000000000000001F030000AE
:100030002103000000000000230300006D1A0000EF
:1000400027030000290300002B0300002D030000FC
:100050002F03000031030000330300006916000085
:1000600037030000390300003B0300003D0300009C
:100070003F0300004103000043030000450300006C
:1000800047030000490300004B0300004D0300003C
:100090004F0300005103000053030000550300000C
:1000A00057030000590300005B0300005D030000DC
:1000B0005F03000061030000ED0400006503000021
:1000C0006703000069030000791600006D0300005B
:1000D0006F0300007103000073030000750300004C
:1000E0007703000079030000000000007B0300009C
:1000F0007D0300007F0300008103000083030000F4
:100100008503000087030000890300008B030000C3
:1001100000000000000000008D0300008F030000BD
:100120009103000089160000991600009703000053
:10013000990300009B0300009D0300009F03000043
:1001400000000000000000000000000000000000AF
:10015000A1030000A3030000A5030000A703000003
:10016000000000000000000000000000000000008F
:10017000000000000000000000000000000000007F
:10018000000000000000000000000000000000006F
:10019000000000000000000000000000000000005F
:1001A000000000000000000000000000000000004F
:1001B000A9030000AB030000AD030000AF03000083
:1001C000B1030000B3030000B5030000B703000053
:1001D000B9030000BB030000BD030000BF03000023
:1001E000C1030000C3030000C503000000000000BD
:1001F00000000000C7030000C9030000CB0300009B
:10020000CD030000CF03000000000000000000004C
:10021000D1030000D3030000D5030000D703000082
:10022000D9030000DB030000DD030000DF03000052
:10023000E1030000E3030000E5030000E703000022
:10024000E9030000EB030000ED030000EF030000F2
:10025000F1030000F3030000F5030000F7030000C2
:10026000F9030000FB030000FD03000000F002F8AA
:1002700000F03CF80AA090E8000C82448344AAF104
:100280000107DA4501D100F031F8AFF2090EBAE802
:100290000F0013F0010F18BFFB1A43F001031847BA
:1002A000603E0000803E0000103A24BF78C878C14C
:1002B000FAD8520724BF30C830C144BF04680C606C
:1002C000704700000023002400250026103A28BFB4
:1002D00078C1FBD8520728BF30C148BF0B607047B8
:1002E0001FB502F0B3FA1FBD10B510BD00F09BF8AA
:1002F0001146FFF7F5FF01F0E9FD00F0B9F803B48E
:10030000FFF7F2FF03BC00F0C1F800003F48804750
:100310003F480047FEE7FEE7FEE7FEE7FEE7FEE7B1
:10032000FEE7FEE7FEE7FEE7FEE7FEE7FEE7FEE7A5
:10033000FEE7FEE7FEE7FEE7FEE7FEE7FEE7FEE795
:10034000FEE7FEE7FEE7FEE7FEE7FEE7FEE7FEE785
:10035000FEE7FEE7FEE7FEE7FEE7FEE7FEE7FEE775
:10036000FEE7FEE7FEE7FEE7FEE7FEE7FEE7FEE765
:10037000FEE7FEE7FEE7FEE7FEE7FEE7FEE7FEE755
:10038000FEE7FEE7FEE7FEE7FEE7FEE7FEE7FEE745
:10039000FEE7FEE7FEE7FEE7FEE7FEE7FEE7FEE735
:1003A000FEE7FEE7FEE7FEE7FEE7FEE7FEE7FEE725
:1003B000FEE7FEE7FEE7FEE7FEE7FEE7FEE7FEE715
:1003C000FEE7FEE7FEE7FEE7FEE7FEE7FEE7FEE705
:1003D000FEE7FEE7FEE7FEE7FEE7FEE7FEE7FEE7F5
:1003E000FEE7FEE7FEE7FEE7FEE7FEE7FEE7FEE7E5
:1003F000FEE7FEE7FEE7FEE7FEE7FEE7FEE70000BA
:1004000004480549034A054B70470000B51C00002D
:100410006D02000038220020382C002038220020F5
:10042000704770477047754600F02CF8AE460500DF
:100430006946534620F00700854618B020B5FFF7FF
:10044000DFFFBDE820404FF000064FF000074FF0FF
:1004500000084FF0000BAC46ACE8C009ACE8C0099E
:10046000ACE8C009ACE8C00921F007018D4670472F
:1004700010B50446AFF300802046BDE81040FFF7FA
:100480003EBF000000487047A0000020014918202E
:10049000ABBEFEE72600020070470000C10745F230
:1004A0001C41C4F2020106D040F20C130122C2F238
:1004B00000030A601A60C00606D440F20811C2F2B6
:1004C0000001002008600BE01020086040F20810D6
:1004D000C2F200000168B1FA81F1490901600068C7
:1004E00042F20021C2F200010860704745F2144058
:1004F000C4F202000068FFF7D1BF000080B5002001
:1005000001F05EFE43F69C00C0F2000002F008F825
:1005100040F21810C2F200000068002101F018F843
:1005200040F22000C2F2000000680138072888BFAE
:1005300080BD42F65051C0F2000151F82000002168
:10054000BDE8804001F004B801F096FC4EF20010C6
:10055000CEF200004FF080410160704742F214215A
:10056000C2F200010860704742F20822C2F20002A3
:1005700012788023002A18BFA023036042F20C20C7
:10058000C2F200000078A022002818BF80220A6072
:100590007047000010B544F2FC34C4F20004226835
:1005A0000B4642F040022260226822F008012160DE
:1005B00042F22821C2F200010968024608461146AB
:1005C000002201F02BFA42F21420C2F2000000686F
:1005D000002818BF10BD42F2F810C2F2000000BFA0
:1005E00001680029FCD000210160206840F008006B
:1005F000206010BD2DE9F04F81B0884642F22827D7
:1006000041F69D6144F2FC36C2F20007C0F20001DF
:10061000C4F20006386001F047F8306840F21C056B
:1006200040F0080030603068C2F2000540F0800001
:100630003060286841F2597B00EB8000CDF2B71B97
:10064000A0FB0B01480B00900098411E009108B1DF
:1006500000BFF9E7306820F080003060286800EBC8
:100660008000A0FB0B01480B009000BF0098411ECA
:10067000009108B100BFF9E7306840F080003060B9
:10068000286800EB8000A0FB0B01480B009000BF26
:100690000098411E009108B100BFF9E7306840F2B0
:1006A000611440F008003060C2F2000401202070A4
:1006B0003068214620F0400030603068002220F091
:1006C000080030603868012301F0A8F942F2F81AF6
:1006D000C2F2000ADAF800000028FBD00020CAF8B5
:1006E0000000306840F008003060286800EB8000AF
:1006F0004000A0FB0B01480B009000BF0098411E7A
:10070000009108B100BFF9E7012020703068214650
:1007100020F0400030603068002220F00800306097
:100720003868012301F07AF9DAF800000028FBD0DC
:100730000020CAF80000306840F0080030602868E7
:1007400000EB80004000A0FB0B01480B009000BFB5
:100750000098411E009108B100BFF9E711202070F8
:100760003068214620F0400030603068002220F0E0
:10077000080030603868012301F050F9DAF8000011
:100780000028FBD00020CAF80000306840F00800C4
:1007900030602868C0EB0010C000A0FB0B01480BC4
:1007A000009000BF0098411E009108B100BFF9E71A
:1007B000292020703068214620F0400030603068E9
:1007C000002220F0080030603868012301F026F98B
:1007D000DAF800000028FBD00020CAF800003068DA
:1007E00040F0080030602868C0EB0010C000A0FB9B
:1007F0000B01480B009000BF0098411E009108B10A
:1008000000BFF9E73A2020703068214620F0400010
:1008100030603068002220F0080030603868012322
:1008200001F0FCF8DAF800000028FBD00020CAF83C
:100830000000306840F2621940F008003060C2F2F7
:100840000009052089F800003068494640F0400062
:1008500030603068002220F00800306038680123E2
:1008600001F0DCF8DAF800000028FBD00020CAF81C
:100870000000306840F00800306040F21C00C2F216
:100880000000006800EB80004000A0FB0B01480B5B
:10089000009000BF0098411E009108B100BFF9E729
:1008A000B12020703068214620F040003060306870
:1008B000002220F0080030603868012301F0AEF813
:1008C000DAF800000028FBD00020CAF800003068E9
:1008D00040F21C1540F008003060C2F200054FF4F1
:1008E000C06028800320A8703068294640F040008E
:1008F00030603068002220F0080030603868032340
:1009000001F08CF8DAF800000028FBD00020CAF8CB
:100910000000306840F00800306040F21C00C2F275
:100920000000006800EB80004000A0FB0B01480BBA
:10093000009000BF0098411E009108B100BFF9E788
:10094000362020703068214620F04000306030684A
:10095000002220F0080030603868012301F05EF8C2
:10096000DAF800000028FBD00020CAF80000316847
:1009700042F2082241F00801316042F20C21B8F144
:10098000020FC2F20002C2F200011ED0B8F1010F44
:1009900033D0B8F1000F4AD1002010700870102039
:1009A00089F800003068494640F040003060306807
:1009B000002220F0080030603868012301F02EF892
:1009C000DAF800000028FBD04AE010700870C02060
:1009D00089F800003068494640F0400030603068D7
:1009E000002220F0080030603868012301F016F87A
:1009F000DAF800000028FBD032E001201070087007
:100A0000A02089F800003068494640F0400030607E
:100A10003068002220F0080030603868012300F0C0
:100A2000FDFF00BFDAF800000028FBD018E001202D
:100A300010700870602089F800003068494640F066
:100A4000400030603068002220F0080030603868D4
:100A5000012300F0E3FF00BFDAF800000028FBD01C
:100A60000020CAF800003068214640F008003060DD
:100A7000B42020703068002220F0400030603068E0
:100A8000012320F008003060386800F0C7FF00BF85
:100A9000DAF800000028FBD00020CAF80000316816
:100AA000002241F00801316089F8000030684946B1
:100AB00040F0400030603068012320F008003060D2
:100AC000386800F0ABFF00BFDAF800000028FBD068
:100AD0000020CAF800003068214640F0080030606D
:100AE000C02020703068002220F040003060306864
:100AF000012320F008003060386800F08FFF00BF4D
:100B0000DAF800000028FBD00020CAF800003068A6
:100B1000294640F00800306047F202002880306823
:100B2000002240F0400030603068022320F00800CE
:100B30003060386800F072FFDAF800000028FBD05F
:100B40000020CAF80000306840F00800306040F231
:100B50001C00C2F20000006800EB80004000A0FB17
:100B60000B01480B009000BF0098411E009108B196
:100B700000BFF9E7C12020703068214620F0400016
:100B800030603068002220F00800306038680123AF
:100B900000F044FFDAF800000028FBD00020CAF87B
:100BA00000003068494640F008003060052089F8B0
:100BB00000003068002240F04000306030680123BF
:100BC00020F008003060386800F028FFDAF80000F4
:100BD0000028FBD00020CAF800003068214640F011
:100BE00008003060C22020703068002220F04000F1
:100BF00030603068012320F008003060386800F071
:100C00000DFF40F21C08C2F2000800BFDAF8000035
:100C10000028FBD00020CAF800003068294640F0C8
:100C2000080030600A2028803068002240F0400030
:100C300030603068022320F008003060386800F02F
:100C4000EDFE00BFDAF800000028FBD00020CAF853
:100C500000003068214640F008003060C520207058
:100C60003068002220F0400030603068012320F01E
:100C700008003060386800F0D1FE00BFDAF80000EC
:100C80000028FBD00020CAF800003068294640F058
:100C90000800306043F63C0028803068002240F0B5
:100CA000400030603068022320F00800306038686F
:100CB00000F0B4FEDAF800000028FBD00020CAF8EB
:100CC0000000306840F008003060D8F8000000EB09
:100CD00080004000A0FB0B01480B00900098411ED3
:100CE000009108B100BFF9E7E0202070306821468C
:100CF00020F0400030603068002220F008003060B2
:100D00003868012300F08AFEDAF800000028FBD0E2
:100D10000020CAF800003068294640F00800306022
:100D200041F20960C2F20900286041F62130C1F6A3
:100D30001310686041F21750C2F61E30A86040F2EE
:100D40000450C0F60260E8603068002240F04000C5
:100D500030603068102320F008003060386800F000
:100D60005DFE00BFDAF800000028FBD00020CAF8C2
:100D700000003068214640F008003060E12020701B
:100D80003068002220F0400030603068012320F0FD
:100D900008003060386800F041FE00BFDAF800005B
:100DA0000028FBD00020CAF800003068294640F037
:100DB0000800306041F20B40C1F60860286041F63F
:100DC0002250C1F61860686041F61B20C2F624303C
:100DD000A86040F20660C0F60270E8603068002249
:100DE00040F0400030603068102320F00800306090
:100DF000386800F013FE00BFDAF800000028FBD0CE
:100E00000020CAF80000306840F008003060D8F8D0
:100E1000000000EB80004000A0FB0B01480B00909D
:100E20000098411E009108B100BFF9E72A20207008
:100E30003068214620F0400030603068002220F009
:100E4000080030603868012300F0E8FDDAF800009F
:100E50000028FBD00020CAF800003168002241F0D1
:100E6000080131602880A87042F20820C2F2000018
:100E700000787F21002818BF6FF06001E9703068AA
:100E8000294640F0400030603068042320F008001C
:100E90003060386800F0C2FDDAF800000028FBD0AE
:100EA0000020CAF800003068214640F00800306099
:100EB0002B2020703068002220F040003060306825
:100EC000012320F008003060386800F0A7FD00BF63
:100ED000DAF800000028FBD00020CAF800003168D2
:100EE000002241F0080131602880A87042F20C20F5
:100EF000C2F2000000786FF06001002818BF7F2167
:100F0000E9703068294640F04000306030680423C2
:100F100020F008003060386800F080FDDAF800004A
:100F20000028FBD00020CAF800003068214640F0BD
:100F300008003060132020703068002220F040004C
:100F400030603068012320F008003060386800F01D
:100F500065FD00BFDAF800000028FBD00020CAF8C9
:100F60000000306840F008003060D8F8000000EB66
:100F700080004000A0FB0B01480B00900098411E30
:100F8000009108B100BFF9E72C202070306821469D
:100F900020F0400030603068002220F0080030600F
:100FA0003868012300F03AFDDAF800000028FBD091
:100FB0000020CAF80000306840F008003060D8F81F
:100FC000000000EB80008000A0FB0B01480B0090AC
:100FD0000098411E009108B100BFF9E72920207058
:100FE0003068214620F0400030603068002220F058
:100FF000080030603868012300F010FDDAF80000C6
:101000000028FBD00020CAF80000306840F008003B
:101010003060D8F80000C0EB0010C000A0FB0B014E
:10102000480B00900098411E009108B100BFF9E7FD
:101030002C2020703068214620F04000306030685D
:10104000002220F0080030603868012300F0E6FC40
:10105000DAF800000028FBD00020CAF80000306851
:1010600040F00800306001B0BDE8F08FB0B54EF23E
:101070003861C4F20F0151F81C2C4EF60820C4F25E
:101080000F0042F0010241F81C2C00BF4269D20758
:10109000FCD051F8342C42F03F0241F8342C51F886
:1010A000202C42F0010241F8202C00BFD1F8CC23C3
:1010B000D207FBD0D1F8CC239207FBD5D1F8CC23B3
:1010C0005207FBD5D1F8CC231207FBD551F8302CB1
:1010D00042F03F0241F8302C0269D207FCD000BF39
:1010E0000268D207FCD000BF02689207FCD500BF9F
:1010F00002685207FCD500BF02681207FCD500BF8A
:101100000268D206FCD500BF02689206FCD545F203
:10111000004EC4F2000EDEF8002045F2004342F01B
:101120000402CEF80020DEF81C21C4F2020342F0D3
:101130000402CEF81C21DEF8202044F24B3C22F0C1
:101140000402CEF82020D3F82421C4F64F4C42F0FC
:101150000E02C3F824211A6842F00E021A60D3F876
:101160001C2142F00E02C3F81C211A6A22F00E0262
:101170001A62C3F820C1D3F8242142F01102C3F847
:1011800024211A6822F011021A60D3F81C2142F0BF
:101190001102C3F81C211A6A22F011021A62D3F854
:1011A0002C2122F01102C3F82C21D3F8102142F097
:1011B0001102C3F810211A6922F011021A619A680B
:1011C00022F011029A605A6822F011025A606FF000
:1011D0001102DA601A6942F011021A61C3F820C1E3
:1011E000D3F8242142F00102C3F824211A6822F026
:1011F00011021A60D3F8102142F01102C3F8102135
:10120000D3F81C2142F01102C3F81C21CEF820C1F2
:10121000DEF8242144F22C5342F04002CEF824217F
:10122000DEF80020C4F2000342F04002CEF80020B5
:10123000DEF8102142F04002CEF81021DEF81C2129
:1012400042F04002CEF81C214FF6F462CFF6FF7256
:101250009C5844F003049C5053F8104C44F0030491
:1012600043F8104C53F8044C24F0030443F8044CA6
:101270001C6824F0FF041C601C6844F011041C600E
:101280004FF6D464CFF6FF741D5945F010051D517B
:1012900053F8105C45F0100543F8105C9D5825F09C
:1012A00010059D5043F80CCC1D5945F0C8051D5143
:1012B00053F8105C40F6FF7445F0C80543F8105C25
:1012C0009D58C0F2FF0425F0C8059D501D682540BB
:1012D0001D6053F8105C4FF6FF7445F0240543F889
:1012E000105C9D5845F024059D501A684FF2FF058B
:1012F000CFF60F752A401A601A6842F4001242F4C1
:1013000000721A60DEF8002042F00202CEF80020DF
:10131000DEF81C2142F00202CEF81C2147F2004206
:10132000C4F20002136843F00F031360D2F81C31BB
:1013300043F00F03C2F81C31156A44F2204325F034
:101340000F051562D2F82C51C4F20203A543C2F86E
:101350002C5153F8202C22F00E0243F8202CD3F805
:10136000FC2042F00E02C3F8FC201A6822F00E02A4
:101370001A60D3F80C216FF31322C3F80C21D3F8B1
:10138000F02042F00E02C3F8F0200A6842F0010299
:101390000A600A6842F002020A6000BF026BD207CC
:1013A000FCD000BF026B9207FCD5D3F8042142F0B9
:1013B0003002C3F804211A6842F030021A60D3F8F0
:1013C000FC2022F03002C3F8FC20D3F8082142F0C0
:1013D0003002C3F808211A6842F020021A6053F85C
:1013E000202C22F0200243F8202CD3F8FC2022F0FD
:1013F0002002C3F8FC20D3F8082142F02002C3F8F1
:1014000008211A6842F010021A6053F8202C22F0CA
:10141000100243F8202CD3F8FC2022F01002C3F86D
:10142000FC20D3F8082142F01002C3F808210A6812
:1014300042F001020A6000BF026BD207FCD00A68CA
:1014400042F002020A6000BF016B8907FCD5DEF89A
:10145000000040F04000CEF80000DEF81C0140F033
:101460004000CEF81C01DEF8200040F04000CEF82D
:101470002000DEF82C0120F07060CEF82C01DEF8A0
:101480002C0140F0E060CEF82C010420C4F20300EF
:10149000816821F00101816050F8041C41F00401D1
:1014A00040F8041C016841F002010160016821F06C
:1014B000100101604FF6034141623D2141634169E2
:1014C00041F001014161016A41F00101016281685D
:1014D00041F0010181604CF22C00C4F2000041682F
:1014E00021F0010141604CF6C871C4F200010A68A4
:1014F00022F00F020A600A680A60416821F02001A8
:101500004160052140F8081C1B2140F8041C0168BB
:1015100021F060010160016841F042010160016851
:1015200041F004010160016821F0080101600168D7
:1015300041F010010160416841F4807141604168EF
:1015400041F440714160416841F001014160B0BD2A
:10155000B0B52DED028B0446807922790D46A0EBC3
:101560005201E27963792068D21A00F05BFE5DB324
:101570006FF07F4000F0C2FFA17920796579E479AE
:1015800000EE101AB8EE408A01F04FF89FED100BF4
:1015900053EC102B01F05CF801F016F800EE100A85
:1015A00038EE401A38EE000ABDEEC11ABDEEC00A90
:1015B00011EE100A611B10EE102A2346BDEC028BBF
:1015C000BDE8B04000F0CABEBDEC028BB0BD00BFAC
:1015D000000000000000E03F70B505680446EE68BA
:1015E000A869700722D5A86894F82C10C90704D1FF
:1015F000E16941B16269885405E0616A00291CBF54
:10160000626921F812006069A16A01306061606955
:1016100088420BDB686920F004006861686820F08C
:1016200002006860206B002818BF8047B00708BF21
:1016300070BD2069A16A884207DA94F82C00C007BF
:1016400008D12069A169085C08E0686920F00800F9
:10165000686170BD2069216A31F81000A8602069B6
:101660000130206170BD000042F21820C2F200007B
:101670000068FFF7B1BF000042F21820C2F200007C
:101680004068FFF7A9BF000042F21820C2F2000034
:101690008068FFF7A1BF000042F21820C2F20000EC
:1016A000C068FFF799BF00000163704710B50329B8
:1016B0000FD848F2000CC4F2000C4FF0070EDFE820
:1016C00001F00F02050B0CF5805C07E00CF5005CE7
:1016D00004E04FF0FF3010BD0CF5405C4FF0220EDF
:1016E00042F21824C2F20004C0E900CE44F82100FE
:1016F000DCF8041021F00201CCF80410DCF804102E
:1017000021F00401CCF8041033B1012B15D1DCF821
:10171000001021F0400103E0DCF8001041F040012E
:10172000029BCCF80010032B0AD0022B40F06C80F7
:10173000DCF8001021F0800106E06FF0010010BD20
:10174000DCF8001041F08001CCF80010DCF8C81F74
:1017500021F00F01CCF8C81FDCF8C81FCCF8C81F57
:1017600040F21C01C2F20001096891FBF2F102296A
:10177000BCBF6FF0040010BDFF2901DA002211E0A8
:101780004FF6FB729142C4BF6FF0040010BD40F2EF
:101790000942C8F2021252FB0111CA1102EBD171C7
:1017A0004A1EFE21DCF8003023F47F43CCF80030E1
:1017B000DCF8003043EA0223CCF80030CCF81010FB
:1017C000DCF8001021F00F01CCF80010CCF800205C
:1017D00090F82C10039A01F0FE03111F0C2980F8D9
:1017E0002C3014D8DFE801F007161F28313A424A9E
:1017F000525A626A7200DCF8001041F00301CCF822
:1018000000100421C1606FE06FF0020010BD6FF0A6
:10181000030010BDDCF8001041F00401CCF800100A
:101820000521C16060E0DCF8001041F00501CCF852
:1018300000100621C16057E0DCF8001041F00601FD
:10184000CCF800100721C1604EE0DCF8001041F038
:101850000701CCF800100821C16045E0DCF8001059
:1018600041F00801CCF80010092136E0DCF8001046
:1018700041F00901CCF800100A212EE0DCF800103C
:1018800041F00A01CCF800100B2126E0DCF8001032
:1018900041F00B01CCF800100C211EE0DCF8001028
:1018A00041F00C01CCF800100D2116E0DCF800101E
:1018B00041F00D01CCF800100E210EE0DCF8001014
:1018C00041F00E01CCF800100F2106E0DCF800100A
:1018D00041F00F01CCF80010102190F82C20C160CD
:1018E00042F0010180F82C10DCF80400012140F0E6
:1018F0001000CCF80400DCF8040040F00200CCF842
:1019000004000EF0070001FA00F04EF20011CEF2D2
:10191000000141EADE0121F003010860002010BD52
:101920000268043953680C2923F0020353601368DA
:1019300023F00F03136090F82C3003F0FE0380F8BF
:101940002C3084BF6FF003007047DFE801F0070E12
:10195000151C232A30363C42484E5400116841F091
:10196000030111600421C16051E0116841F00401DC
:1019700011600521C1604AE0116841F00501116064
:101980000621C16043E0116841F0060111600721A2
:10199000C1603CE0116841F0070111600821C1609D
:1019A00035E0116841F008011160092128E0116853
:1019B00041F0090111600A2122E0116841F00A0199
:1019C00011600B211CE0116841F00B0111600C212A
:1019D00016E0116841F00C0111600D2110E0116852
:1019E00041F00D0111600E210AE0116841F00E0175
:1019F00011600F2104E0116841F00F011160102106
:101A000090F82C30C16043F0010180F82C10506830
:101A100040F00200506000207047000080B54FF099
:101A2000000ED0F800C0C0F810E0C0F814E090F844
:101A30002CE05FEACE7E04D1C0E906128362097809
:101A400005E000F1200E5B108EE80E000988CCF84E
:101A500008100169013101610C20CCF81400DCF898
:101A6000040040F00200CCF8040080BD80B542F2D2
:101A7000FC10C2F200000121016042F20420C2F217
:101A8000000002680132B2F57A7F026014D142F29E
:101A9000F412C2F20002116042F21022C2F20002FD
:101AA00000211368016045F28011581CC0F2010149
:101AB000884288BF0020106040F29800C2F2000007
:101AC000016861B1016801390160016839B91E21FD
:101AD000016042F2F010C2F200000121016040F208
:101AE0009400C2F20000016861B10168013901602F
:101AF000016839B93221016042F2EC10C2F20000F3
:101B00000121016040F21410C2F20000016889B1A5
:101B100044F2FC316FF06302C4F200010B68013241
:101B200043F010030B60F9D30A6822F010020A6038
:101B30000021016040F28C01C2F200010868002817
:101B400040F20810C2F200002AD0026840F2601E83
:101B5000012AC2F2000E02D09EF8003003B340F218
:101B60008403C2F200031A68013A1A601A68BAB90B
:101B700040F2880CC2F2000CDCF800200132CCF8F4
:101B80000020C8221A60DCF80030062BA4BF012216
:101B9000CCF800200022062BB8BF01228EF80020CE
:101BA0000268002A42F23022C2F2000201D1096822
:101BB000A1B100211160006848B142F20020C2F2D8
:101BC000000001210160BDE8804000F0E3B842F26E
:101BD0000020C2F200000021016080BD11680A29C6
:101BE0000ADB40F26411C2F200010B68B3FA83F31E
:101BF0005B090B600021116011680131DAE7000018
:101C00004EF26000C4F20F0001680269B2F1FF3FBA
:101C100006DD08051BD44CF20020C0F6EB301EE0B8
:101C200010052FD448F2004040F21C0CC1F2D770CE
:101C3000C2F2000C5300CCF8000035D44CF2002066
:101C4000C0F6EB304902CCF800002AD4704742F6C7
:101C50007052C1F38410C0F2000252F8200040F22A
:101C60001C02C2F200024B02106058BF7047C1F361
:101C7000C3510131B0FBF1F040F21C01C2F200018E
:101C80000860704742F67053C1F38410C0F200033D
:101C900053F8200040F21C03C2F20003490218600E
:101CA000D4D5C2F3C551E4E74902CFD5C2F386517A
:101CB000DFE7000082B04EF68851CEF200010A68DC
:101CC0004EF2700042F47002C4F20F000A6050F845
:101CD000101C0191019921F001010191019940F835
:101CE000101C00BF50F8201CC905FBD54FF48071B3
:101CF00040F8181C019921F03001019101990191DE
:101D0000019921F4F8610191019941F4A8610191CF
:101D1000019921F0F0610191019941F48001019153
:101D2000019921F420510191019921F4602101913F
:101D300001990191016841F0004101600168009141
:101D4000009941F080410091009921F480010091B7
:101D5000009921F0FE510091009921F0700100914D
:101D600000990091009941F080710091009921F44F
:101D700000510091019940F8101C0099016000BFCA
:101D8000D0F8F810C907FBD0016821F400610160A8
:101D900002B0704740F21010C2F2000001684A1C05
:101DA000C729026067DB42F20021C2F20001096824
:101DB000002960D00021016040F22000C2F2000042
:101DC00000680138072888BF7047DFE800F0040D7D
:101DD00019222B34404940F21810C2F2000000686A
:101DE000C1790339C171704740F21810C2F2000086
:101DF00000688179C27903398171D11EC171704740
:101E000040F21810C2F20000006881790339817134
:101E1000704740F21810C2F2000000688179C27960
:101E2000033910E040F21810C2F200000068C179D6
:101E30000331C171704740F21810C2F2000000680F
:101E40008179C27903318171D11CC171704740F22F
:101E50001810C2F200000068817903318171704767
:101E600040F21810C2F2000000688179C279033193
:101E70008171D11EC17170474EF60C50BFF34F8F68
:101E8000CEF200000168042201F4E061C0F2FA52CF
:101E900011430160BFF34F8F00BFFDE780B542F2F1
:101EA0001420C2F20000006848B1804744F2FC30C0
:101EB000C4F20000016841F00801016080BD42F2F7
:101EC000F810C2F200000121016080BD84B0FFF76C
:101ED000CDF8FFF795FE40F21C00C2F2000000684A
:101EE00044F6D351C1F26201A0FB01014FF0FF3073
:101EF00000EB91104FF0000ABAEB106F0ED14EF2CA
:101F00001001CEF2000148604EF62350CEF20000E0
:101F1000E02202700720C1F808A008604EF20740D6
:101F2000CEF2000040F2B81880F800A00825022088
:101F3000C2F2000847F6400248F2000BCDE9000566
:101F4000C0F27D12404600210123C4F2030BFFF7CB
:101F5000ADFB40460321FEF74DFB03A802A9FEF7A7
:101F600003FBDDE9022140F2681040F2EC134FF46C
:101F70000057C2F20000C2F20003009700F098FA86
:101F800040461021FFF7CCFC012000F00DF9FF20A6
:101F900000F016F9FF2000F0C9FA42F68840C0F2BE
:101FA000000000F0BDFA42F29910C0F20000FEF706
:101FB000D5FA42F28910C0F2000000F0FBF845F2B9
:101FC000FC30C4F20000016841F002010160FEF73C
:101FD000BDFADBF8000040F2181C20F00100CBF83D
:101FE000000049F20000C4F20300016842F22C2410
:101FF00021F0010101600921CBF840500164DBF8B8
:10200000441040F2200341F02201CBF84410416C0F
:1020100040F2001541F022014164DBF8301042F239
:10202000F01741F00501CBF83010016B40F20816B3
:1020300041F005010163DBF8001040F28C0E41F025
:102040000101CBF80010016840F2900941F0010154
:102050000160DBF82810C2F2000C41F00101CBF85E
:102060002810816AC2F2000441F00101816240F24D
:102070006000C2F20000C2F20003C2F20005C2F228
:102080000007C2F20006C2F2000EC2F20009CCF84C
:10209000000004E0DEF80000B0F1FF3F70DDDBF887
:1020A0004800228881B28A1A48BF5242332A24D378
:1020B000012202EB5121196019680929A4BF0821E6
:1020C000196019680029DCBF012119602080DCF843
:1020D000000019684A1E40F26001072AC2F200019E
:1020E00005D842F65051C0F2000151F82210CCF848
:1020F000001088421CBFC088C880DBF8280040F070
:102100000100CBF82800C5F800A03868A0B1D9F8C4
:10211000000088B1C7F800A0C9F800A0E246D84680
:10212000F34600F06DF940F22003DE46C346C2F2EA
:102130000003D4464FF0000A30680128AFD140F2C6
:102140005C10C2F2000040F20411C0F800A0C2F21C
:102150000001086801300860086844F6216188427F
:1021600098D33068012895D1DEF800000138CEF808
:10217000000040F20410C2F20000C0F800A089E79D
:102180000320CEF800008AE740F29000C2F200007F
:10219000012101607047000040F29000C2F200008F
:1021A00001210160704700000149C86070470000CC
:1021B0000000002001490861704700000000002075
:1021C0004FF478414FF4FC6201EA102102EA501208
:1021D0001143C0F3C4000143114810B4C2682AB9C6
:1021E0004FF47F4202EA012242EA11218268D2E9D9
:1021F0000BC4936C906B04FB1C339C45C8BF184602
:10220000401E3CBF10BC7047936B8342DCBF10BCC8
:102210007047536B23F81010401EF5D210BC704766
:10222000000000202DE9F04730F8025B324F30F813
:10223000023B30F802CB044605FB03F64819451E65
:10224000D018431EB868BCF1000F4162C0E9041504
:10225000C0E9062304D0BCF1010F15D0BDE8F0871A
:10226000751E38BFBDE8F0872088F968002908BFCF
:1022700040BA00F06DF9002808BFBDE8F087A41C43
:102280006D1EF1D2BDE8F08734F8029B34F8028B62
:10229000B9F1000F1CBFA9F1010085B214D0F86894
:1022A000002808BF98FA98F8404600F051F9002835
:1022B00008BFBDE8F087681E85B2F0D2A6EB09061C
:1022C000002EE1D1BDE8F087B8F1010085B20FD34F
:1022D000F9682088002908BF40BA00F039F90028C1
:1022E00008BFBDE8F087691E8DB204F10204EFD289
:1022F000A6EB0806E4E700000000002070B50346E6
:1023000015489142B0F804C01FFA8CF5C8BF70BDE3
:10231000D0F814C0BCF1000F08BF70BDC468002C19
:1023200008BF6DBA03EB0C048068641E4162103074
:1023300080E81E00501A401C00FB0CF60024002E02
:10234000D8BF70BD284600F003F900281CBF641CEC
:10235000B442F7DB70BD0000000000202DE9F04121
:102360000F46804601461C4615463846FFF7C6FF15
:102370000A4E414670692844421E2046FFF7BEFFC0
:1023800022463946404600F00BF870693946204431
:10239000421E2846BDE8F04100F002B800000020CF
:1023A00070B5164B9142B3F804C01FFA8CF5C8BF44
:1023B00070BDD3F814C0BCF1000F08BF70BDDC685D
:1023C000002C08BF6DBA00EB0C049B68641E5862B9
:1023D000C3E90404501AC3E90612401C00FB0CF6C2
:1023E0000024002ED8BF70BD284600F0B1F80028A8
:1023F0001CBF641CB442F7DB70BD0000000000206D
:1024000070B52A4C4FF00005A06890F84C1011F000
:10241000010F0BD1056205630560026CC0E901255F
:10242000826A41F00301C26080F84C10426C8168FE
:1024300091420DDB056290F84C1021F0010180F80B
:102440004C102069002808BF70BDBDE870400047EF
:1024500090F84C00C0F34000FEF750F8A06890F8E8
:102460004C1021F0020180F84C100560826A8168EE
:1024700011448160C3681A44C260026B521C02633B
:10248000426C91420ADB891A036C826B406BBDE897
:10249000704001FB13214900FEF77CB8816B406B53
:1024A000BDE870404900FEF775B80000000000204C
:1024B00010B4019CC0E910124A43826490F84C2089
:1024C000C46322F0040C620892FBF1F2436382625F
:1024D00002FB01F383630023C0E90031C0E902324B
:1024E00003632CF0010380F84C305143C162024970
:1024F000886010BC70470000000000204FF4784155
:102500004FF4FC6201EA102102EA50121143C0F3B9
:10251000C4000843014948607047000000000020E3
:102520000149086070470000000000204FF4784126
:102530004FF4FC6201EA102102EA50121143C0F389
:10254000C400084301498861704700000000002072
:102550001C4989688B68CA69934204DCD1F80CC0B5
:102560008A69624501DD0020704710B4D1F800C0CF
:102570004C69A44512DCD1F810C04C68A4450DDCB0
:1025800093420EDCD21A0B6C02FB03C20A628B6B05
:102590009342C4BF4B6B23F8120002DC10BC002036
:1025A0007047D1E90402904205DB486A401E086189
:1025B0008869401C88610869401C086110BC0120C2
:1025C000704700000000002021F0004201F00043AD
:1025D000A2F16052B2F5801F28BFD2F17F6C0BD9F7
:1025E0005FEA001C43EAC20242EB507018BF70471A
:1025F00028BF20F001007047B2F5801FBCBF18460D
:1026000070474FEA410C1CF5001F02D2084600F04B
:102610002AB970B500F0C6F800000089FFF7F6BFD0
:102620004FF00040A0F580007047B0FA80F310FA38
:1026300003F10AD0C3F11D0303F580634FEA03528F
:102640004FEA415002EBD12170474FF00000704734
:1026500070B5DFF848C11CEA111E1EBF1CEA131535
:102660009EEA0C0F95EA0C0F00F06F8081EA0304DC
:102670004EEAD47EAE4421EA4C1123EA4C1341F4D5
:10268000801143F48013AEF17F7EA1FB024CA0FBCE
:102690000365361955EB0C05A1FB034C4CF1000307
:1026A000A0FB021C16EB0C06654153F10003094226
:1026B00018BF46F0010613F4007F0BD14FEA033137
:1026C0004FEA053041EA155140EA165034036FF0E5
:1026D00003020AE04FEAC3214FEAC52041EA5551FF
:1026E00040EA5650F4026FF0020202EB2E4201EB78
:1026F000025585EACE710AD05FEA440C18BF24F077
:10270000004450F1000041F1000120EAD47040F291
:10271000FE7C624500D270BDA84214BF4FF08044D9
:102720004FF04044002E08BF0024BEF1806FA8BFC8
:10273000A1F1C041BDE8704080F2828001F1C0414A
:1027400001F000414FF0000070470CEA13159EEABB
:102750000C0F18BF95EA0C0F06D081EA030E4FF05C
:1027600000000EF0004170BD00F01CF88900013E31
:1027700000F007B800F009B84FEA430C5FEA5C5C70
:1027800008D081EA030100F05BB84FEA410C5FEA30
:102790005C5CF6D102494FF0000070470000FF0773
:1027A0000000F87F0EF1020E2EF0030E5EF8046BAF
:1027B000364205D4012A43EB030515F5001F12D854
:1027C000012841EB010C1CF5001F0CD80ED14FEA7B
:1027D000D17C0CEB4C0C0CF1020C15F5001F08BF62
:1027E0004CEBD37C04E04FF0080C01E04FEAD37CC3
:1027F0000CEB4C0526FA05F606F00706B6F1040CBC
:1028000006D20EEB860CBDE870404CF0010C604720
:10281000DFE80CF0090B02024FF00041A1F50021A6
:102820004FF0000070BD19461046012851EB01041D
:1028300018BFD4F5001484BF002001F0004170BD22
:102840000808A0F500114FEA31017047F1EE100AB7
:102850004FF6FF71C0F2C03120EA010040F0407035
:10286000E1EE100A7047FF2141EAD050C0057047E1
:10287000050500062009022111111111315007032D
:10288000321212F0400D06D11125211125211131EE
:1028900011E00B06814331526161144190150883A8
:1028A0002121111131111136411111311111212242
:1028B000F030110672312121113221111111112133
:1028C0002311D00602211111D00B03411121212126
:1028D000212121310C0331312121212121211120FC
:1028E000080451231321F0700906F051513531517C
:1028F000F00703F0712111200403F2D00402E1502B
:102900000B058131414131413141900D06D32131D7
:1029100011311131113123E00A05B2211141414138
:1029200024B00905A44141313134B00905A4412244
:10293000514113C00B06E242311121212541E0092A
:1029400005A41143514113C00B05B31144112111CA
:102950002122C00905A44131413141D00C05A41107
:1029600021222112112114B00B05B22121112114B1
:102970004113C005026171500703D1812111200963
:1029800005D122215251F0100705F05464F0100ACD
:1029900006F03262613222F0100904433131222103
:1029A00071A01208F03431411113111111111111DC
:1029B000142184B00C06E24231113121241131D0AE
:1029C0000C05A41121132121112113C00B06D322C0
:1029D000211151522123E00D06C421221131113160
:1029E000112214E009048311331131339009048357
:1029F0001133113131B00C06D412211151221221A0
:102A000024D00E06C131113115113111311131D0DF
:102A10000902411111111111500904A13131313153
:102A200013900D05A1211111223231112121B0097C
:102A300004813131313133901808F01232123211E1
:102A40001111111111111111111111112121F02068
:102A50001106C2211221111111111111112211227D
:102A6000D00E07F4223111411141113224F0100B24
:102A700005A321211121132141E00F08F024323157
:102A80002141214121323581900D05A321211121C0
:102A90001321211121B00905B31142524113C0097C
:102AA00006C53151515151F00E06C131113111316C
:102AB0001131113123E00E07E14121213121311182
:102AC0005252F020170AF0513131212121311111D8
:102AD000113111111142125131F0800D06D1212115
:102AE00011415231112131D00C06C1312111311166
:102AF000415151F00905A44131314134B00B033249
:102B000011212121212121220B0551415141514106
:102B10004151600B033221212121212121120B047B
:102B200091211111111111F020050600066506030F
:102B30000131F0A00905F44114112114B00D055123
:102B4000414321211121112113C00804D211313137
:102B500042900D0581412311211121112123B00A39
:102B600005F0122121141153B00A045221232131FE
:102B70003131A00B05F411211411531121140E054C
:102B80005141441121112111211121B0090221319A
:102B900011111111500A0341512121212121120E3D
:102BA000055141412111112231112121B00A022187
:102BB000111111111111501208F097112121112139
:102BC00021112121112121F0200C05F411211121C5
:102BD00011211121B00C06F04321311131113123A3
:102BE000E00D05F3212111211121132141400D0593
:102BF000F0131121112111212341410804C3113186
:102C00003131B00804C311423113900904912321DA
:102C1000313132900C05F12111211121112114B013
:102C20000A05F1211121223232C01307F06121116E
:102C30001112111112112111112121F0100A05F1A7
:102C4000212232322121B00D05F121211121112241
:102C5000414131300804C331212133900B0452210A
:102C6000313121413131320B022111111111111178
:102C700011110C03312121213111212121200905BC
:102C8000A2111112F0F0100001080A08000005005E
:102C90000E00150022002D00420053005900640070
:102CA00070007800810088008C0090009B00A800D4
:102CB000B200BB00C400CF00D800E300EC00F80075
:102CC000030108010F0118011F012901320144010C
:102CD00050015C01670174017D0186019201A00130
:102CE000A901B201BF01C801E001F101FF010A021F
:102CF000190226022F023802460254026B027802A1
:102D000084028D029802A302AE02B902BE02C4027E
:102D1000CD02DA02E202EF02F90203030E031C0302
:102D200025032F033D0347035903650371037E0306
:102D30008B0393039B03A403B003BA03CD03D70310
:102D4000E403EC03F70302040E0400007028000003
:102D500060000020300000207800002048000020A3
:102D60006C0000203C0000205400002024000020C3
:102D70000000000000000000000000000000000053
:102D8000000000000000000000093D0000803E003F
:102D900000004B00404B4C0000204E00808D5B003B
:102DA00000C05D000080700000127A0000007D000D
:102DB00080969800001BB7000080BB00C0E8CE00E2
:102DC000647ADA000024F4000000FA0080A81201FE
:102DD000002D310100366E0140787D010D000D009F
:102DE00000000000000000000000000000001F00C4
:102DF00000000000000000000000000000000000D3
:102E000000000000000000001F00000000000000A3
:102E100000000000000000000000000000000000B2
:102E200000001F0000000000000000000000000083
:102E3000000000001F001F00000000001F00000035
:102E400000001F001F0000000000000000001F0025
:102E50001F00000000001F00000000001F001F00F6
:102E600000000000000000001F001F001F001F00E6
:102E70001F001F001F001F001F00000000000000B7
:102E800000001F001F001F001F001F001F001F0069
:102E90001F001F0000000000000000001F001F00B6
:102EA0001F001F001F001F001F001F001F00000049
:102EB0000000000000001F001F001F001F001F0077
:102EC0001F001F001F001F00000000000000000086
:102ED0001F001F001F001F001F001F001F001F00FA
:102EE0001F0000000000000000001F001F001F0066
:102EF0001F001F001F001F001F001F000000000018
:102F0000000000001F001F00000000000000000083
:102F100000001F001F0000000000000000001F0054
:102F20001F00000000000000000000001F001F0044
:102F3000000000000D000D0000001F001000000048
:102F40000000000009001300000000000000000065
:102F50000000000010001F001200000000000F0021
:102F60001F0014000000000000000000000000002E
:102F700012001F0013000000000010001F001600C8
:102F800000000000000000000000000013001F000F
:102F900010000D001F001F001F00120000000000A5
:102FA000000000000000000010001F001F001F00B4
:102FB0001F001F001F0016000000000009000F0086
:102FC00000000D001F001F001F001F001F001F003A
:102FD0001F001400000013001F0010001F001F003E
:102FE0001F001F001F001F001F0010001F00130004
:102FF000000014001F001F001F001F001F001F0003
:103000001F000D0000000F00090000000000160066
:103010001F001F001F001F001F0011000000000004
:103020000000000000000000000012001F001F0050
:103030001F000D0000000000000000000000000064
:1030400000000000000016001F001000000000003B
:103050000000000000000000000000000000000070
:10306000000014001F000F0000000000000000001E
:10307000000000000000000000000000000013003D
:103080000900000000000000000000000D000D001D
:103090000000000000000000000000000000000030
:1030A0000000000000000000000000000000000020
:1030B0000000000000000000000000000000000010
:1030C0000000000000000000000000001F001F00C2
:1030D0001F001F001F001F001F001F001F001F00F8
:1030E0000000000000001F001F001F001F001F0045
:1030F0001F001F001F001F001F0000000000000035
:10310000000000001F001F001F001F001F001F0005
:1031100000000000000000000000000000001F0090
:103120001F001F001F001F001F00000000001F00E5
:103130001F001F001F001F001F001F001F001F0097
:103140001F001F0000000000000000000000000041
:1031500000001F001F001F001F001F001F000000B5
:103160000000000000000000000000001F001F0021
:103170001F001F001F001F000000000000000000D3
:1031800000001F001F001F001F001F001F001F0066
:103190001F001F001F000000000000001F001F0094
:1031A0001F001F001F001F001F001F001F001F0027
:1031B000000000000000000000000000000000000F
:1031C00000000000000000000000000000000000FF
:1031D00000000000000000000000000000000000EF
:1031E000000000000D000D000000000000000000C5
:1031F00000000000000012000900000000000000B4
:1032000000000000000000000000000000001400AA
:103210001F000F0000000000000000000000000080
:1032200000000000000016001F0010000000000059
:10323000000000000000000000000000000012007C
:103240001F001F001F000D00000000000000000014
:1032500000000000000016001F001F001F001F00DC
:103260001F0011000000000000000000000014001A
:103270001F001F001F001F001F001F001F000D0068
:1032800000000F00090012001F0010001F001F00A7
:103290001F001F001F001F001F0010001F00120052
:1032A00009000F0000000D001F001F001F001F007D
:1032B0001F001F001F00140000000000000000009D
:1032C00010001F001F001F001F001F001F0016001E
:1032D000000000000000000013001F0010000D009F
:1032E0001F001F001F00120000000000000000006F
:1032F00012001F0013000000000010001F00160045
:10330000000000000000000010001F00120000007C
:1033100000000F001F00140000000000000000006B
:1033200000001F0010000000000000000900120053
:103330000000000000000000000000000D000D0073
:103340000000000000001F001F000000000000003F
:10335000000000001F001F0000000000000000002F
:103360001F001F00000000000000000000001F0000
:103370001F0000000000000000001F001F001F00D1
:103380001F001F001F001F001F001F000000000083
:10339000000000001F001F001F001F001F001F0073
:1033A0001F001F001F0000000000000000001F00A1
:1033B0001F001F001F001F001F001F001F001F0015
:1033C00000000000000000001F001F001F001F0081
:1033D0001F001F001F001F001F0000000000000052
:1033E00000001F001F001F001F001F001F001F0004
:1033F0001F001F0000000000000000001F001F0051
:103400001F001F001F001F001F001F001F000000E3
:103410000000000000001F001F00000000001F004F
:10342000000000001F001F0000000000000000005E
:103430001F001F00000000001F00000000001F0010
:103440001F0000000000000000000000000000005D
:1034500000001F000000000000000000000000004D
:103460000000000000000000000000001F0000003D
:10347000000000000000000000000000000000004C
:103480000000000000001F0000000000000000001D
:10349000000000000D000D00000000000000000012
:1034A0000000000009001300000000000000000000
:1034B00000000000000000000000000000000F00FD
:1034C0001F001400000000000000000000000000C9
:1034D0000000000000000000000010001F001600A7
:1034E00000000000000000000000000000000000DC
:1034F00000000D001F001F001F0012000000000050
:103500000000000000000000000011001F001F006C
:103510001F001F001F0016000000000009000F0020
:1035200000000D001F001F001F001F001F001F00D4
:103530001F001400000013001F0010001F001F00D8
:103540001F001F001F001F001F0010001F0013009E
:10355000000014001F001F001F001F001F001F009D
:103560001F000D0000000F00090000000000160001
:103570001F001F001F001F001F001F001000000081
:103580000000000000000000000012001F001F00EB
:103590001F000D0010001F001300000000000000BD
:1035A00000000000000016001F00100000000000D6
:1035B00013001F00120000000000000000000000C7
:1035C000000014001F000F000000000012001F0088
:1035D00010000000000000000000000000001300C8
:1035E000090000000000000010001F000D000D0089
:1035F00000000000000000000000000000000000CB
:1036000000000000000000000000000000000000BA
:1036100000000000000000000000000000000000AA
:103620000000000000001F001F001F001F001F00FF
:103630001F001F001F001F001F00000000000000EF
:103640001F001F001F001F001F001F001F001F0082
:103650001F001F00000000000000000000001F000D
:103660001F001F001F001F001F00000000000000BF
:1036700000000000000000001F001F001F001F00CE
:103680001F001F00000000000000000000000000FC
:1036900000001F001F001F001F001F001F001F0051
:1036A0001F001F001F001F00000000001F001F0060
:1036B0001F001F001F001F0000000000000000008E
:1036C0000000000000001F001F001F001F001F005F
:1036D0001F00000000000000000000001F001F008D
:1036E0001F001F001F001F001F001F001F001F00E2
:1036F0000000000000001F001F001F001F001F002F
:103700001F001F001F001F001F000000000000001E
:1037100000000000000000000000000000000000A9
:103720000000000000000000000000000000000099
:103730000000000000000000000000000000000089
:10374000000000000D000D0000000000000000005F
:10375000000000000000120009000000000000004E
:1037600010001F0000000000000000000000140016
:103770001F000F000000000012001F0010000000DA
:1037800000000000000016001F00100000000000F4
:1037900013001F00120000000000000000001200D3
:1037A0001F001F001F000D0010001F00130000006D
:1037B00000000000000016001F001F001F001F0077
:1037C0001F001F0010000000000000000000140097
:1037D0001F001F001F001F001F001F001F000D0003
:1037E00000000F00090012001F0010001F001F0042
:1037F0001F001F001F001F001F0010001F001200ED
:1038000009000F0000000D001F001F001F001F0017
:103810001F001F001F001400000000000000000037
:10382000000011001F001F001F001F001F001600D6
:1038300000000000000000000000000000000D007B
:103840001F001F001F001200000000000000000009
:103850000000000000000000000010001F00160023
:103860000000000000000000000000000000000058
:1038700000000F001F001400000000000000000006
:10388000000000000000000000000000090012001D
:10389000000000000000000000000000010E130EF8
:1038A00000000500150024003F005B007A00940032
:1038B0009E00B100C500D300E200EA00F300FB0067
:1038C0000E0128013B014F01630179018D01A10126
:1038D000B301CA01E101EA01F50103020F021C0272
:1038E0002E0253026B0283029802B102C302D50278
:1038F000ED0209031B0330034B035D038903AC0393
:10390000C603DB03FC0316042A043C0458047404B5
:10391000A304BC04D304E404F70408051B0526052E
:103920002E0537054B056105720588059B05AD051C
:10393000C305DC05EA0500061806290645065B06F0
:103940006E0686069B06AD06BC06CD06E206F606AA
:10395000150728073F074E0761077407880700000F
:10396000643900000506000E2010033212121212F4
:103970001212121212124212D00F07E22212221257
:103980002212221222000A501B0EF0F02232723252
:103990004C2C4232722362325C2C422362327232ED
:1039A0000009401C0B429285482312522252225891
:1039B00057621352221222131937729292F0C01FCB
:1039C0000DF0615332452152121255117312B1B2EA
:1039D000B1335225413212323531530008301A0CBE
:1039E000F0D385721274838431322221224422530F
:1039F00023424945310007500A036212121212F0A5
:103A0000F070130692333232423242424242424214
:103A100052425252D01406624342524252424242F1
:103A200042424232423232F0100E08F04147263311
:103A300042123122000B200F090006027272481850
:103A40004272720007200803F0F0A11211B00906BB
:103A5000000605150006700803F0F06212F010135E
:103A600008F062626252625262526252625262F0C4
:103A7000F0801A0AF0844732322252125212521245
:103A80005212521252223237450006501307F012DA
:103A9000433431125252525252523616F0F06014E0
:103AA00009F0544713321242725353435362781849
:103AB0000005601408F02527123262532455626213
:103AC00011421635F0F0C0160BF0D28374711261FA
:103AD00022522242323A1A7292920007201409F0BE
:103AE00038181276372233124272721233173500A9
:103AF000061409F07263535362672812421242138C
:103B00002326440006120AF05919727281828272C9
:103B1000827282810007101709F054372242124244
:103B20001736232312421242124217440006170985
:103B3000F054462323124212421323273662635362
:103B40004452F0F0C00903F03212A212F0400B040C
:103B5000F0A222F0321222F0300E06F0F0323323BF
:103B600022525252F0F0D00C07F0F05616F07616B2
:103B70000006200D06F0F252525223233100057048
:103B80001208F0A4362223626262524351E262F0CC
:103B9000F070250EF03579525332723222421222E1
:103BA000521212213212121232121922222333C25D
:103BB000D2426885000570180BF0D29283721262AF
:103BC00012522247473243225212621262000718F1
:103BD00009F035463223223222232637223312427D
:103BE00012331725000610150AF09546332223726A
:103BF000737282825213332744000660190BF072ED
:103C0000956742333252226212621262126212438A
:103C100028460007301208F0171712626267171261
:103C200062626726F0F0B0120AF058291282828888
:103C3000282282828282000720180BF0B37643226A
:103C4000338282171217126212522243375400072E
:103C5000401C0BF072621262126212621262122631
:103C60001A1442126212621262126200071209F002
:103C700038184272727272727272481800056015BA
:103C80000BF098386292929292423242324322561C
:103C9000730007401B09F0325112421232222232C5
:103CA0001243636452124222323312420005601200
:103CB00008F0126262626262626262626717F0F02A
:103CC000B02C0EF0F01241633353335333511131A2
:103CD0001142121212321212123212121231221226
:103CE00012222422223332123332000870230CF0C5
:103CF0009271227213621452121242122232123143
:103D000032123222124212125412631272000750FF
:103D10001A0CF0D5583343226213621272127212D7
:103D2000631262324338640008101508F015362219
:103D3000231232122316253262626262000560216C
:103D40000EF0F026694443327222921292129212BD
:103D50004142223232233212497412D2D2D1F0E0DF
:103D60001A0AF05466422332332242224222323669
:103D700046422332431252000630140AF08456336E
:103D80007286568382125212432744000660120B39
:103D9000F07A1A52929292929292929292000740E4
:103DA0001C0BF072621262126212621262126212D2
:103DB0006212621342323337640007301C0AF05239
:103DC00052125212423232323232323222521252B3
:103DD00012521263730006602F10F0F0225242124A
:103DE0004342124342124111422222122232221233
:103DF0002232221222321222125112221253321273
:103E000053346343000A40190BF07262126222427B
:103E10004222648293755222424222621262000759
:103E2000170AF052521252223322324213421264C3
:103E300064727372720007110BF07A1A73737373E2
:103E4000828282829A1A0007130665151242424244
:103E500042424242424242424515D01107E252627A
:103E600052616252616252526252F0E0130665156D
:103E70004242424242424242424242421515D00B25
:103E800007924432121231000C30080C00164B1B02
:103E9000F0A009044132323100071014090007056F
:103EA00036232222322232223227341200056016B3
:103EB00009927272727272133723231242124212E3
:103EC00033172600061108000624362231126262DA
:103ED000412634F0F0C01609F2727272723627135E
:103EE00032124212421332273600056013080006D0
:103EF000243613221222221233311734F0F0C0126A
:103F000008C3443352624626426262626262F0F043
:103F1000E01608000624361322123212321223173A
:103F2000231262522625B01908826262626262130D
:103F300027132212321232123212321232F0F0B041
:103F40000E0362127212121212121212F0101607DF
:103F5000F03252F0425252525252525252122212E5
:103F60002225332018088262626262623122222294
:103F7000123535322222321232F0F0B011033212F1
:103F80001212121212121212121212F0101C0B0044
:103F9000082213122A131312122222122222122290
:103FA00022122222122222000716080006021327DC
:103FB000132212321232123212321232F0F0B013D5
:103FC000080006234522321232123212322543F003
:103FD000F0D01808F0F0A262132712321232123217
:103FE00012321625326262626260150800062526CA
:103FF000132212321232123226356262626290123B
:1040000007F0F0C213131212221252525252F0F061
:10401000A00F07F0F0F325134535521624F0F07089
:104020001107F08252523616325252525252F0F06A
:104030008015080006023212321232123212321287
:10404000321726F0F0B014080006023212322212A3
:1040500032123212435361F0F0E01F0B00082222AB
:1040600022122222122222121412121211121212DF
:104070001112232333230007101309000662421391
:1040800023264454462323124200056017090006E4
:10409000624213322232231242124463627262720B
:1040A0006272600F0800060717525252525717F0FB
:1040B000F0B013068324224242424233325242423B
:1040C00042425333D013033212121212121212123E
:1040D00012121212121212701407734452525252D8
:1040E00052535333425252523343F03011090005B8
:1040F00072642112122112241133000A30000000D0
:104100002041000000000020A0000000A8020000E4
:10411000C0410000A0000020982B0000C402000055
:10412000000000000000000000000000000000008F
:104130000000000001000000000000000024F40066
:104140000100000044370000150F64320000000039
:10415000342F0000150F643200000000943400007A
:10416000150F643200000000E4310000150F6432C6
:1041700000000000EC350000150F64320000000064
:10418000DC2D0000150F6432000000003C330000FD
:10419000150F6432000000008C300000150F6432EF
:1041A0000000000005000000010000000300000006
:1041B00001000000320000001E00000000000000AE
:040000050000026D88
:00000001FF
